{
  "transactions": [
    {
      "hash": "0xf3b355f0faa589546134c1c1f69dd31e5a59a62cae237d2928f3140299f15fb7",
      "transactionType": "CREATE",
      "contractName": "IrisDelegationManager",
      "contractAddress": "0x5fbdb2315678afecb367f032d93f642f64180aa3",
      "function": null,
      "arguments": null,
      "transaction": {
        "from": "0xf39fd6e51aad88f6f4ce6ab8827279cfffb92266",
        "gas": "0x157acd",
        "value": "0x0",
        "input": "0x6101606040523461013d57604051610018604082610141565b6015815260208101907f4972697344656c65676174696f6e4d616e616765720000000000000000000000825260405191610053604084610141565b600183526020830191603160f81b835261006c81610178565b610120526100798461030e565b61014052519020918260e05251902080610100524660a0526040519060208201927f8b73c3c69bb8fe3d512ecc4cf759cc79239f7b179b0ffacaa9a75d522b39400f8452604083015260608201524660808201523060a082015260a081526100e260c082610141565b5190206080523060c0526040516112519081610447823960805181610d2c015260a05181610de9015260c05181610cf6015260e05181610d7b01526101005181610da1015261012051816106dc015261014051816107050152f35b5f80fd5b601f909101601f19168101906001600160401b0382119082101761016457604052565b634e487b7160e01b5f52604160045260245ffd5b908151602081105f146101f2575090601f8151116101b25760208151910151602082106101a3571790565b5f198260200360031b1b161790565b604460209160405192839163305a27a960e01b83528160048401528051918291826024860152018484015e5f828201840152601f01601f19168101030190fd5b6001600160401b038111610164575f54600181811c91168015610304575b60208210146102f057601f81116102be575b50602092601f821160011461025f57928192935f92610254575b50508160011b915f199060031b1c1916175f5560ff90565b015190505f8061023c565b601f198216935f8052805f20915f5b8681106102a6575083600195961061028e575b505050811b015f5560ff90565b01515f1960f88460031b161c191690555f8080610281565b9192602060018192868501518155019401920161026e565b5f8052601f60205f20910160051c810190601f830160051c015b8181106102e55750610222565b5f81556001016102d8565b634e487b7160e01b5f52602260045260245ffd5b90607f1690610210565b908151602081105f14610339575090601f8151116101b25760208151910151602082106101a3571790565b6001600160401b03811161016457600154600181811c9116801561043c575b60208210146102f057601f8111610409575b50602092601f82116001146103a857928192935f9261039d575b50508160011b915f199060031b1c19161760015560ff90565b015190505f80610384565b601f1982169360015f52805f20915f5b8681106103f157508360019596106103d9575b505050811b0160015560ff90565b01515f1960f88460031b161c191690555f80806103cb565b919260206001819286850151815501940192016103b8565b60015f52601f60205f20910160051c810190601f830160051c015b818110610431575061036a565b5f8155600101610424565b90607f169061035856fe60806040526004361015610011575f80fd5b5f5f3560e01c8063105af0121461081a578063232acf5e146107eb5780634bdf9344146107bc57806384b0196e146106c4578063b96f2b0714610671578063c66f577514610637578063c791184b146100dd578063e7a324dc146100a25763f698da251461007d575f80fd5b3461009f578060031936011261009f576020610097610cf3565b604051908152f35b80fd5b503461009f578060031936011261009f5760206040517f0d2de0a6d267694955ea1dcb240511c0c2bfd2a830b209bd10c8b0c8ae37cee98152f35b50346104925760403660031901126104925760043567ffffffffffffffff811161049257366023820112156104925780600401359067ffffffffffffffff8211610492576024810190602436918460051b0101116104925760243567ffffffffffffffff811161049257806004019060606003198236030112610492578315610628575f1984019284841194856105fa5761018161017c868385610bee565b610937565b955f80604051602081019063ea4d3c9b60e01b8252600481526101a56024826108b3565b51908a5afa6101b2610c30565b9015801561061d575b61060e5780516001600160a01b03916101dc91810160209081019101610c5f565b16300361060e575f9582805b6105525750505061020460206101fe8385610bd3565b01610937565b336001600160a01b03909116036105435761022c6102228284610bd3565b606081019061087d565b60248501359460440193915f5b8281106104a5575050505f8061024e87610937565b6102ac61025b878a61094b565b604051635b0e93fb60e11b602082019081526001600160a01b039095166024820152604481018b9052606060648201529291839161029e91608484019190610c10565b03601f1981018352826108b3565b5190828b5af16102ba610c30565b5015610496576102cd9161022291610bd3565b9290915f5b84811061032457868952600360205260408920805460ff1916600117905588336001600160a01b038a16897f021c7c160a94ec8a04c191a1ccaa4ff1fb3c5b6ca6f712cfe724d496cc0b1e3a8480a480f35b88156103e857886001600160a01b0361034161017c848989610901565b1661035a610350848989610901565b602081019061094b565b916103648a610937565b9061036f878c61094b565b90823b156103e45786948f948f9387938d6103a5936040519b8c9a8b998a98631c66287b60e11b8a523393309160048c01610c7e565b03925af180156103d9576103c0575b50506001905b016102d2565b816103ca916108b3565b6103d557885f6103b4565b8880fd5b6040513d84823e3d90fd5b8680fd5b6001600160a01b036103fe61017c838888610901565b1661040d610350838888610901565b9161041789610937565b90610422868b61094b565b90823b15610492575f946104598f95938f94938c89956040519b8c9a8b998a986316e2144760e31b8a523393309160048c01610c7e565b03925af1801561048757610471575b506001906103ba565b61047e9199505f906108b3565b5f976001610468565b6040513d5f823e3d90fd5b5f80fd5b632b3f6d1160e21b5f5260045ffd5b6001600160a01b036104bb61017c838686610901565b16906104cb610350828686610901565b926104d58b610937565b906104e08a8d61094b565b90823b15610492578f93948f92610519908f935f989489956040519c8d9a8b998a98631c66287b60e11b8a523393309160048c01610c7e565b03925af191821561048757600192610533575b5001610239565b5f61053d916108b3565b5f61052c565b630cbecb4d60e21b5f5260045ffd5b5f1901968290610563898688610bee565b916105fa578883036105cd57506001600160a01b0361058460408301610937565b16610543575b610593816109d0565b90815f52600260205260ff60405f2054166105ba57906105b4818a93611002565b976101e8565b50630eb361a760e11b5f5260045260245ffd5b6105d960408301610937565b6001600160a01b0390811691161461058a57630cbecb4d60e21b5f5260045ffd5b634e487b7160e01b5f52601160045260245ffd5b63bd6d5f5760e01b5f5260045ffd5b5060208151106101bb565b63081d4e5160e11b5f5260045ffd5b34610492575f3660031901126104925760206040517f80ad7e1b04ee6d994a125f4714ca0720908bd80ed16063ec8aee4b88e9253e2d8152f35b3461049257602036600319011261049257600435805f52600260205260405f20600160ff1982541617905533907f85447bad2d347065c177bd751ff821e559edced77491fe96ca82c6e3de7caedc5f80a3005b34610492575f366003190112610492576107606107007f0000000000000000000000000000000000000000000000000000000000000000610e0f565b6107297f0000000000000000000000000000000000000000000000000000000000000000610f32565b602061076e6040519261073c83856108b3565b5f84525f368137604051958695600f60f81b875260e08588015260e0870190610859565b908582036040870152610859565b4660608501523060808501525f60a085015283810360c08501528180845192838152019301915f5b8281106107a557505050500390f35b835185528695509381019392810192600101610796565b34610492576020366003190112610492576004355f526003602052602060ff60405f2054166040519015158152f35b34610492576020366003190112610492576004355f526002602052602060ff60405f2054166040519015158152f35b346104925760203660031901126104925760043567ffffffffffffffff81116104925760c06003198236030112610492576100976020916004016109d0565b805180835260209291819084018484015e5f828201840152601f01601f1916010190565b903590601e1981360301821215610492570180359067ffffffffffffffff821161049257602001918160051b3603831361049257565b90601f8019910116810190811067ffffffffffffffff8211176108d557604052565b634e487b7160e01b5f52604160045260245ffd5b67ffffffffffffffff81116108d55760051b60200190565b91908110156109235760051b81013590603e1981360301821215610492570190565b634e487b7160e01b5f52603260045260245ffd5b356001600160a01b03811681036104925790565b903590601e1981360301821215610492570180359067ffffffffffffffff82116104925760200191813603831361049257565b67ffffffffffffffff81116108d557601f01601f191660200190565b9291926109a68261097e565b916109b460405193846108b3565b829481845281830111610492578281602093845f960137010152565b9060608201916109e0838261087d565b939050610a056109ef856108e9565b946109fd60405196876108b3565b8086526108e9565b6020850190601f19013682375f5b610a1d838561087d565b9050811015610acc57610a3d61017c82610a37868861087d565b90610901565b610a58610a5161035084610a37888a61087d565b369161099a565b602081519101206040519060208201927f80ad7e1b04ee6d994a125f4714ca0720908bd80ed16063ec8aee4b88e9253e2d845260018060a01b03166040830152606082015260608152610aac6080826108b3565b5190209086518110156109235760019160208260051b8901015201610a13565b50939050610ad982610937565b91610ae660208201610937565b91610af360408301610937565b90604051602081018092519098905f5b818110610bbd575050509081610b2960809594936042999a03601f1981018352826108b3565b519020604080517f0d2de0a6d267694955ea1dcb240511c0c2bfd2a830b209bd10c8b0c8ae37cee9602082019081526001600160a01b03988916928201929092529587166060870152959091168385015260a0840152013560c0808301919091528152610b9760e0826108b3565b519020610ba2610cf3565b906040519161190160f01b8352600283015260228201522090565b82518b5260209a8b019a90920191600101610b03565b90156109235780359060be1981360301821215610492570190565b91908110156109235760051b8101359060be1981360301821215610492570190565b908060209392818452848401375f828201840152601f01601f1916010190565b3d15610c5a573d90610c418261097e565b91610c4f60405193846108b3565b82523d5f602084013e565b606090565b9081602091031261049257516001600160a01b03811681036104925790565b94966101009496602098610ca4610cf09d9b948b97966101208b526101208b0191610c10565b888103878a018190525f82526001600160a01b0396871660408b015260608a019a909a52908516608089015290841660a0880152921660c086015260e085015293019101520191610c10565b90565b307f00000000000000000000000000000000000000000000000000000000000000006001600160a01b03161480610de6575b15610d4e577f000000000000000000000000000000000000000000000000000000000000000090565b60405160208101907f8b73c3c69bb8fe3d512ecc4cf759cc79239f7b179b0ffacaa9a75d522b39400f82527f000000000000000000000000000000000000000000000000000000000000000060408201527f000000000000000000000000000000000000000000000000000000000000000060608201524660808201523060a082015260a08152610de060c0826108b3565b51902090565b507f00000000000000000000000000000000000000000000000000000000000000004614610d25565b60ff8114610e555760ff811690601f8211610e465760405191610e336040846108b3565b6020808452838101919036833783525290565b632cd44ac360e21b5f5260045ffd5b506040515f5f548060011c9160018216918215610f28575b602084108314610f14578385528492908115610ef55750600114610e98575b610cf0925003826108b3565b505f80805290917f290decd9548b62a8d60345a988386fc84ba6bc95484008f6362f93160ef3e5635b818310610ed9575050906020610cf092820101610e8c565b6020919350806001915483858801015201910190918392610ec1565b60209250610cf094915060ff191682840152151560051b820101610e8c565b634e487b7160e01b5f52602260045260245ffd5b92607f1692610e6d565b60ff8114610f565760ff811690601f8211610e465760405191610e336040846108b3565b506040515f6001548060011c9160018216918215610ff8575b602084108314610f14578385528492908115610ef55750600114610f9957610cf0925003826108b3565b5060015f90815290917fb10e2d527612073b26eecdfd717e6a320cf44b4afac2b0732d9fcbe2b7fa0cf65b818310610fdc575050906020610cf092820101610e8c565b6020919350806001915483858801015201910190918392610fc4565b92607f1692610f6f565b61101f61102892611019610a5160a085018561094b565b906110eb565b90939193611125565b6001600160a01b0361103982610937565b6001600160a01b03909316921682146110e75761105581610937565b3b61106a575b638baa579f60e01b5f5260045ffd5b5f6110758192610937565b604051638da5cb5b60e01b6020820190815260048252906110976024826108b3565b51915afa6110a3610c30565b90806110db575b1561105b5780516001600160a01b03916110cc91810160209081019101610c5f565b16146110d957808061105b565b565b506020815110156110aa565b5050565b815191906041830361111b576111149250602082015190606060408401519301515f1a90611199565b9192909190565b50505f9160029190565b60048110156111855780611137575050565b6001810361114e5763f645eedf60e01b5f5260045ffd5b60028103611169575063fce698f760e01b5f5260045260245ffd5b6003146111735750565b6335e2f38360e21b5f5260045260245ffd5b634e487b7160e01b5f52602160045260245ffd5b91907f7fffffffffffffffffffffffffffffff5d576e7357a4501ddfe92f46681b20a08411611210579160209360809260ff5f9560405194855216868401526040830152606082015282805260015afa15610487575f516001600160a01b0381161561120657905f905f90565b505f906001905f90565b5050505f916003919056fea2646970667358221220a5943b5adb3c2ee53980ba7dcd467ca9af4c1907b32fff6af0c46ec5b794c26964736f6c634300081c0033",
        "nonce": "0x0",
        "chainId": "0x7a69"
      },
      "additionalContracts": [],
      "isFixedGasLimit": false
    },
    {
      "hash": "0x700b1b21d202bffc8ba3f3ce1e923435a7c1770280f9a11d7f20f7c174e1df59",
      "transactionType": "CREATE",
      "contractName": "IrisAccountFactory",
      "contractAddress": "0xe7f1725e7734ce288f8367e1bb143e90bb3f0512",
      "function": null,
      "arguments": null,
      "transaction": {
        "from": "0xf39fd6e51aad88f6f4ce6ab8827279cfffb92266",
        "gas": "0xeed90",
        "value": "0x0",
        "input": "0x60808060405234601557610ca5908161001a8239f35b5f80fdfe60806040526004361015610011575f80fd5b5f3560e01c806308a6354e1461005e57631230aea21461002f575f80fd5b3461005a57602061004861004236610077565b91610145565b6040516001600160a01b039091168152f35b5f80fd5b3461005a57602061004861007136610077565b916100e7565b606090600319011261005a576004356001600160a01b038116810361005a57906024356001600160a01b038116810361005a579060443590565b90601f8019910116810190811067ffffffffffffffff8211176100d357604052565b634e487b7160e01b5f52604160045260245ffd5b91906100f76100fd9282856101f5565b92610258565b6020815191012060405190602082019260ff60f81b84523060601b602184015260358301526055820152605581526101366075826100b1565b5190206001600160a01b031690565b9291906101686101568383876101f5565b926101618387610258565b92866100e7565b803b6101ef57506020815191015ff5916001600160a01b0383169081156101b9576001600160a01b0316907fac631f3001b55ea1509cf3d7e74898f85392a61a76e8149181ae1259622dabc85f80a3565b60405162461bcd60e51b815260206004820152600e60248201526d10d4915055114c8819985a5b195960921b6044820152606490fd5b93505050565b916040519160208301936bffffffffffffffffffffffff199060601b1684526bffffffffffffffffffffffff199060601b1660348301526048820152604881526102406068826100b1565b51902090565b805191908290602001825e015f815290565b6040516102bc926102d0926102c29161099c61027760208201866100b1565b8085526102d46020860139604080516001600160a01b03938416602082015291909216818301529081526102ac6060826100b1565b6040519485936020850190610246565b90610246565b03601f1981018352826100b1565b9056fe608034608557601f61099c38819003918201601f19168301916001600160401b038311848410176089578084926040948552833981010312608557604b6020604583609d565b9201609d565b5f80546001600160a01b039384166001600160a01b031991821617909155600180549290931691161790556040516108eb90816100b18239f35b5f80fd5b634e487b7160e01b5f52604160045260245ffd5b51906001600160a01b038216820360855756fe608080604052600436101561001c575b50361561001a575f80fd5b005b5f3560e01c90816303c46f561461055f5750806319822f7c1461050f5780631a8d0de21461049d578063232acf5e1461046e57806347e1da2a1461023a5780638da5cb5b14610213578063b61d27f614610129578063b96f2b07146100b75763ea4d3c9b1461008b575f61000f565b346100b3575f3660031901126100b3576001546040516001600160a01b039091168152602090f35b5f80fd5b346100b35760203660031901126100b3575f54600435906001600160a01b0316330361011a57805f52600260205260405f20600160ff198254161790557f6eb24ce38eb0f7d1e3b4291d5543c7286f02be3daed061b0f7eb6491213deb215f80a2005b635fc483c560e01b5f5260045ffd5b346100b35760603660031901126100b357610142610589565b60443567ffffffffffffffff81116100b357366023820112156100b35780600401359167ffffffffffffffff83116100b35736602484840101116100b3575f546001600160a01b0316331415806101fe575b6101ef5760245f939283859460405193849301833781018481520391602435905af16101be61067d565b90156101e0576101dc906040519182916020835260208301906105d0565b0390f35b632b3f6d1160e21b5f5260045ffd5b630d4a63a160e41b5f5260045ffd5b506001546001600160a01b0316331415610194565b346100b3575f3660031901126100b3575f546040516001600160a01b039091168152602090f35b346100b35760603660031901126100b35760043567ffffffffffffffff81116100b35761026b90369060040161059f565b9060243567ffffffffffffffff81116100b35761028c90369060040161059f565b9060443567ffffffffffffffff81116100b3576102ad90369060040161059f565b909260018060a01b035f541633141580610459575b6101ef5780861480610450575b15610419576102e76102e2879697610752565b610627565b85815294601f196102f782610752565b015f5b8181106104065750505f5b81811061037357866040518091602082016020835281518091526040830190602060408260051b8601019301915f905b82821061034457505050500390f35b919360019193955060206103638192603f198a820301865288516105d0565b9601920192018594939192610335565b61037e81838a61076a565b356001600160a01b03811681036100b35761039a82858861076a565b3590858310156103f2575f80918460051b936103b8858c018c6105f4565b9190826040519384928337810185815203925af1906103d561067d565b9089518410156103f257890160200152156101e057600101610305565b634e487b7160e01b5f52603260045260245ffd5b60606020828a01810191909152016102fa565b60405162461bcd60e51b815260206004820152600f60248201526e098cadccee8d040dad2e6dac2e8c6d608b1b6044820152606490fd5b508181146102cf565b506001546001600160a01b03163314156102c2565b346100b35760203660031901126100b3576004355f526002602052602060ff60405f2054166040519015158152f35b346100b35760203660031901126100b3576104b6610589565b5f546001600160a01b0316330361011a57600180546001600160a01b039283166001600160a01b0319821681179092559091167f4b0f7a6a0118692cc6700b7182c62e33c0aef7d314470553683f6f1d61b9e0de5f80a3005b346100b35760603660031901126100b35760043567ffffffffffffffff81116100b35761012060031982360301126100b35761055760209160443590602435906004016106a2565b604051908152f35b346100b35760203660031901126100b3576020906004355f526002825260ff60405f205416158152f35b600435906001600160a01b03821682036100b357565b9181601f840112156100b35782359167ffffffffffffffff83116100b3576020808501948460051b0101116100b357565b805180835260209291819084018484015e5f828201840152601f01601f1916010190565b903590601e19813603018212156100b3570180359067ffffffffffffffff82116100b3576020019181360383136100b357565b6040519190601f01601f1916820167ffffffffffffffff81118382101761064d57604052565b634e487b7160e01b5f52604160045260245ffd5b67ffffffffffffffff811161064d57601f01601f191660200190565b3d1561069d573d906106916102e283610661565b9182523d5f602084013e565b606090565b907f19457468657265756d205369676e6564204d6573736167653a0a3332000000005f52601c526106dc603c5f20916101008101906105f4565b916106e96102e284610661565b9083825236848401116100b3575f6020856107189661070f96838701378401015261077a565b909291926107b4565b5f546001600160a01b0390811691160361074c578061073657505f90565b5f80808093335af15061074761067d565b505f90565b50600190565b67ffffffffffffffff811161064d5760051b60200190565b91908110156103f25760051b0190565b81519190604183036107aa576107a39250602082015190606060408401519301515f1a90610828565b9192909190565b50505f9160029190565b600481101561081457806107c6575050565b600181036107dd5763f645eedf60e01b5f5260045ffd5b600281036107f8575063fce698f760e01b5f5260045260245ffd5b6003146108025750565b6335e2f38360e21b5f5260045260245ffd5b634e487b7160e01b5f52602160045260245ffd5b91907f7fffffffffffffffffffffffffffffff5d576e7357a4501ddfe92f46681b20a084116108aa579160209360809260ff5f9560405194855216868401526040830152606082015282805260015afa1561089f575f516001600160a01b0381161561089557905f905f90565b505f906001905f90565b6040513d5f823e3d90fd5b5050505f916003919056fea2646970667358221220730565bfa6b6e975ae2777a39631a65975f0d919e566ca525572139f554fa82964736f6c634300081c0033a2646970667358221220b57f87ae1c62b4b995294c83c51fdc9a63ff1fc984a7cb4c3fafbade8a9c285164736f6c634300081c0033",
        "nonce": "0x1",
        "chainId": "0x7a69"
      },
      "additionalContracts": [],
      "isFixedGasLimit": false
    },
    {
      "hash": "0x12a9314f88c5295913c48cde68ba4ff209fc9c861650a3a5e733a36b5ec14f7a",
      "transactionType": "CREATE",
      "contractName": "IrisAgentRegistry",
      "contractAddress": "0x9fe46736679d2d9a65f0992f2272de9f3c7fa6e0",
      "function": null,
      "arguments": null,
      "transaction": {
        "from": "0xf39fd6e51aad88f6f4ce6ab8827279cfffb92266",
        "gas": "0x90170",
        "value": "0x0",
        "input": "0x6080806040523460195760015f556106d7908161001e8239f35b5f80fdfe60806040526004361015610011575f80fd5b5f3560e01c806311ba6b4a1461057a5780632d2a9585146102915780632de5aaf7146100f1578063579a6988146100a357636352211e14610050575f80fd5b3461009f57602036600319011261009f576004355f818152600260205260409020546001600160a01b0316801561008c57602090604051908152f35b50630ede975960e01b5f5260045260245ffd5b5f80fd5b3461009f57602036600319011261009f576004355f526001602052602060405f2060018060a01b03815416151590816100e2575b506040519015158152f35b60ff91506002015416826100d7565b3461009f57602036600319011261009f576004355f60606040516101148161062b565b8281528160208201528260408201520152805f52600160205260405f20906040519061013f8261062b565b82546001600160a01b031682526040516001840180549194919085905f9061016684610669565b808452936001811690811561026f575060011461022b575b5061018b92500385610647565b60208301938452600360ff600283015416916040850192151583520154916060840192835260018060a01b0384511615610219575060c0929160209160405195869484865260018060a01b0390511684860152516080604086015280519384918260a0880152018686015e5f8484018601525115156060840152516080830152601f01601f19168101030190f35b630ede975960e01b5f5260045260245ffd5b90505f9291925260205f20905f915b81831061025357505090602061018b928201018761017e565b6020919350806001915483858b0101520191019091869261023a565b90506020925061018b94915060ff191682840152151560051b8201018761017e565b3461009f57602036600319011261009f5760043567ffffffffffffffff811161009f573660238201121561009f57806004013567ffffffffffffffff811161009f576024820191602482369201011161009f575f54905f19821461056657600182015f55604051906103028261062b565b338252601f19601f8201169160405161031e6020850182610647565b828152828660208301375f81840160209081018290528381019283526001604080860182815242606088019081528a8652938390529320945185546001600160a01b0319166001600160a01b03919091161785559251805191938501919067ffffffffffffffff8211610552576103958354610669565b601f811161050d575b5091602099959391899795938b90601f831160011461047457935f969383600394604098947f0d063c6022bff16d09991a9f91882ffa112f5fb2529136f65eb4c77bbd047e439c9b988b92610469575b50508160011b918a1990871b1c19161790555b600284019051151560ff80198354169116179055519101558583526002895281832060018060a01b0333166bffffffffffffffffffffffff60a01b825416179055808251948a8652818b870152838601378301015260408133958101030190a3604051908152f35b015190505f806103ee565b601f9998979695949392919919821690835f528a5f20915f5b8181106104f357508360409896937f0d063c6022bff16d09991a9f91882ffa112f5fb2529136f65eb4c77bbd047e439c9d600397945f9c9a97600195106104dc575b505050811b019055610401565b01518b1960f8848a1b161c191690555f80806104cf565b828d015184559b8f019b8e9b506001909301928f0161048d565b835f5260205f20601f840160051c81019160208510610548575b601f0160051c01905b81811061053d575061039e565b5f8155600101610530565b9091508190610527565b634e487b7160e01b5f52604160045260245ffd5b634e487b7160e01b5f52601160045260245ffd5b3461009f57602036600319011261009f576004355f81815260016020526040902080546001600160a01b0316801561061857330361060157600201805460ff8116156105ee5760ff1916905533907f8648ea00a281362b7d17874fe879e4cf49d332d95bd73b71a649f9da06db1d4c5f80a3005b8263f539a74360e01b5f5260045260245ffd5b5063335b726f60e21b5f526004523360245260445ffd5b82630ede975960e01b5f5260045260245ffd5b6080810190811067ffffffffffffffff82111761055257604052565b90601f8019910116810190811067ffffffffffffffff82111761055257604052565b90600182811c92168015610697575b602083101461068357565b634e487b7160e01b5f52602260045260245ffd5b91607f169161067856fea2646970667358221220b6327160f7943f17ae586e34d518d97f1e46bdabd865a22a5b425de0d77656a864736f6c634300081c0033",
        "nonce": "0x2",
        "chainId": "0x7a69"
      },
      "additionalContracts": [],
      "isFixedGasLimit": false
    },
    {
      "hash": "0xb2255c1b6999d10b74b800d5162b29971d2d455df6d2608c76f0d157eff58ea1",
      "transactionType": "CREATE",
      "contractName": "IrisReputationOracle",
      "contractAddress": "0xcf7ed3acca5a467e9e704c703e8d87f634fb0fc9",
      "function": null,
      "arguments": [
        "0x9fE46736679d2D9a65F0992F2272dE9f3c7fa6e0",
        "0xf39Fd6e51aad88F6F4ce6aB8827279cffFb92266"
      ],
      "transaction": {
        "from": "0xf39fd6e51aad88f6f4ce6ab8827279cfffb92266",
        "gas": "0x8c1da",
        "value": "0x0",
        "input": "0x60a0346100e657601f61079638819003918201601f19168301916001600160401b038311848410176100ea5780849260409485528339810103126100e657610046816100fe565b906001600160a01b039061005c906020016100fe565b169081156100d3575f80546001600160a01b031981168417825560405193916001600160a01b03909116907f8be0079c531659141344cd1fd0a4f28419497f9722a3daafe3b4186f6b6457e09080a36001600160a01b03166080526106839081610113823960805181818161034901526105960152f35b631e4fbdf760e01b5f525f60045260245ffd5b5f80fd5b634e487b7160e01b5f52604160045260245ffd5b51906001600160a01b03821682036100e65756fe6080806040526004361015610012575f80fd5b5f3560e01c9081630d1cfcae146105845750806314baeb181461053b5780636d1b1de014610312578063715018a6146102bb5780638da5cb5b146102945780639163d10814610127578063bd5bcb0a146101015763f2fde38b14610074575f80fd5b346100fd5760203660031901126100fd576004356001600160a01b038116908190036100fd576100a2610627565b80156100ea575f80546001600160a01b03198116831782556001600160a01b0316907f8be0079c531659141344cd1fd0a4f28419497f9722a3daafe3b4186f6b6457e09080a3005b631e4fbdf760e01b5f525f60045260245ffd5b5f80fd5b346100fd5760203660031901126100fd57602061011f6004356105fd565b604051908152f35b346100fd5760403660031901126100fd5760043560243590811515918281036100fd575f82815260036020908152604080832033845290915290205460ff161580610280575b61026957815f52600260205260ff60405f2054161561023e575b815f52600160205260405f2054905f1461020d57600281018091116101f95760648111156101f4575060645b815f5260016020528060405f205560405192835260208301527fb61cc7383c4aeab2faaae0ac5c8c79434fe547fcd8ab0496f2381970de190a7e60403393a3005b6101b3565b634e487b7160e01b5f52601160045260245ffd5b600581101561021d57505f6101b3565b6004198101908111156101b357634e487b7160e01b5f52601160045260245ffd5b815f526001602052603260405f2055815f52600260205260405f20600160ff19825416179055610187565b5063e7b2092960e01b5f526004523360245260445ffd5b505f546001600160a01b031633141561016d565b346100fd575f3660031901126100fd575f546040516001600160a01b039091168152602090f35b346100fd575f3660031901126100fd576102d3610627565b5f80546001600160a01b0319811682556001600160a01b03167f8be0079c531659141344cd1fd0a4f28419497f9722a3daafe3b4186f6b6457e08280a3005b346100fd5760403660031901126100fd5760043561032e6105c5565b604051632de5aaf760e01b8152600481018390525f816024817f00000000000000000000000000000000000000000000000000000000000000006001600160a01b03165afa908115610530575f9161041d575b50516001600160a01b031633141580610409575b6103f2575f8281526003602090815260408083206001600160a01b0394909416808452939091528120805460ff191660011790559091907f8fcd9f5c27415bf85b1f568fbe33a98aaebd94a2f721378109a4a48142f1e3fb9080a3005b506308c10d0360e01b5f526004523360245260445ffd5b505f546001600160a01b0316331415610395565b90503d805f833e61042e81836105db565b8101906020818303126100fd5780519067ffffffffffffffff82116100fd57016080818303126100fd57604051916080830183811067ffffffffffffffff82111761051c5760405281516001600160a01b03811681036100fd578352602082015167ffffffffffffffff81116100fd57820181601f820112156100fd5780519067ffffffffffffffff821161051c57604051926104d5601f8401601f1916602001856105db565b828452602083830101116100fd57815f9260208093018386015e83010152602083015260408101519081151582036100fd5760609160408401520151606082015283610381565b634e487b7160e01b5f52604160045260245ffd5b6040513d5f823e3d90fd5b346100fd5760403660031901126100fd576105546105c5565b6004355f52600360205260405f209060018060a01b03165f52602052602060ff60405f2054166040519015158152f35b346100fd575f3660031901126100fd577f00000000000000000000000000000000000000000000000000000000000000006001600160a01b03168152602090f35b602435906001600160a01b03821682036100fd57565b90601f8019910116810190811067ffffffffffffffff82111761051c57604052565b805f52600260205260ff60405f20541615610621575f52600160205260405f205490565b50603290565b5f546001600160a01b0316330361063a57565b63118cdaa760e01b5f523360045260245ffdfea2646970667358221220c8dbf70a602f331ebff2c860a679990e6d6572c60253f798f499ac2efc069a0064736f6c634300081c00330000000000000000000000009fe46736679d2d9a65f0992f2272de9f3c7fa6e0000000000000000000000000f39fd6e51aad88f6f4ce6ab8827279cfffb92266",
        "nonce": "0x3",
        "chainId": "0x7a69"
      },
      "additionalContracts": [],
      "isFixedGasLimit": false
    },
    {
      "hash": "0xe1ba48b589e0d7c17294968c01e4220080dd66e231742008598162a4980a8ed4",
      "transactionType": "CREATE",
      "contractName": "SpendingCapEnforcer",
      "contractAddress": "0xdc64a140aa3e981100a9beca4e685f962f0cf6c9",
      "function": null,
      "arguments": null,
      "transaction": {
        "from": "0xf39fd6e51aad88f6f4ce6ab8827279cfffb92266",
        "gas": "0x42776",
        "value": "0x0",
        "input": "0x608080604052346015576102d3908161001a8239f35b5f80fdfe6080806040526004361015610012575f80fd5b5f3560e01c90816309308deb1461012f5750806338cc50f6146100975763b710a2381461003d575f80fd5b346100935761006f6100676100513661018d565b50509a989650505050959391505081019061025c565b905042610272565b905f525f60205260405f20905f5260205261008f60405f20918254610290565b9055005b5f80fd5b34610093576100c96100c06100ab3661018d565b5050999795505050509492505081019061025c565b93909342610272565b905f525f60205260405f20905f5260205260405f205490826100eb8284610290565b116100f257005b6100fc9082610290565b90820391821161011b5763232b791b60e01b5f5260045260245260445ffd5b634e487b7160e01b5f52601160045260245ffd5b34610093576040366003190112610093576020906004355f525f825260405f206024355f52825260405f20548152f35b9181601f840112156100935782359167ffffffffffffffff8311610093576020838186019501011161009357565b6101206003198201126100935760043567ffffffffffffffff811161009357816101b99160040161015f565b9290929160243567ffffffffffffffff811161009357816101dc9160040161015f565b909290916044356001600160a01b03811681036100935791606435916084356001600160a01b0381168103610093579160a4356001600160a01b0381168103610093579160c4356001600160a01b0381168103610093579160e43591610104359067ffffffffffffffff8211610093576102589160040161015f565b9091565b9190826040910312610093576020823592013590565b811561027c570490565b634e487b7160e01b5f52601260045260245ffd5b9190820180921161011b5756fea2646970667358221220491ccb2633fa9713d72cff62e9a1661e635b8626f39c1d672ad22880420e8dd164736f6c634300081c0033",
        "nonce": "0x4",
        "chainId": "0x7a69"
      },
      "additionalContracts": [],
      "isFixedGasLimit": false
    },
    {
      "hash": "0xa73e0eddf22552e0d233b1423698ce40725700d91f91daa95a8ea4a1eb5c8017",
      "transactionType": "CREATE",
      "contractName": "ContractWhitelistEnforcer",
      "contractAddress": "0x5fc8d32690cc91d4c39d9d3abcbd16989f875707",
      "function": null,
      "arguments": null,
      "transaction": {
        "from": "0xf39fd6e51aad88f6f4ce6ab8827279cfffb92266",
        "gas": "0x41c5e",
        "value": "0x0",
        "input": "0x608080604052346015576102c9908161001a8239f35b5f80fdfe60806040526004361015610011575f80fd5b5f3560e01c806338cc50f6146100435763b710a2381461002f575f80fd5b3461003f5761003d36610092565b005b5f80fd5b3461003f5761003d61005436610092565b5050509795505050505050610161565b9181601f8401121561003f5782359167ffffffffffffffff831161003f576020838186019501011161003f57565b61012060031982011261003f5760043567ffffffffffffffff811161003f57816100be91600401610064565b9290929160243567ffffffffffffffff811161003f57816100e191600401610064565b909290916044356001600160a01b038116810361003f5791606435916084356001600160a01b038116810361003f579160a4356001600160a01b038116810361003f579160c4356001600160a01b038116810361003f579160e43591610104359067ffffffffffffffff821161003f5761015d91600401610064565b9091565b9092919281019060208183031261003f5780359067ffffffffffffffff821161003f570181601f8201121561003f5780359167ffffffffffffffff831161027f578260051b9160405193601f19603f850116850185811067ffffffffffffffff82111761027f57604052845260208085019382010191821161003f57602001915b81831061025f575050508051905f5b828110610216576340d53e3360e11b5f9081526001600160a01b038616600452602490fd5b815181101561024b57600581901b8201602001516001600160a01b03868116911614610244576001016101f1565b5050509050565b634e487b7160e01b5f52603260045260245ffd5b82356001600160a01b038116810361003f578152602092830192016101e2565b634e487b7160e01b5f52604160045260245ffdfea264697066735822122076246097fef1db1520d007a8f0799bb7c44e47d8bbf7d93d1018fb00fc8b883264736f6c634300081c0033",
        "nonce": "0x5",
        "chainId": "0x7a69"
      },
      "additionalContracts": [],
      "isFixedGasLimit": false
    },
    {
      "hash": "0x5e377b6ab89abc3fad487e84823bc1e848301213eacd1b61260f772f9d1458a6",
      "transactionType": "CREATE",
      "contractName": "FunctionSelectorEnforcer",
      "contractAddress": "0x0165878a594ca255338adfa4d48449f69242eb8f",
      "function": null,
      "arguments": null,
      "transaction": {
        "from": "0xf39fd6e51aad88f6f4ce6ab8827279cfffb92266",
        "gas": "0x42525",
        "value": "0x0",
        "input": "0x608080604052346015576102d1908161001a8239f35b5f80fdfe60806040526004361015610011575f80fd5b5f3560e01c806338cc50f6146100435763b710a2381461002f575f80fd5b3461003f5761003d36610093565b005b5f80fd5b3461003f5761003d61005436610093565b9a9750989750505050505050610162565b9181601f8401121561003f5782359167ffffffffffffffff831161003f576020838186019501011161003f57565b61012060031982011261003f5760043567ffffffffffffffff811161003f57816100bf91600401610065565b9290929160243567ffffffffffffffff811161003f57816100e291600401610065565b909290916044356001600160a01b038116810361003f5791606435916084356001600160a01b038116810361003f579160a4356001600160a01b038116810361003f579160c4356001600160a01b038116810361003f579160e43591610104359067ffffffffffffffff821161003f5761015e91600401610065565b9091565b9190939260041161003f57356001600160e01b0319169281019060208183031261003f5780359067ffffffffffffffff821161003f570181601f8201121561003f5780359167ffffffffffffffff8311610287578260051b9160405193601f19603f850116850185811067ffffffffffffffff82111761028757604052845260208085019382010191821161003f57602001915b818310610266575050508051905f5b82811061021f5784631d8370a360e11b5f5260045260245ffd5b815181101561025257600581901b8201602001516001600160e01b031916851461024b57600101610205565b5050509050565b634e487b7160e01b5f52603260045260245ffd5b82356001600160e01b03198116810361003f578152602092830192016101f6565b634e487b7160e01b5f52604160045260245ffdfea26469706673582212202402a4dfeac5a341fbace9ae681b2835aee3ef411cd0445f817a8241e1deee8e64736f6c634300081c0033",
        "nonce": "0x6",
        "chainId": "0x7a69"
      },
      "additionalContracts": [],
      "isFixedGasLimit": false
    },
    {
      "hash": "0x2cc3e1081fe871a631b94b181eadac5ef39af6b42badcc662ec724e439724314",
      "transactionType": "CREATE",
      "contractName": "TimeWindowEnforcer",
      "contractAddress": "0xa513e6e4b8f2a923d98304ec87f64353c4d5c853",
      "function": null,
      "arguments": null,
      "transaction": {
        "from": "0xf39fd6e51aad88f6f4ce6ab8827279cfffb92266",
        "gas": "0x311ae",
        "value": "0x0",
        "input": "0x608080604052346015576101d6908161001a8239f35b5f80fdfe60806040526004361015610011575f80fd5b5f3560e01c806338cc50f6146100435763b710a2381461002f575f80fd5b3461003f5761003d366100d1565b005b5f80fd5b3461003f576040610053366100d1565b50505050505050505050908092918101031261003f576020813591013590804210801561009a575b61008157005b63d4314d0560e01b5f524260045260245260445260645ffd5b5081421161007b565b9181601f8401121561003f5782359167ffffffffffffffff831161003f576020838186019501011161003f57565b61012060031982011261003f5760043567ffffffffffffffff811161003f57816100fd916004016100a3565b9290929160243567ffffffffffffffff811161003f5781610120916004016100a3565b909290916044356001600160a01b038116810361003f5791606435916084356001600160a01b038116810361003f579160a4356001600160a01b038116810361003f579160c4356001600160a01b038116810361003f579160e43591610104359067ffffffffffffffff821161003f5761019c916004016100a3565b909156fea26469706673582212200fa6c275bbd06c3dd6df390396ea60c9f284b4e36b18a9cc8836c01d9818fcd664736f6c634300081c0033",
        "nonce": "0x7",
        "chainId": "0x7a69"
      },
      "additionalContracts": [],
      "isFixedGasLimit": false
    },
    {
      "hash": "0x77b4a23e3bb76ebc040008daed0bd5bad3988db880c60fea4c1c9a5b3b779d75",
      "transactionType": "CREATE",
      "contractName": "SingleTxCapEnforcer",
      "contractAddress": "0x2279b7a0a67db372996a5fab50d91eaa73d2ebe6",
      "function": null,
      "arguments": null,
      "transaction": {
        "from": "0xf39fd6e51aad88f6f4ce6ab8827279cfffb92266",
        "gas": "0x2f53e",
        "value": "0x0",
        "input": "0x608080604052346015576101bc908161001a8239f35b5f80fdfe60806040526004361015610011575f80fd5b5f3560e01c806338cc50f6146100435763b710a2381461002f575f80fd5b3461003f5761003d366100b7565b005b5f80fd5b3461003f576020610053366100b7565b50509997955050505050508380925001031261003f57359081811161007457005b639af48cf560e01b5f5260045260245260445ffd5b9181601f8401121561003f5782359167ffffffffffffffff831161003f576020838186019501011161003f57565b61012060031982011261003f5760043567ffffffffffffffff811161003f57816100e391600401610089565b9290929160243567ffffffffffffffff811161003f578161010691600401610089565b909290916044356001600160a01b038116810361003f5791606435916084356001600160a01b038116810361003f579160a4356001600160a01b038116810361003f579160c4356001600160a01b038116810361003f579160e43591610104359067ffffffffffffffff821161003f5761018291600401610089565b909156fea264697066735822122061c2076ab0826ea87ac9022b01300518ebfb2f6ad97d5b6a7fbf38ab34bd016964736f6c634300081c0033",
        "nonce": "0x8",
        "chainId": "0x7a69"
      },
      "additionalContracts": [],
      "isFixedGasLimit": false
    },
    {
      "hash": "0x29ac5b6d21bc128f15ca361279be9e83a800edf0d0dd50937aab4da2d08a560d",
      "transactionType": "CREATE",
      "contractName": "CooldownEnforcer",
      "contractAddress": "0x8a791620dd6260079bf849dc5567adc3f2fdc318",
      "function": null,
      "arguments": null,
      "transaction": {
        "from": "0xf39fd6e51aad88f6f4ce6ab8827279cfffb92266",
        "gas": "0x3b312",
        "value": "0x0",
        "input": "0x60808060405234601557610269908161001a8239f35b5f80fdfe60806040526004361015610011575f80fd5b5f3560e01c806338cc50f6146100a8578063535841941461007f5763b710a2381461003a575f80fd5b3461007b5761006061004b3661014e565b5050989650505050959391505081019061021d565b919050101561006b57005b5f525f6020524260405f20555f80f35b5f80fd5b3461007b57602036600319011261007b576004355f525f602052602060405f2054604051908152f35b3461007b576100ce6100b93661014e565b5050999795505050509492505081019061021d565b909210156100d857005b5f525f60205260405f205490810180911161010c578042106100f657005b636cde584b60e11b5f526004524260245260445ffd5b634e487b7160e01b5f52601160045260245ffd5b9181601f8401121561007b5782359167ffffffffffffffff831161007b576020838186019501011161007b57565b61012060031982011261007b5760043567ffffffffffffffff811161007b578161017a91600401610120565b9290929160243567ffffffffffffffff811161007b578161019d91600401610120565b909290916044356001600160a01b038116810361007b5791606435916084356001600160a01b038116810361007b579160a4356001600160a01b038116810361007b579160c4356001600160a01b038116810361007b579160e43591610104359067ffffffffffffffff821161007b5761021991600401610120565b9091565b919082604091031261007b57602082359201359056fea26469706673582212208600e1c9e82e5b1edc653c897a9c4336e6b0bdd06378a309ccf6fee0372981f764736f6c634300081c0033",
        "nonce": "0x9",
        "chainId": "0x7a69"
      },
      "additionalContracts": [],
      "isFixedGasLimit": false
    },
    {
      "hash": "0xb16ccc8fe34da7472072b386a66117dd1f86ee8785fc068bca38d13126fd94b6",
      "transactionType": "CREATE",
      "contractName": "ReputationGateEnforcer",
      "contractAddress": "0x610178da211fef7d417bc0e6fed39f05609ad788",
      "function": null,
      "arguments": null,
      "transaction": {
        "from": "0xf39fd6e51aad88f6f4ce6ab8827279cfffb92266",
        "gas": "0x449a0",
        "value": "0x0",
        "input": "0x608080604052346015576102f2908161001a8239f35b5f80fdfe6080806040526004361015610012575f80fd5b5f3560e01c90816338cc50f614610046575063b710a23814610032575f80fd5b3461004257610040366101cb565b005b5f80fd5b3461004257606090610057366101cb565b5050505050505050505090809391810103126100425781356001600160a01b038116908190036100425760406020840135930135918115610167575f9181602084930190635eade58560e11b8252866024820152602481526100ba60448261029a565b51915afa3d15610195573d9067ffffffffffffffff821161018157604051916100ed601f8201601f19166020018461029a565b82523d5f602084013e5b158015610176575b6101675760208180518101031261004257602001519080821061014e577f7e21353ef32ade191f90904df09e23355321630d713018a81a8631bb14d14db79160409182519182526020820152a2005b91634eb2fb8360e01b5f5260045260245260445260645ffd5b630256965f60e01b5f5260045ffd5b5060208151106100ff565b634e487b7160e01b5f52604160045260245ffd5b6060906100f7565b9181601f840112156100425782359167ffffffffffffffff8311610042576020838186019501011161004257565b6101206003198201126100425760043567ffffffffffffffff811161004257816101f79160040161019d565b9290929160243567ffffffffffffffff8111610042578161021a9160040161019d565b909290916044356001600160a01b03811681036100425791606435916084356001600160a01b0381168103610042579160a4356001600160a01b0381168103610042579160c4356001600160a01b0381168103610042579160e43591610104359067ffffffffffffffff8211610042576102969160040161019d565b9091565b90601f8019910116810190811067ffffffffffffffff8211176101815760405256fea2646970667358221220983ee90075f0427e2539a6c600f01964f05e95080d1e2b258afb6d1d42437b1264736f6c634300081c0033",
        "nonce": "0xa",
        "chainId": "0x7a69"
      },
      "additionalContracts": [],
      "isFixedGasLimit": false
    },
    {
      "hash": "0x40b129067f1ceb449995c22ea9b20768cd5c1c9b68c333da6b279670d1ac004d",
      "transactionType": "CREATE",
      "contractName": "IrisApprovalQueue",
      "contractAddress": "0xb7f8bc63bbcad18155201308c8f3540b07f84f5e",
      "function": null,
      "arguments": [
        "86400"
      ],
      "transaction": {
        "from": "0xf39fd6e51aad88f6f4ce6ab8827279cfffb92266",
        "gas": "0xc5f21",
        "value": "0x0",
        "input": "0x608034604d57601f610a4738819003918201601f19168301916001600160401b03831184841017605157808492602094604052833981010312604d57515f556040516109e190816100668239f35b5f80fd5b634e487b7160e01b5f52604160045260245ffdfe60806040526004361015610011575f80fd5b5f3560e01c80636db2feb21461080f57806376ba6009146107b057806395587d031461074f578063b3ee142414610733578063f05bfa7b1461067f578063f465c6d5146102a35763fb1e61ca14610066575f80fd5b3461029f57602036600319011261029f576004355f61010060405161008a81610881565b828152826020820152606060408201528260608201528260808201528260a08201528260c08201528260e08201520152805f52600460205260ff60405f2054161561028d575f52600160205260405f206040516100e681610881565b81546001600160a01b039081168252600183015416602082019081526040516002840180549194929392915f9161011c826108c0565b80885291600181169081156102665750600114610229575b85610160866020878b610149818a038261089e565b6040840190815260038201546060850190815260048301549260808601938452600660058201549160a0880192835201549360c087019260ff86161515845260e088019460ff8760081c161515865260ff6101008a019760101c16151587526040519a8b99898b5260018060a01b03905116898b015260018060a01b0390511660408a01525161012060608a01528051978891826101408c0152018a8a015e5f8888018a01525160808801525160a08701525160c086015251151560e0850152511515610100840152511515610120830152601f01601f19168101030190f35b5f908152602081209092505b81831061024c575050840160200184610149610134565b6001816020929493945483858b0101520191019190610235565b60ff191660208981019190915292151560051b880190920192508691506101499050610134565b630d1c383160e11b5f5260045260245ffd5b5f80fd5b3461029f5760a036600319011261029f576102bc61085e565b60243567ffffffffffffffff811161029f573660238201121561029f57806004013567ffffffffffffffff811161029f57366024828401011161029f57604435926084356001600160a01b038116926064359184900361029f57600554925f19841461066b5760018401600555604051602081019133835260018060a01b0316948560408301528860608301528460808301524260a083015260c082015260c0815261036960e08261089e565b5190209460405161037981610881565b3381525f602080830194878652806024604051966103a085601f19601f860116018961089e565b828852018387013784010152604081810192835260608201898152608083019586524260a084019081525f60c0850181815260e0860182815261010087018381528d84526001602081905296909320965187546001600160a01b03199081166001600160a01b0392831617895599519688018054909a16961695909517909755945180519697959693959193919291600286019167ffffffffffffffff821161059d5761044d83546108c0565b601f8111610626575b50602090601f83116001146105bc576006979695949392915f91836105b1575b50508160011b915f199060031b1c19161790555b516003840155516004830155516005820155019251151560ff8019855416911617835551151561ff0083549160081b169061ff00191617825551151562ff000082549160101b169062ff00001916179055825f52600260205260405f20826bffffffffffffffffffffffff60a01b825416179055825f52600460205260405f20600160ff19825416179055815f52600360205260405f20938454946801000000000000000086101561059d57600186018082558610156105895760209585915f52865f20015560405191825284820152827fdef1bb43847f22cfafa04f7c8c1929d0ece6915cfe25e8225afc855b5de78f0e60403393a4604051908152f35b634e487b7160e01b5f52603260045260245ffd5b634e487b7160e01b5f52604160045260245ffd5b015190508f80610476565b90601f19831691845f52815f20925f5b81811061060e575091600193918560069b9a9998979694106105f6575b505050811b01905561048a565b01515f1960f88460031b161c191690558f80806105e9565b929360206001819287860151815501950193016105cc565b835f5260205f20601f840160051c81019160208510610661575b601f0160051c01905b8181106106565750610456565b5f8155600101610649565b9091508190610640565b634e487b7160e01b5f52601160045260245ffd5b3461029f57602036600319011261029f576001600160a01b036106a061085e565b165f52600360205260405f20604051806020835491828152019081935f5260205f20905f5b81811061071d57505050816106db91038261089e565b604051918291602083019060208452518091526040830191905f5b818110610704575050500390f35b82518452859450602093840193909201916001016106f6565b82548452602090930192600192830192016106c5565b3461029f575f36600319011261029f5760205f54604051908152f35b3461029f57602036600319011261029f5760043561076c816108f8565b805f526001602052600660405f200161010061ff001982541617905533907fb4981a1d9e7246350ef6907f32ce343c27f44897c7d87410d3158417a8028cfe5f80a3005b3461029f57602036600319011261029f576004356107cd816108f8565b805f526001602052600660405f2001600160ff1982541617905533907fd87aad67fff1ec7e6176fbb242858c5c4b0763b19f37c7c75f52194f70fb47a55f80a3005b3461029f57602036600319011261029f57600435805f52600460205260ff60405f2054161561028d575f5260016020526020610854600560405f2001545f5490610874565b4211604051908152f35b600435906001600160a01b038216820361029f57565b9190820180921161066b57565b610120810190811067ffffffffffffffff82111761059d57604052565b90601f8019910116810190811067ffffffffffffffff82111761059d57604052565b90600182811c921680156108ee575b60208310146108da57565b634e487b7160e01b5f52602260045260245ffd5b91607f16916108cf565b805f52600460205260ff60405f2054161561028d575f818152600260205260409020546001600160a01b0316330361099657805f52600160205260405f20600681015460ff8116908115610988575b5061097557600501545f5461095b91610874565b42116109645750565b6263c7a560e01b5f5260045260245ffd5b5063b03f853760e01b5f5260045260245ffd5b60ff915060081c165f610947565b622389db60e81b5f526004523360245260445ffdfea26469706673582212200c3aa218a52c41973712648802cdbac7eb47ae8277f222381bf3c7e84015772664736f6c634300081c00330000000000000000000000000000000000000000000000000000000000015180",
        "nonce": "0xb",
        "chainId": "0x7a69"
      },
      "additionalContracts": [],
      "isFixedGasLimit": false
    },
    {
      "hash": "0x165c4189dcd6c002f2b93f5995310da2766424abf6b83e8babd99862ce3026bb",
      "transactionType": "CREATE",
      "contractName": "MockERC20",
      "contractAddress": "0xa51c1fc2f0d1a1b8494ed1fe312d7c3a78ed91c0",
      "function": null,
      "arguments": [
        "Mock USDC",
        "USDC"
      ],
      "transaction": {
        "from": "0xf39fd6e51aad88f6f4ce6ab8827279cfffb92266",
        "gas": "0x9b1be",
        "value": "0x0",
        "input": "0x60806040523461030b57610a4c803803806100198161030f565b92833981019060408183031261030b5780516001600160401b03811161030b5782610045918301610334565b60208201519092906001600160401b03811161030b576100659201610334565b81516001600160401b038111610221575f54600181811c91168015610301575b602082101461020357601f811161029f575b50602092601f821160011461024057928192935f92610235575b50508160011b915f199060031b1c1916175f555b80516001600160401b03811161022157600154600181811c91168015610217575b602082101461020357601f81116101a0575b50602091601f8211600114610140579181925f92610135575b50508160011b915f199060031b1c1916176001555b6040516106c690816103868239f35b015190505f80610111565b601f1982169260015f52805f20915f5b85811061018857508360019510610170575b505050811b01600155610126565b01515f1960f88460031b161c191690555f8080610162565b91926020600181928685015181550194019201610150565b60015f527fb10e2d527612073b26eecdfd717e6a320cf44b4afac2b0732d9fcbe2b7fa0cf6601f830160051c810191602084106101f9575b601f0160051c01905b8181106101ee57506100f8565b5f81556001016101e1565b90915081906101d8565b634e487b7160e01b5f52602260045260245ffd5b90607f16906100e6565b634e487b7160e01b5f52604160045260245ffd5b015190505f806100b1565b601f198216935f8052805f20915f5b868110610287575083600195961061026f575b505050811b015f556100c5565b01515f1960f88460031b161c191690555f8080610262565b9192602060018192868501518155019401920161024f565b5f80527f290decd9548b62a8d60345a988386fc84ba6bc95484008f6362f93160ef3e563601f830160051c810191602084106102f7575b601f0160051c01905b8181106102ec5750610097565b5f81556001016102df565b90915081906102d6565b90607f1690610085565b5f80fd5b6040519190601f01601f191682016001600160401b0381118382101761022157604052565b81601f8201121561030b578051906001600160401b03821161022157610363601f8301601f191660200161030f565b928284526020838301011161030b57815f9260208093018386015e830101529056fe60806040526004361015610011575f80fd5b5f3560e01c806306fdde0314610470578063095ea7b3146103f757806318160ddd146103da57806323b872dd146102f8578063313ce567146102dd57806340c10f191461026357806370a082311461022b57806395d89b411461010d578063a9059cbb146100db5763dd62ed3e14610087575f80fd5b346100d75760403660031901126100d7576100a061056c565b6100a8610582565b6001600160a01b039182165f908152600460209081526040808320949093168252928352819020549051908152f35b5f80fd5b346100d75760403660031901126100d75760206101036100f961056c565b60243590336105c6565b6040519015158152f35b346100d7575f3660031901126100d7576040515f6001548060011c90600181168015610221575b60208310811461020d578285529081156101f1575060011461019b575b50819003601f01601f191681019067ffffffffffffffff82118183101761018757604082905281906101839082610542565b0390f35b634e487b7160e01b5f52604160045260245ffd5b60015f9081529091507fb10e2d527612073b26eecdfd717e6a320cf44b4afac2b0732d9fcbe2b7fa0cf65b8282106101db57506020915082010182610151565b60018160209254838588010152019101906101c6565b90506020925060ff191682840152151560051b82010182610151565b634e487b7160e01b5f52602260045260245ffd5b91607f1691610134565b346100d75760203660031901126100d7576001600160a01b0361024c61056c565b165f526003602052602060405f2054604051908152f35b346100d75760403660031901126100d75761027c61056c565b5f7fddf252ad1be2c89b69c2b068fc378daa952ba7f163c4a11628f55a4df523b3ef6020602435936102b0856002546105b9565b60025560018060a01b03169384845260038252604084206102d28282546105b9565b9055604051908152a3005b346100d7575f3660031901126100d757602060405160128152f35b346100d75760603660031901126100d75761031161056c565b610319610582565b6001600160a01b0382165f81815260046020908152604080832033845290915290205460443593919060018101610358575b60206101038686866105c6565b92909391828410610395576020946103738461010396610598565b5f9182526004875260408083203384528852909120559193909250829061034b565b60405162461bcd60e51b815260206004820152601d60248201527f45524332303a20696e73756666696369656e7420616c6c6f77616e63650000006044820152606490fd5b346100d7575f3660031901126100d7576020600254604051908152f35b346100d75760403660031901126100d75761041061056c565b335f8181526004602090815260408083206001600160a01b03909516808452948252918290206024359081905591519182527f8c5be1e5ebec7d5bd14f71427d1e84f3dd0314c0f7b2291e5b200ac8c7c3b92591a3602060405160018152f35b346100d7575f3660031901126100d7576040515f5f548060011c90600181168015610538575b60208310811461020d578285529081156101f157506001146104e45750819003601f01601f191681019067ffffffffffffffff82118183101761018757604082905281906101839082610542565b5f8080529091507f290decd9548b62a8d60345a988386fc84ba6bc95484008f6362f93160ef3e5635b82821061052257506020915082010182610151565b600181602092548385880101520191019061050d565b91607f1691610496565b602060409281835280519182918282860152018484015e5f828201840152601f01601f1916010190565b600435906001600160a01b03821682036100d757565b602435906001600160a01b03821682036100d757565b919082039182116105a557565b634e487b7160e01b5f52601160045260245ffd5b919082018092116105a557565b60018060a01b031690815f5260036020528260405f20541061064b5760207fddf252ad1be2c89b69c2b068fc378daa952ba7f163c4a11628f55a4df523b3ef91835f526003825260405f2061061c868254610598565b905560018060a01b031693845f526003825260405f2061063d8282546105b9565b9055604051908152a3600190565b60405162461bcd60e51b815260206004820152601b60248201527f45524332303a20696e73756666696369656e742062616c616e636500000000006044820152606490fdfea2646970667358221220427ce253fef2c2228591fe750db1f3bef70d2b221980c19e518ca18c0421c70c64736f6c634300081c00330000000000000000000000000000000000000000000000000000000000000040000000000000000000000000000000000000000000000000000000000000008000000000000000000000000000000000000000000000000000000000000000094d6f636b2055534443000000000000000000000000000000000000000000000000000000000000000000000000000000000000000000000000000000000000045553444300000000000000000000000000000000000000000000000000000000",
        "nonce": "0xc",
        "chainId": "0x7a69"
      },
      "additionalContracts": [],
      "isFixedGasLimit": false
    },
    {
      "hash": "0xb505c76d348ff0240aa1f719b0839c6b65bfbf74c6f9a459c56087e1d96b5ed8",
      "transactionType": "CREATE",
      "contractName": "MockUniswapRouter",
      "contractAddress": "0x0dcd1bf9a1b36ce34237eeafef220932846bcd82",
      "function": null,
      "arguments": null,
      "transaction": {
        "from": "0xf39fd6e51aad88f6f4ce6ab8827279cfffb92266",
        "gas": "0x303e9",
        "value": "0x0",
        "input": "0x608080604052346015576101c8908161001a8239f35b5f80fdfe6080806040526004361015610012575f80fd5b5f3560e01c63df791e5014610025575f80fd5b6060366003190112610121576004356001600160a01b0381169190829003610121576024356001600160a01b0381169081900361012157604435916323b872dd60e01b81523360048201523060248201528260448201526020816064815f885af1801561011657610125575b50803b15610121576040516340c10f1960e01b815233600482015260248101839052925f8460448183865af193841561011657602094610106575b5060405183815283858201527f6782190c91d4a7e8ad2a867deed6ec0a970cab8ff137ae2bd4abd92b3810f4d360403392a4604051908152f35b5f6101109161015c565b5f6100cc565b6040513d5f823e3d90fd5b5f80fd5b6020813d602011610154575b8161013e6020938361015c565b8101031261012157518015158114610091575f80fd5b3d9150610131565b90601f8019910116810190811067ffffffffffffffff82111761017e57604052565b634e487b7160e01b5f52604160045260245ffdfea2646970667358221220e0511e23ae5497568d299f9dda7071f5186147a54eb4ca99c89eebcc7a1d0ec764736f6c634300081c0033",
        "nonce": "0xd",
        "chainId": "0x7a69"
      },
      "additionalContracts": [],
      "isFixedGasLimit": false
    },
    {
      "hash": "0xffde831718c27878c5da49cc6a0926601fa0b0411c32f672d768454e934b8cd8",
      "transactionType": "CALL",
      "contractName": "IrisAccountFactory",
      "contractAddress": "0xe7f1725e7734ce288f8367e1bb143e90bb3f0512",
      "function": "createAccount(address,address,uint256)",
      "arguments": [
        "0x70997970C51812dc3A010C7d01b50e0d17dc79C8",
        "0x5FbDB2315678afecb367f032d93F642f64180aa3",
        "0"
      ],
      "transaction": {
        "from": "0xf39fd6e51aad88f6f4ce6ab8827279cfffb92266",
        "to": "0xe7f1725e7734ce288f8367e1bb143e90bb3f0512",
        "gas": "0xc9f73",
        "value": "0x0",
        "input": "0x1230aea200000000000000000000000070997970c51812dc3a010c7d01b50e0d17dc79c80000000000000000000000005fbdb2315678afecb367f032d93f642f64180aa30000000000000000000000000000000000000000000000000000000000000000",
        "nonce": "0xe",
        "chainId": "0x7a69"
      },
      "additionalContracts": [
        {
          "transactionType": "CREATE2",
          "contractName": "IrisAccount",
          "address": "0xd003e751c3711e7d308a91784502b0f2c7f31feb",
          "initCode": "0x608034608557601f61099c38819003918201601f19168301916001600160401b038311848410176089578084926040948552833981010312608557604b6020604583609d565b9201609d565b5f80546001600160a01b039384166001600160a01b031991821617909155600180549290931691161790556040516108eb90816100b18239f35b5f80fd5b634e487b7160e01b5f52604160045260245ffd5b51906001600160a01b038216820360855756fe608080604052600436101561001c575b50361561001a575f80fd5b005b5f3560e01c90816303c46f561461055f5750806319822f7c1461050f5780631a8d0de21461049d578063232acf5e1461046e57806347e1da2a1461023a5780638da5cb5b14610213578063b61d27f614610129578063b96f2b07146100b75763ea4d3c9b1461008b575f61000f565b346100b3575f3660031901126100b3576001546040516001600160a01b039091168152602090f35b5f80fd5b346100b35760203660031901126100b3575f54600435906001600160a01b0316330361011a57805f52600260205260405f20600160ff198254161790557f6eb24ce38eb0f7d1e3b4291d5543c7286f02be3daed061b0f7eb6491213deb215f80a2005b635fc483c560e01b5f5260045ffd5b346100b35760603660031901126100b357610142610589565b60443567ffffffffffffffff81116100b357366023820112156100b35780600401359167ffffffffffffffff83116100b35736602484840101116100b3575f546001600160a01b0316331415806101fe575b6101ef5760245f939283859460405193849301833781018481520391602435905af16101be61067d565b90156101e0576101dc906040519182916020835260208301906105d0565b0390f35b632b3f6d1160e21b5f5260045ffd5b630d4a63a160e41b5f5260045ffd5b506001546001600160a01b0316331415610194565b346100b3575f3660031901126100b3575f546040516001600160a01b039091168152602090f35b346100b35760603660031901126100b35760043567ffffffffffffffff81116100b35761026b90369060040161059f565b9060243567ffffffffffffffff81116100b35761028c90369060040161059f565b9060443567ffffffffffffffff81116100b3576102ad90369060040161059f565b909260018060a01b035f541633141580610459575b6101ef5780861480610450575b15610419576102e76102e2879697610752565b610627565b85815294601f196102f782610752565b015f5b8181106104065750505f5b81811061037357866040518091602082016020835281518091526040830190602060408260051b8601019301915f905b82821061034457505050500390f35b919360019193955060206103638192603f198a820301865288516105d0565b9601920192018594939192610335565b61037e81838a61076a565b356001600160a01b03811681036100b35761039a82858861076a565b3590858310156103f2575f80918460051b936103b8858c018c6105f4565b9190826040519384928337810185815203925af1906103d561067d565b9089518410156103f257890160200152156101e057600101610305565b634e487b7160e01b5f52603260045260245ffd5b60606020828a01810191909152016102fa565b60405162461bcd60e51b815260206004820152600f60248201526e098cadccee8d040dad2e6dac2e8c6d608b1b6044820152606490fd5b508181146102cf565b506001546001600160a01b03163314156102c2565b346100b35760203660031901126100b3576004355f526002602052602060ff60405f2054166040519015158152f35b346100b35760203660031901126100b3576104b6610589565b5f546001600160a01b0316330361011a57600180546001600160a01b039283166001600160a01b0319821681179092559091167f4b0f7a6a0118692cc6700b7182c62e33c0aef7d314470553683f6f1d61b9e0de5f80a3005b346100b35760603660031901126100b35760043567ffffffffffffffff81116100b35761012060031982360301126100b35761055760209160443590602435906004016106a2565b604051908152f35b346100b35760203660031901126100b3576020906004355f526002825260ff60405f205416158152f35b600435906001600160a01b03821682036100b357565b9181601f840112156100b35782359167ffffffffffffffff83116100b3576020808501948460051b0101116100b357565b805180835260209291819084018484015e5f828201840152601f01601f1916010190565b903590601e19813603018212156100b3570180359067ffffffffffffffff82116100b3576020019181360383136100b357565b6040519190601f01601f1916820167ffffffffffffffff81118382101761064d57604052565b634e487b7160e01b5f52604160045260245ffd5b67ffffffffffffffff811161064d57601f01601f191660200190565b3d1561069d573d906106916102e283610661565b9182523d5f602084013e565b606090565b907f19457468657265756d205369676e6564204d6573736167653a0a3332000000005f52601c526106dc603c5f20916101008101906105f4565b916106e96102e284610661565b9083825236848401116100b3575f6020856107189661070f96838701378401015261077a565b909291926107b4565b5f546001600160a01b0390811691160361074c578061073657505f90565b5f80808093335af15061074761067d565b505f90565b50600190565b67ffffffffffffffff811161064d5760051b60200190565b91908110156103f25760051b0190565b81519190604183036107aa576107a39250602082015190606060408401519301515f1a90610828565b9192909190565b50505f9160029190565b600481101561081457806107c6575050565b600181036107dd5763f645eedf60e01b5f5260045ffd5b600281036107f8575063fce698f760e01b5f5260045260245ffd5b6003146108025750565b6335e2f38360e21b5f5260045260245ffd5b634e487b7160e01b5f52602160045260245ffd5b91907f7fffffffffffffffffffffffffffffff5d576e7357a4501ddfe92f46681b20a084116108aa579160209360809260ff5f9560405194855216868401526040830152606082015282805260015afa1561089f575f516001600160a01b0381161561089557905f905f90565b505f906001905f90565b6040513d5f823e3d90fd5b5050505f916003919056fea2646970667358221220730565bfa6b6e975ae2777a39631a65975f0d919e566ca525572139f554fa82964736f6c634300081c003300000000000000000000000070997970c51812dc3a010c7d01b50e0d17dc79c80000000000000000000000005fbdb2315678afecb367f032d93f642f64180aa3"
        }
      ],
      "isFixedGasLimit": false
    },
    {
      "hash": "0x7a84cf70bd791d7abaf0c9aa2e32dc3629e6590a405772927dc23a8db58cf43d",
      "transactionType": "CALL",
      "contractName": "IrisAgentRegistry",
      "contractAddress": "0x9fe46736679d2d9a65f0992f2272de9f3c7fa6e0",
      "function": "registerAgent(string)",
      "arguments": [
        "ipfs://agent-metadata.json"
      ],
      "transaction": {
        "from": "0x3c44cdddb6a900fa2b585dd299e03d12fa4293bc",
        "to": "0x9fe46736679d2d9a65f0992f2272de9f3c7fa6e0",
        "gas": "0x2f900",
        "value": "0x0",
        "input": "0x2d2a95850000000000000000000000000000000000000000000000000000000000000020000000000000000000000000000000000000000000000000000000000000001a697066733a2f2f6167656e742d6d657461646174612e6a736f6e000000000000",
        "nonce": "0x0",
        "chainId": "0x7a69"
      },
      "additionalContracts": [],
      "isFixedGasLimit": false
    },
    {
      "hash": "0x8073e5147d9b9d437e3b786209d0741fcb65bdcb0333a5207736a4ac11dc1b04",
      "transactionType": "CALL",
      "contractName": "IrisReputationOracle",
      "contractAddress": "0xcf7ed3acca5a467e9e704c703e8d87f634fb0fc9",
      "function": "submitFeedback(uint256,bool)",
      "arguments": [
        "1",
        "true"
      ],
      "transaction": {
        "from": "0xf39fd6e51aad88f6f4ce6ab8827279cfffb92266",
        "to": "0xcf7ed3acca5a467e9e704c703e8d87f634fb0fc9",
        "gas": "0x18a52",
        "value": "0x0",
        "input": "0x9163d10800000000000000000000000000000000000000000000000000000000000000010000000000000000000000000000000000000000000000000000000000000001",
        "nonce": "0xf",
        "chainId": "0x7a69"
      },
      "additionalContracts": [],
      "isFixedGasLimit": false
    },
    {
      "hash": "0x4eba9e32ecd9e4b0d2d9d47b1b90fdce1e7f7b64446e58ab8d59af2239367ce1",
      "transactionType": "CALL",
      "contractName": "IrisReputationOracle",
      "contractAddress": "0xcf7ed3acca5a467e9e704c703e8d87f634fb0fc9",
      "function": "submitFeedback(uint256,bool)",
      "arguments": [
        "1",
        "true"
      ],
      "transaction": {
        "from": "0xf39fd6e51aad88f6f4ce6ab8827279cfffb92266",
        "to": "0xcf7ed3acca5a467e9e704c703e8d87f634fb0fc9",
        "gas": "0xbfa6",
        "value": "0x0",
        "input": "0x9163d10800000000000000000000000000000000000000000000000000000000000000010000000000000000000000000000000000000000000000000000000000000001",
        "nonce": "0x10",
        "chainId": "0x7a69"
      },
      "additionalContracts": [],
      "isFixedGasLimit": false
    },
    {
      "hash": "0x7b20cea2c9d50c291202c4092519f7144879a8b8ae6afe6c8402ca120d8f1b14",
      "transactionType": "CALL",
      "contractName": "IrisReputationOracle",
      "contractAddress": "0xcf7ed3acca5a467e9e704c703e8d87f634fb0fc9",
      "function": "submitFeedback(uint256,bool)",
      "arguments": [
        "1",
        "true"
      ],
      "transaction": {
        "from": "0xf39fd6e51aad88f6f4ce6ab8827279cfffb92266",
        "to": "0xcf7ed3acca5a467e9e704c703e8d87f634fb0fc9",
        "gas": "0xbfa6",
        "value": "0x0",
        "input": "0x9163d10800000000000000000000000000000000000000000000000000000000000000010000000000000000000000000000000000000000000000000000000000000001",
        "nonce": "0x11",
        "chainId": "0x7a69"
      },
      "additionalContracts": [],
      "isFixedGasLimit": false
    },
    {
      "hash": "0x74738d7546c4ceb45ceb52f471627a10b55a2a109cfb9389f530f78f0da7a14c",
      "transactionType": "CALL",
      "contractName": "IrisReputationOracle",
      "contractAddress": "0xcf7ed3acca5a467e9e704c703e8d87f634fb0fc9",
      "function": "submitFeedback(uint256,bool)",
      "arguments": [
        "1",
        "true"
      ],
      "transaction": {
        "from": "0xf39fd6e51aad88f6f4ce6ab8827279cfffb92266",
        "to": "0xcf7ed3acca5a467e9e704c703e8d87f634fb0fc9",
        "gas": "0xbfa6",
        "value": "0x0",
        "input": "0x9163d10800000000000000000000000000000000000000000000000000000000000000010000000000000000000000000000000000000000000000000000000000000001",
        "nonce": "0x12",
        "chainId": "0x7a69"
      },
      "additionalContracts": [],
      "isFixedGasLimit": false
    },
    {
      "hash": "0xbbdd030ca48c4405c7fda1319568c94475e812d9338d0440035952d60194a57e",
      "transactionType": "CALL",
      "contractName": "IrisReputationOracle",
      "contractAddress": "0xcf7ed3acca5a467e9e704c703e8d87f634fb0fc9",
      "function": "submitFeedback(uint256,bool)",
      "arguments": [
        "1",
        "true"
      ],
      "transaction": {
        "from": "0xf39fd6e51aad88f6f4ce6ab8827279cfffb92266",
        "to": "0xcf7ed3acca5a467e9e704c703e8d87f634fb0fc9",
        "gas": "0xbfa6",
        "value": "0x0",
        "input": "0x9163d10800000000000000000000000000000000000000000000000000000000000000010000000000000000000000000000000000000000000000000000000000000001",
        "nonce": "0x13",
        "chainId": "0x7a69"
      },
      "additionalContracts": [],
      "isFixedGasLimit": false
    },
    {
      "hash": "0x30f6cef34710a2cfdeeb3265377d2ae9c16fe3450911d64b478d44811faad85f",
      "transactionType": "CALL",
      "contractName": "IrisReputationOracle",
      "contractAddress": "0xcf7ed3acca5a467e9e704c703e8d87f634fb0fc9",
      "function": "submitFeedback(uint256,bool)",
      "arguments": [
        "1",
        "true"
      ],
      "transaction": {
        "from": "0xf39fd6e51aad88f6f4ce6ab8827279cfffb92266",
        "to": "0xcf7ed3acca5a467e9e704c703e8d87f634fb0fc9",
        "gas": "0xbfa6",
        "value": "0x0",
        "input": "0x9163d10800000000000000000000000000000000000000000000000000000000000000010000000000000000000000000000000000000000000000000000000000000001",
        "nonce": "0x14",
        "chainId": "0x7a69"
      },
      "additionalContracts": [],
      "isFixedGasLimit": false
    },
    {
      "hash": "0x9c2cc2058b367c8a30998263ecbba4fdf16eeb3fd4c78ba732a03125f9d0c38c",
      "transactionType": "CALL",
      "contractName": "IrisReputationOracle",
      "contractAddress": "0xcf7ed3acca5a467e9e704c703e8d87f634fb0fc9",
      "function": "submitFeedback(uint256,bool)",
      "arguments": [
        "1",
        "true"
      ],
      "transaction": {
        "from": "0xf39fd6e51aad88f6f4ce6ab8827279cfffb92266",
        "to": "0xcf7ed3acca5a467e9e704c703e8d87f634fb0fc9",
        "gas": "0xbfa6",
        "value": "0x0",
        "input": "0x9163d10800000000000000000000000000000000000000000000000000000000000000010000000000000000000000000000000000000000000000000000000000000001",
        "nonce": "0x15",
        "chainId": "0x7a69"
      },
      "additionalContracts": [],
      "isFixedGasLimit": false
    },
    {
      "hash": "0xec8b310d441b6f87bde04d19881fe253895211b1dbb0c384e991b7f32780a0f4",
      "transactionType": "CALL",
      "contractName": "IrisReputationOracle",
      "contractAddress": "0xcf7ed3acca5a467e9e704c703e8d87f634fb0fc9",
      "function": "submitFeedback(uint256,bool)",
      "arguments": [
        "1",
        "true"
      ],
      "transaction": {
        "from": "0xf39fd6e51aad88f6f4ce6ab8827279cfffb92266",
        "to": "0xcf7ed3acca5a467e9e704c703e8d87f634fb0fc9",
        "gas": "0xbfa6",
        "value": "0x0",
        "input": "0x9163d10800000000000000000000000000000000000000000000000000000000000000010000000000000000000000000000000000000000000000000000000000000001",
        "nonce": "0x16",
        "chainId": "0x7a69"
      },
      "additionalContracts": [],
      "isFixedGasLimit": false
    },
    {
      "hash": "0xc9c64b1cb2e871bae54d7dffaf06637e32f65eeb666b0364cf1be63c3cc1b802",
      "transactionType": "CALL",
      "contractName": "IrisReputationOracle",
      "contractAddress": "0xcf7ed3acca5a467e9e704c703e8d87f634fb0fc9",
      "function": "submitFeedback(uint256,bool)",
      "arguments": [
        "1",
        "true"
      ],
      "transaction": {
        "from": "0xf39fd6e51aad88f6f4ce6ab8827279cfffb92266",
        "to": "0xcf7ed3acca5a467e9e704c703e8d87f634fb0fc9",
        "gas": "0xbfa6",
        "value": "0x0",
        "input": "0x9163d10800000000000000000000000000000000000000000000000000000000000000010000000000000000000000000000000000000000000000000000000000000001",
        "nonce": "0x17",
        "chainId": "0x7a69"
      },
      "additionalContracts": [],
      "isFixedGasLimit": false
    },
    {
      "hash": "0x6a46db2e9680cfbb17508aa0534cd6529960a51b0bd2495c91f8c4b60d307aa7",
      "transactionType": "CALL",
      "contractName": "IrisReputationOracle",
      "contractAddress": "0xcf7ed3acca5a467e9e704c703e8d87f634fb0fc9",
      "function": "submitFeedback(uint256,bool)",
      "arguments": [
        "1",
        "true"
      ],
      "transaction": {
        "from": "0xf39fd6e51aad88f6f4ce6ab8827279cfffb92266",
        "to": "0xcf7ed3acca5a467e9e704c703e8d87f634fb0fc9",
        "gas": "0xbfa6",
        "value": "0x0",
        "input": "0x9163d10800000000000000000000000000000000000000000000000000000000000000010000000000000000000000000000000000000000000000000000000000000001",
        "nonce": "0x18",
        "chainId": "0x7a69"
      },
      "additionalContracts": [],
      "isFixedGasLimit": false
    },
    {
      "hash": "0x7a839fa8edc69dc8fe5bb940adb736a61dfed854e72ee788790dd33cf31ad50d",
      "transactionType": "CALL",
      "contractName": "IrisReputationOracle",
      "contractAddress": "0xcf7ed3acca5a467e9e704c703e8d87f634fb0fc9",
      "function": "submitFeedback(uint256,bool)",
      "arguments": [
        "1",
        "true"
      ],
      "transaction": {
        "from": "0xf39fd6e51aad88f6f4ce6ab8827279cfffb92266",
        "to": "0xcf7ed3acca5a467e9e704c703e8d87f634fb0fc9",
        "gas": "0xbfa6",
        "value": "0x0",
        "input": "0x9163d10800000000000000000000000000000000000000000000000000000000000000010000000000000000000000000000000000000000000000000000000000000001",
        "nonce": "0x19",
        "chainId": "0x7a69"
      },
      "additionalContracts": [],
      "isFixedGasLimit": false
    },
    {
      "hash": "0x81906c91822bca758326d8ebafcda09542f9703dd6b731d05e0b511984c2bd66",
      "transactionType": "CALL",
      "contractName": "IrisReputationOracle",
      "contractAddress": "0xcf7ed3acca5a467e9e704c703e8d87f634fb0fc9",
      "function": "submitFeedback(uint256,bool)",
      "arguments": [
        "1",
        "true"
      ],
      "transaction": {
        "from": "0xf39fd6e51aad88f6f4ce6ab8827279cfffb92266",
        "to": "0xcf7ed3acca5a467e9e704c703e8d87f634fb0fc9",
        "gas": "0xbfa6",
        "value": "0x0",
        "input": "0x9163d10800000000000000000000000000000000000000000000000000000000000000010000000000000000000000000000000000000000000000000000000000000001",
        "nonce": "0x1a",
        "chainId": "0x7a69"
      },
      "additionalContracts": [],
      "isFixedGasLimit": false
    },
    {
      "hash": "0x996a5768131af8fa72be1c49dad03dfa7b943a10483427c8f1794bda0e8db402",
      "transactionType": "CALL",
      "contractName": "IrisReputationOracle",
      "contractAddress": "0xcf7ed3acca5a467e9e704c703e8d87f634fb0fc9",
      "function": "submitFeedback(uint256,bool)",
      "arguments": [
        "1",
        "true"
      ],
      "transaction": {
        "from": "0xf39fd6e51aad88f6f4ce6ab8827279cfffb92266",
        "to": "0xcf7ed3acca5a467e9e704c703e8d87f634fb0fc9",
        "gas": "0xbfa6",
        "value": "0x0",
        "input": "0x9163d10800000000000000000000000000000000000000000000000000000000000000010000000000000000000000000000000000000000000000000000000000000001",
        "nonce": "0x1b",
        "chainId": "0x7a69"
      },
      "additionalContracts": [],
      "isFixedGasLimit": false
    },
    {
      "hash": "0x608faf26bb21111418715b74ab4395e0916f517200fa3968db6e92c325deda3b",
      "transactionType": "CALL",
      "contractName": "MockERC20",
      "contractAddress": "0xa51c1fc2f0d1a1b8494ed1fe312d7c3a78ed91c0",
      "function": "mint(address,uint256)",
      "arguments": [
        "0xD003E751C3711E7D308A91784502B0f2C7f31Feb",
        "10000000000000000000000"
      ],
      "transaction": {
        "from": "0xf39fd6e51aad88f6f4ce6ab8827279cfffb92266",
        "to": "0xa51c1fc2f0d1a1b8494ed1fe312d7c3a78ed91c0",
        "gas": "0x16fd8",
        "value": "0x0",
        "input": "0x40c10f19000000000000000000000000d003e751c3711e7d308a91784502b0f2c7f31feb00000000000000000000000000000000000000000000021e19e0c9bab2400000",
        "nonce": "0x1c",
        "chainId": "0x7a69"
      },
      "additionalContracts": [],
      "isFixedGasLimit": false
    }
  ],
  "receipts": [
    {
      "status": "0x1",
      "cumulativeGasUsed": "0x1085d9",
      "logs": [],
      "logsBloom": "0x00000000000000000000000000000000000000000000000000000000000000000000000000000000000000000000000000000000000000000000000000000000000000000000000000000000000000000000000000000000000000000000000000000000000000000000000000000000000000000000000000000000000000000000000000000000000000000000000000000000000000000000000000000000000000000000000000000000000000000000000000000000000000000000000000000000000000000000000000000000000000000000000000000000000000000000000000000000000000000000000000000000000000000000000000000000",
      "type": "0x2",
      "transactionHash": "0xf3b355f0faa589546134c1c1f69dd31e5a59a62cae237d2928f3140299f15fb7",
      "transactionIndex": "0x0",
      "blockHash": "0x1b555eb279c54fcee6768471acf3bb2942036c10eed93e0987ecdc73f375f9cd",
      "blockNumber": "0x1",
      "gasUsed": "0x1085d9",
      "effectiveGasPrice": "0x3b9aca01",
      "blobGasPrice": "0x1",
      "from": "0xf39fd6e51aad88f6f4ce6ab8827279cfffb92266",
      "to": null,
      "contractAddress": "0x5fbdb2315678afecb367f032d93f642f64180aa3"
    },
    {
      "status": "0x1",
      "cumulativeGasUsed": "0xb7baa",
      "logs": [],
      "logsBloom": "0x00000000000000000000000000000000000000000000000000000000000000000000000000000000000000000000000000000000000000000000000000000000000000000000000000000000000000000000000000000000000000000000000000000000000000000000000000000000000000000000000000000000000000000000000000000000000000000000000000000000000000000000000000000000000000000000000000000000000000000000000000000000000000000000000000000000000000000000000000000000000000000000000000000000000000000000000000000000000000000000000000000000000000000000000000000000",
      "type": "0x2",
      "transactionHash": "0x700b1b21d202bffc8ba3f3ce1e923435a7c1770280f9a11d7f20f7c174e1df59",
      "transactionIndex": "0x0",
      "blockHash": "0x573063424d3f44317560d4c0aadf6d9a796b5b5dc19ab9d4cb6af8b688861fc0",
      "blockNumber": "0x2",
      "gasUsed": "0xb7baa",
      "effectiveGasPrice": "0x34b1217c",
      "blobGasPrice": "0x1",
      "from": "0xf39fd6e51aad88f6f4ce6ab8827279cfffb92266",
      "to": null,
      "contractAddress": "0xe7f1725e7734ce288f8367e1bb143e90bb3f0512"
    },
    {
      "status": "0x1",
      "cumulativeGasUsed": "0x6ed6a",
      "logs": [],
      "logsBloom": "0x00000000000000000000000000000000000000000000000000000000000000000000000000000000000000000000000000000000000000000000000000000000000000000000000000000000000000000000000000000000000000000000000000000000000000000000000000000000000000000000000000000000000000000000000000000000000000000000000000000000000000000000000000000000000000000000000000000000000000000000000000000000000000000000000000000000000000000000000000000000000000000000000000000000000000000000000000000000000000000000000000000000000000000000000000000000",
      "type": "0x2",
      "transactionHash": "0x12a9314f88c5295913c48cde68ba4ff209fc9c861650a3a5e733a36b5ec14f7a",
      "transactionIndex": "0x0",
      "blockHash": "0x72567627a93add3c24ad2b55c5087470ccd0e9e6b0407e9cfad9afecaacce699",
      "blockNumber": "0x3",
      "gasUsed": "0x6ed6a",
      "effectiveGasPrice": "0x2e6f9568",
      "blobGasPrice": "0x1",
      "from": "0xf39fd6e51aad88f6f4ce6ab8827279cfffb92266",
      "to": null,
      "contractAddress": "0x9fe46736679d2d9a65f0992f2272de9f3c7fa6e0"
    },
    {
      "status": "0x1",
      "cumulativeGasUsed": "0x6bc81",
      "logs": [
        {
          "address": "0xcf7ed3acca5a467e9e704c703e8d87f634fb0fc9",
          "topics": [
            "0x8be0079c531659141344cd1fd0a4f28419497f9722a3daafe3b4186f6b6457e0",
            "0x0000000000000000000000000000000000000000000000000000000000000000",
            "0x000000000000000000000000f39fd6e51aad88f6f4ce6ab8827279cfffb92266"
          ],
          "data": "0x",
          "blockHash": "0xd9e0de75dda16cc6b29296357c24db34da231cd9d33ec0ee6b04df076a7f8d1c",
          "blockNumber": "0x4",
          "blockTimestamp": "0x69b13bb8",
          "transactionHash": "0xb2255c1b6999d10b74b800d5162b29971d2d455df6d2608c76f0d157eff58ea1",
          "transactionIndex": "0x0",
          "logIndex": "0x0",
          "removed": false
        }
      ],
      "logsBloom": "0x00000000000000000000000000000000000000000000000000800000000000000000000000000000000000000000080000000000000000000000000000000001000000000000000000000000000000000001000000000000000000000000000000000000020000000000000100000800000000000000000000000000000000400000000008000000000000000000000000000000000000000000000000000000000000000000000000000000000000000000000000000000000000000000000000000000000000200000000000000000000000002000000000000000000020000000000000000000000000000000000000000000000000000000000000000000",
      "type": "0x2",
      "transactionHash": "0xb2255c1b6999d10b74b800d5162b29971d2d455df6d2608c76f0d157eff58ea1",
      "transactionIndex": "0x0",
      "blockHash": "0xd9e0de75dda16cc6b29296357c24db34da231cd9d33ec0ee6b04df076a7f8d1c",
      "blockNumber": "0x4",
      "gasUsed": "0x6bc81",
      "effectiveGasPrice": "0x28ce9c1a",
      "blobGasPrice": "0x1",
      "from": "0xf39fd6e51aad88f6f4ce6ab8827279cfffb92266",
      "to": null,
      "contractAddress": "0xcf7ed3acca5a467e9e704c703e8d87f634fb0fc9"
    },
    {
      "status": "0x1",
      "cumulativeGasUsed": "0x3320c",
      "logs": [],
      "logsBloom": "0x00000000000000000000000000000000000000000000000000000000000000000000000000000000000000000000000000000000000000000000000000000000000000000000000000000000000000000000000000000000000000000000000000000000000000000000000000000000000000000000000000000000000000000000000000000000000000000000000000000000000000000000000000000000000000000000000000000000000000000000000000000000000000000000000000000000000000000000000000000000000000000000000000000000000000000000000000000000000000000000000000000000000000000000000000000000",
      "type": "0x2",
      "transactionHash": "0xe1ba48b589e0d7c17294968c01e4220080dd66e231742008598162a4980a8ed4",
      "transactionIndex": "0x0",
      "blockHash": "0x129ca25a1e3b957fcda43a7f333cb69847bb478c610fb0e25554d2c8ccbecb88",
      "blockNumber": "0x5",
      "gasUsed": "0x3320c",
      "effectiveGasPrice": "0x23db374e",
      "blobGasPrice": "0x1",
      "from": "0xf39fd6e51aad88f6f4ce6ab8827279cfffb92266",
      "to": null,
      "contractAddress": "0xdc64a140aa3e981100a9beca4e685f962f0cf6c9"
    },
    {
      "status": "0x1",
      "cumulativeGasUsed": "0x32984",
      "logs": [],
      "logsBloom": "0x00000000000000000000000000000000000000000000000000000000000000000000000000000000000000000000000000000000000000000000000000000000000000000000000000000000000000000000000000000000000000000000000000000000000000000000000000000000000000000000000000000000000000000000000000000000000000000000000000000000000000000000000000000000000000000000000000000000000000000000000000000000000000000000000000000000000000000000000000000000000000000000000000000000000000000000000000000000000000000000000000000000000000000000000000000000",
      "type": "0x2",
      "transactionHash": "0xa73e0eddf22552e0d233b1423698ce40725700d91f91daa95a8ea4a1eb5c8017",
      "transactionIndex": "0x0",
      "blockHash": "0xe56bbe66cd4ef55e48d94e2bb282fe13e3dfe8b0235ec4b1e6f708273f19d3b3",
      "blockNumber": "0x6",
      "gasUsed": "0x32984",
      "effectiveGasPrice": "0x1f6fd553",
      "blobGasPrice": "0x1",
      "from": "0xf39fd6e51aad88f6f4ce6ab8827279cfffb92266",
      "to": null,
      "contractAddress": "0x5fc8d32690cc91d4c39d9d3abcbd16989f875707"
    },
    {
      "status": "0x1",
      "cumulativeGasUsed": "0x33044",
      "logs": [],
      "logsBloom": "0x00000000000000000000000000000000000000000000000000000000000000000000000000000000000000000000000000000000000000000000000000000000000000000000000000000000000000000000000000000000000000000000000000000000000000000000000000000000000000000000000000000000000000000000000000000000000000000000000000000000000000000000000000000000000000000000000000000000000000000000000000000000000000000000000000000000000000000000000000000000000000000000000000000000000000000000000000000000000000000000000000000000000000000000000000000000",
      "type": "0x2",
      "transactionHash": "0x5e377b6ab89abc3fad487e84823bc1e848301213eacd1b61260f772f9d1458a6",
      "transactionIndex": "0x0",
      "blockHash": "0xb913352792d6ddfc40d302c301626dda56014b569795693b13e93af279108419",
      "blockNumber": "0x7",
      "gasUsed": "0x33044",
      "effectiveGasPrice": "0x1b8fc0a3",
      "blobGasPrice": "0x1",
      "from": "0xf39fd6e51aad88f6f4ce6ab8827279cfffb92266",
      "to": null,
      "contractAddress": "0x0165878a594ca255338adfa4d48449f69242eb8f"
    },
    {
      "status": "0x1",
      "cumulativeGasUsed": "0x25c5f",
      "logs": [],
      "logsBloom": "0x00000000000000000000000000000000000000000000000000000000000000000000000000000000000000000000000000000000000000000000000000000000000000000000000000000000000000000000000000000000000000000000000000000000000000000000000000000000000000000000000000000000000000000000000000000000000000000000000000000000000000000000000000000000000000000000000000000000000000000000000000000000000000000000000000000000000000000000000000000000000000000000000000000000000000000000000000000000000000000000000000000000000000000000000000000000",
      "type": "0x2",
      "transactionHash": "0x2cc3e1081fe871a631b94b181eadac5ef39af6b42badcc662ec724e439724314",
      "transactionIndex": "0x0",
      "blockHash": "0x4ee8f058f2447dd4585c7c0ca5da3dc62fc1dfe0d4b5b758bf599ce127402aba",
      "blockNumber": "0x8",
      "gasUsed": "0x25c5f",
      "effectiveGasPrice": "0x182a11f1",
      "blobGasPrice": "0x1",
      "from": "0xf39fd6e51aad88f6f4ce6ab8827279cfffb92266",
      "to": null,
      "contractAddress": "0xa513e6e4b8f2a923d98304ec87f64353c4d5c853"
    },
    {
      "status": "0x1",
      "cumulativeGasUsed": "0x2467f",
      "logs": [],
      "logsBloom": "0x00000000000000000000000000000000000000000000000000000000000000000000000000000000000000000000000000000000000000000000000000000000000000000000000000000000000000000000000000000000000000000000000000000000000000000000000000000000000000000000000000000000000000000000000000000000000000000000000000000000000000000000000000000000000000000000000000000000000000000000000000000000000000000000000000000000000000000000000000000000000000000000000000000000000000000000000000000000000000000000000000000000000000000000000000000000",
      "type": "0x2",
      "transactionHash": "0x77b4a23e3bb76ebc040008daed0bd5bad3988db880c60fea4c1c9a5b3b779d75",
      "transactionIndex": "0x0",
      "blockHash": "0x79bb273f3d4fa983bc022c18c1c17c591c21f0be041760b33f4b6a8bf772531e",
      "blockNumber": "0x9",
      "gasUsed": "0x2467f",
      "effectiveGasPrice": "0x152cc985",
      "blobGasPrice": "0x1",
      "from": "0xf39fd6e51aad88f6f4ce6ab8827279cfffb92266",
      "to": null,
      "contractAddress": "0x2279b7a0a67db372996a5fab50d91eaa73d2ebe6"
    },
    {
      "status": "0x1",
      "cumulativeGasUsed": "0x2d884",
      "logs": [],
      "logsBloom": "0x00000000000000000000000000000000000000000000000000000000000000000000000000000000000000000000000000000000000000000000000000000000000000000000000000000000000000000000000000000000000000000000000000000000000000000000000000000000000000000000000000000000000000000000000000000000000000000000000000000000000000000000000000000000000000000000000000000000000000000000000000000000000000000000000000000000000000000000000000000000000000000000000000000000000000000000000000000000000000000000000000000000000000000000000000000000",
      "type": "0x2",
      "transactionHash": "0x29ac5b6d21bc128f15ca361279be9e83a800edf0d0dd50937aab4da2d08a560d",
      "transactionIndex": "0x0",
      "blockHash": "0xc0dc63fade87723eea194e3f02a2d1091feb6952727b37a7bdeb1e6d55e7ea86",
      "blockNumber": "0xa",
      "gasUsed": "0x2d884",
      "effectiveGasPrice": "0x128deccc",
      "blobGasPrice": "0x1",
      "from": "0xf39fd6e51aad88f6f4ce6ab8827279cfffb92266",
      "to": null,
      "contractAddress": "0x8a791620dd6260079bf849dc5567adc3f2fdc318"
    },
    {
      "status": "0x1",
      "cumulativeGasUsed": "0x34c54",
      "logs": [],
      "logsBloom": "0x00000000000000000000000000000000000000000000000000000000000000000000000000000000000000000000000000000000000000000000000000000000000000000000000000000000000000000000000000000000000000000000000000000000000000000000000000000000000000000000000000000000000000000000000000000000000000000000000000000000000000000000000000000000000000000000000000000000000000000000000000000000000000000000000000000000000000000000000000000000000000000000000000000000000000000000000000000000000000000000000000000000000000000000000000000000",
      "type": "0x2",
      "transactionHash": "0xb16ccc8fe34da7472072b386a66117dd1f86ee8785fc068bca38d13126fd94b6",
      "transactionIndex": "0x0",
      "blockHash": "0xe2611cfa1d1dc67e30b8ab44605deda352d11d983775554e60be7820cdd13484",
      "blockNumber": "0xb",
      "gasUsed": "0x34c54",
      "effectiveGasPrice": "0x10439109",
      "blobGasPrice": "0x1",
      "from": "0xf39fd6e51aad88f6f4ce6ab8827279cfffb92266",
      "to": null,
      "contractAddress": "0x610178da211fef7d417bc0e6fed39f05609ad788"
    },
    {
      "status": "0x1",
      "cumulativeGasUsed": "0x98441",
      "logs": [],
      "logsBloom": "0x00000000000000000000000000000000000000000000000000000000000000000000000000000000000000000000000000000000000000000000000000000000000000000000000000000000000000000000000000000000000000000000000000000000000000000000000000000000000000000000000000000000000000000000000000000000000000000000000000000000000000000000000000000000000000000000000000000000000000000000000000000000000000000000000000000000000000000000000000000000000000000000000000000000000000000000000000000000000000000000000000000000000000000000000000000000",
      "type": "0x2",
      "transactionHash": "0x40b129067f1ceb449995c22ea9b20768cd5c1c9b68c333da6b279670d1ac004d",
      "transactionIndex": "0x0",
      "blockHash": "0x1469c8dd9a06bc232ae2e28d949ff09924a7224f2d86921c08d4b37ea7a41beb",
      "blockNumber": "0xc",
      "gasUsed": "0x98441",
      "effectiveGasPrice": "0xe429ecb",
      "blobGasPrice": "0x1",
      "from": "0xf39fd6e51aad88f6f4ce6ab8827279cfffb92266",
      "to": null,
      "contractAddress": "0xb7f8bc63bbcad18155201308c8f3540b07f84f5e"
    },
    {
      "status": "0x1",
      "cumulativeGasUsed": "0x77509",
      "logs": [],
      "logsBloom": "0x00000000000000000000000000000000000000000000000000000000000000000000000000000000000000000000000000000000000000000000000000000000000000000000000000000000000000000000000000000000000000000000000000000000000000000000000000000000000000000000000000000000000000000000000000000000000000000000000000000000000000000000000000000000000000000000000000000000000000000000000000000000000000000000000000000000000000000000000000000000000000000000000000000000000000000000000000000000000000000000000000000000000000000000000000000000",
      "type": "0x2",
      "transactionHash": "0x165c4189dcd6c002f2b93f5995310da2766424abf6b83e8babd99862ce3026bb",
      "transactionIndex": "0x0",
      "blockHash": "0x737a22cae516f2e5748ec3876a3fdf11ba68e12286d2e452b42f0ddad65f4362",
      "blockNumber": "0xd",
      "gasUsed": "0x77509",
      "effectiveGasPrice": "0xc8d442b",
      "blobGasPrice": "0x1",
      "from": "0xf39fd6e51aad88f6f4ce6ab8827279cfffb92266",
      "to": null,
      "contractAddress": "0xa51c1fc2f0d1a1b8494ed1fe312d7c3a78ed91c0"
    },
    {
      "status": "0x1",
      "cumulativeGasUsed": "0x251c7",
      "logs": [],
      "logsBloom": "0x00000000000000000000000000000000000000000000000000000000000000000000000000000000000000000000000000000000000000000000000000000000000000000000000000000000000000000000000000000000000000000000000000000000000000000000000000000000000000000000000000000000000000000000000000000000000000000000000000000000000000000000000000000000000000000000000000000000000000000000000000000000000000000000000000000000000000000000000000000000000000000000000000000000000000000000000000000000000000000000000000000000000000000000000000000000",
      "type": "0x2",
      "transactionHash": "0xb505c76d348ff0240aa1f719b0839c6b65bfbf74c6f9a459c56087e1d96b5ed8",
      "transactionIndex": "0x0",
      "blockHash": "0x18b17323eefedd561c46b69ace2743e6939140ca360fa40489a3f2b366e84f92",
      "blockNumber": "0xe",
      "gasUsed": "0x251c7",
      "effectiveGasPrice": "0xb08b1c3",
      "blobGasPrice": "0x1",
      "from": "0xf39fd6e51aad88f6f4ce6ab8827279cfffb92266",
      "to": null,
      "contractAddress": "0x0dcd1bf9a1b36ce34237eeafef220932846bcd82"
    },
    {
      "status": "0x1",
      "cumulativeGasUsed": "0x8a18a",
      "logs": [
        {
          "address": "0xe7f1725e7734ce288f8367e1bb143e90bb3f0512",
          "topics": [
            "0xac631f3001b55ea1509cf3d7e74898f85392a61a76e8149181ae1259622dabc8",
            "0x000000000000000000000000d003e751c3711e7d308a91784502b0f2c7f31feb",
            "0x00000000000000000000000070997970c51812dc3a010c7d01b50e0d17dc79c8"
          ],
          "data": "0x",
          "blockHash": "0x60fe47ba1a3584eb43937b409d086d528ae17a257d8dfa509a99f90083abe58f",
          "blockNumber": "0xf",
          "blockTimestamp": "0x69b13bb8",
          "transactionHash": "0xffde831718c27878c5da49cc6a0926601fa0b0411c32f672d768454e934b8cd8",
          "transactionIndex": "0x0",
          "logIndex": "0x0",
          "removed": false
        }
      ],
      "logsBloom": "0x00000000000000000002000000000000000000000000000000200000000000000000000000000000000000000000000010000000000000000000000000000000000000000000000000000000000000000000000000100000000000000000000000000800000000000000000000000000000000000000000000000000000000000000000000000000000000000000000001000000000000000000000000000000000000000000000000000800000000000000000000000000000000000000000000000000000000000000000000001100000000000000000000000000000000000000000000000000000000040000000001000000000000800000000000000000",
      "type": "0x2",
      "transactionHash": "0xffde831718c27878c5da49cc6a0926601fa0b0411c32f672d768454e934b8cd8",
      "transactionIndex": "0x0",
      "blockHash": "0x60fe47ba1a3584eb43937b409d086d528ae17a257d8dfa509a99f90083abe58f",
      "blockNumber": "0xf",
      "gasUsed": "0x8a18a",
      "effectiveGasPrice": "0x9ab2f8a",
      "blobGasPrice": "0x1",
      "from": "0xf39fd6e51aad88f6f4ce6ab8827279cfffb92266",
      "to": "0xe7f1725e7734ce288f8367e1bb143e90bb3f0512",
      "contractAddress": null
    },
    {
      "status": "0x1",
      "cumulativeGasUsed": "0x226f4",
      "logs": [
        {
          "address": "0x9fe46736679d2d9a65f0992f2272de9f3c7fa6e0",
          "topics": [
            "0x0d063c6022bff16d09991a9f91882ffa112f5fb2529136f65eb4c77bbd047e43",
            "0x0000000000000000000000000000000000000000000000000000000000000001",
            "0x0000000000000000000000003c44cdddb6a900fa2b585dd299e03d12fa4293bc"
          ],
          "data": "0x0000000000000000000000000000000000000000000000000000000000000020000000000000000000000000000000000000000000000000000000000000001a697066733a2f2f6167656e742d6d657461646174612e6a736f6e000000000000",
          "blockHash": "0x655058a2a38411be0c350e1f7eb4e63871de7f05b81b894fb793b512e183e93b",
          "blockNumber": "0x10",
          "blockTimestamp": "0x69b13bb8",
          "transactionHash": "0x7a84cf70bd791d7abaf0c9aa2e32dc3629e6590a405772927dc23a8db58cf43d",
          "transactionIndex": "0x0",
          "logIndex": "0x0",
          "removed": false
        }
      ],
      "logsBloom": "0x000000000000000000000000000000000000000000000000000000000000000000000000000000000000000000000000000000000000402000000000001400000000000000000000000000000000000000000000000400000000000000000000000000000000000000000000000000000008000000000000000000000000000000000000000000000000000000000000000000000000000000000000000000000000000000002000000000000000000000000000000000000000000000000000000000000000004000000000000100000000000000000000000000000000c0000000000000000000000000000000000000000000000000400000000000000000",
      "type": "0x2",
      "transactionHash": "0x7a84cf70bd791d7abaf0c9aa2e32dc3629e6590a405772927dc23a8db58cf43d",
      "transactionIndex": "0x0",
      "blockHash": "0x655058a2a38411be0c350e1f7eb4e63871de7f05b81b894fb793b512e183e93b",
      "blockNumber": "0x10",
      "gasUsed": "0x226f4",
      "effectiveGasPrice": "0x881746a",
      "blobGasPrice": "0x1",
      "from": "0x3c44cdddb6a900fa2b585dd299e03d12fa4293bc",
      "to": "0x9fe46736679d2d9a65f0992f2272de9f3c7fa6e0",
      "contractAddress": null
    },
    {
      "status": "0x1",
      "cumulativeGasUsed": "0x11d7c",
      "logs": [
        {
          "address": "0xcf7ed3acca5a467e9e704c703e8d87f634fb0fc9",
          "topics": [
            "0xb61cc7383c4aeab2faaae0ac5c8c79434fe547fcd8ab0496f2381970de190a7e",
            "0x0000000000000000000000000000000000000000000000000000000000000001",
            "0x000000000000000000000000f39fd6e51aad88f6f4ce6ab8827279cfffb92266"
          ],
          "data": "0x00000000000000000000000000000000000000000000000000000000000000010000000000000000000000000000000000000000000000000000000000000034",
          "blockHash": "0x9230eb847b7a34abef4d42c0c04af2c0bd37058a09840abcf421e1c85a8da7bd",
          "blockNumber": "0x11",
          "blockTimestamp": "0x69b13bb8",
          "transactionHash": "0x8073e5147d9b9d437e3b786209d0741fcb65bdcb0333a5207736a4ac11dc1b04",
          "transactionIndex": "0x0",
          "logIndex": "0x0",
          "removed": false
        }
      ],
      "logsBloom": "0x00000000000000000000000000000000000000000000000000000000000000000000000000000000000000000000080000000000000000000000000000040001000000010000000000000000000000000000000000040000000000040000000000000000000000000000000100000000000000000000000000000000000000000000000008000000000000000000000000000000000000000000000000000000000000000000000000000000000000000000000000000000002000000000000000000000000000200000000000000000000000002000000000000000000040000000000000000000000000000000000000000000000000000000000000000000",
      "type": "0x2",
      "transactionHash": "0x8073e5147d9b9d437e3b786209d0741fcb65bdcb0333a5207736a4ac11dc1b04",
      "transactionIndex": "0x0",
      "blockHash": "0x9230eb847b7a34abef4d42c0c04af2c0bd37058a09840abcf421e1c85a8da7bd",
      "blockNumber": "0x11",
      "gasUsed": "0x11d7c",
      "effectiveGasPrice": "0x773d50c",
      "blobGasPrice": "0x1",
      "from": "0xf39fd6e51aad88f6f4ce6ab8827279cfffb92266",
      "to": "0xcf7ed3acca5a467e9e704c703e8d87f634fb0fc9",
      "contractAddress": null
    },
    {
      "status": "0x1",
      "cumulativeGasUsed": "0x8ac0",
      "logs": [
        {
          "address": "0xcf7ed3acca5a467e9e704c703e8d87f634fb0fc9",
          "topics": [
            "0xb61cc7383c4aeab2faaae0ac5c8c79434fe547fcd8ab0496f2381970de190a7e",
            "0x0000000000000000000000000000000000000000000000000000000000000001",
            "0x000000000000000000000000f39fd6e51aad88f6f4ce6ab8827279cfffb92266"
          ],
          "data": "0x00000000000000000000000000000000000000000000000000000000000000010000000000000000000000000000000000000000000000000000000000000036",
          "blockHash": "0xcf1b2096c4df5e397473b1466582498a3480a5435a5938a4f83f8dc852280c08",
          "blockNumber": "0x12",
          "blockTimestamp": "0x69b13bb8",
          "transactionHash": "0x4eba9e32ecd9e4b0d2d9d47b1b90fdce1e7f7b64446e58ab8d59af2239367ce1",
          "transactionIndex": "0x0",
          "logIndex": "0x0",
          "removed": false
        }
      ],
      "logsBloom": "0x00000000000000000000000000000000000000000000000000000000000000000000000000000000000000000000080000000000000000000000000000040001000000010000000000000000000000000000000000040000000000040000000000000000000000000000000100000000000000000000000000000000000000000000000008000000000000000000000000000000000000000000000000000000000000000000000000000000000000000000000000000000002000000000000000000000000000200000000000000000000000002000000000000000000040000000000000000000000000000000000000000000000000000000000000000000",
      "type": "0x2",
      "transactionHash": "0x4eba9e32ecd9e4b0d2d9d47b1b90fdce1e7f7b64446e58ab8d59af2239367ce1",
      "transactionIndex": "0x0",
      "blockHash": "0xcf1b2096c4df5e397473b1466582498a3480a5435a5938a4f83f8dc852280c08",
      "blockNumber": "0x12",
      "gasUsed": "0x8ac0",
      "effectiveGasPrice": "0x68683e0",
      "blobGasPrice": "0x1",
      "from": "0xf39fd6e51aad88f6f4ce6ab8827279cfffb92266",
      "to": "0xcf7ed3acca5a467e9e704c703e8d87f634fb0fc9",
      "contractAddress": null
    },
    {
      "status": "0x1",
      "cumulativeGasUsed": "0x8ac0",
      "logs": [
        {
          "address": "0xcf7ed3acca5a467e9e704c703e8d87f634fb0fc9",
          "topics": [
            "0xb61cc7383c4aeab2faaae0ac5c8c79434fe547fcd8ab0496f2381970de190a7e",
            "0x0000000000000000000000000000000000000000000000000000000000000001",
            "0x000000000000000000000000f39fd6e51aad88f6f4ce6ab8827279cfffb92266"
          ],
          "data": "0x00000000000000000000000000000000000000000000000000000000000000010000000000000000000000000000000000000000000000000000000000000038",
          "blockHash": "0x3522bc1f67c7dfcfb0a4970b61aa6837de75fd81153b4a90183391dd126ef10e",
          "blockNumber": "0x13",
          "blockTimestamp": "0x69b13bb8",
          "transactionHash": "0x7b20cea2c9d50c291202c4092519f7144879a8b8ae6afe6c8402ca120d8f1b14",
          "transactionIndex": "0x0",
          "logIndex": "0x0",
          "removed": false
        }
      ],
      "logsBloom": "0x00000000000000000000000000000000000000000000000000000000000000000000000000000000000000000000080000000000000000000000000000040001000000010000000000000000000000000000000000040000000000040000000000000000000000000000000100000000000000000000000000000000000000000000000008000000000000000000000000000000000000000000000000000000000000000000000000000000000000000000000000000000002000000000000000000000000000200000000000000000000000002000000000000000000040000000000000000000000000000000000000000000000000000000000000000000",
      "type": "0x2",
      "transactionHash": "0x7b20cea2c9d50c291202c4092519f7144879a8b8ae6afe6c8402ca120d8f1b14",
      "transactionIndex": "0x0",
      "blockHash": "0x3522bc1f67c7dfcfb0a4970b61aa6837de75fd81153b4a90183391dd126ef10e",
      "blockNumber": "0x13",
      "gasUsed": "0x8ac0",
      "effectiveGasPrice": "0x5b631fa",
      "blobGasPrice": "0x1",
      "from": "0xf39fd6e51aad88f6f4ce6ab8827279cfffb92266",
      "to": "0xcf7ed3acca5a467e9e704c703e8d87f634fb0fc9",
      "contractAddress": null
    },
    {
      "status": "0x1",
      "cumulativeGasUsed": "0x8ac0",
      "logs": [
        {
          "address": "0xcf7ed3acca5a467e9e704c703e8d87f634fb0fc9",
          "topics": [
            "0xb61cc7383c4aeab2faaae0ac5c8c79434fe547fcd8ab0496f2381970de190a7e",
            "0x0000000000000000000000000000000000000000000000000000000000000001",
            "0x000000000000000000000000f39fd6e51aad88f6f4ce6ab8827279cfffb92266"
          ],
          "data": "0x0000000000000000000000000000000000000000000000000000000000000001000000000000000000000000000000000000000000000000000000000000003a",
          "blockHash": "0x86e17896cb210e31d2e9cc06de2b92c65de1c42749eaf6fcfae9672ee40d44bf",
          "blockNumber": "0x14",
          "blockTimestamp": "0x69b13bb8",
          "transactionHash": "0x74738d7546c4ceb45ceb52f471627a10b55a2a109cfb9389f530f78f0da7a14c",
          "transactionIndex": "0x0",
          "logIndex": "0x0",
          "removed": false
        }
      ],
      "logsBloom": "0x00000000000000000000000000000000000000000000000000000000000000000000000000000000000000000000080000000000000000000000000000040001000000010000000000000000000000000000000000040000000000040000000000000000000000000000000100000000000000000000000000000000000000000000000008000000000000000000000000000000000000000000000000000000000000000000000000000000000000000000000000000000002000000000000000000000000000200000000000000000000000002000000000000000000040000000000000000000000000000000000000000000000000000000000000000000",
      "type": "0x2",
      "transactionHash": "0x74738d7546c4ceb45ceb52f471627a10b55a2a109cfb9389f530f78f0da7a14c",
      "transactionIndex": "0x0",
      "blockHash": "0x86e17896cb210e31d2e9cc06de2b92c65de1c42749eaf6fcfae9672ee40d44bf",
      "blockNumber": "0x14",
      "gasUsed": "0x8ac0",
      "effectiveGasPrice": "0x4ffda88",
      "blobGasPrice": "0x1",
      "from": "0xf39fd6e51aad88f6f4ce6ab8827279cfffb92266",
      "to": "0xcf7ed3acca5a467e9e704c703e8d87f634fb0fc9",
      "contractAddress": null
    },
    {
      "status": "0x1",
      "cumulativeGasUsed": "0x8ac0",
      "logs": [
        {
          "address": "0xcf7ed3acca5a467e9e704c703e8d87f634fb0fc9",
          "topics": [
            "0xb61cc7383c4aeab2faaae0ac5c8c79434fe547fcd8ab0496f2381970de190a7e",
            "0x0000000000000000000000000000000000000000000000000000000000000001",
            "0x000000000000000000000000f39fd6e51aad88f6f4ce6ab8827279cfffb92266"
          ],
          "data": "0x0000000000000000000000000000000000000000000000000000000000000001000000000000000000000000000000000000000000000000000000000000003c",
          "blockHash": "0xbe9452797569f3b32f4e8e5f5ace6eecb46880c6ff2b96841c060eb2de547802",
          "blockNumber": "0x15",
          "blockTimestamp": "0x69b13bb8",
          "transactionHash": "0xbbdd030ca48c4405c7fda1319568c94475e812d9338d0440035952d60194a57e",
          "transactionIndex": "0x0",
          "logIndex": "0x0",
          "removed": false
        }
      ],
      "logsBloom": "0x00000000000000000000000000000000000000000000000000000000000000000000000000000000000000000000080000000000000000000000000000040001000000010000000000000000000000000000000000040000000000040000000000000000000000000000000100000000000000000000000000000000000000000000000008000000000000000000000000000000000000000000000000000000000000000000000000000000000000000000000000000000002000000000000000000000000000200000000000000000000000002000000000000000000040000000000000000000000000000000000000000000000000000000000000000000",
      "type": "0x2",
      "transactionHash": "0xbbdd030ca48c4405c7fda1319568c94475e812d9338d0440035952d60194a57e",
      "transactionIndex": "0x0",
      "blockHash": "0xbe9452797569f3b32f4e8e5f5ace6eecb46880c6ff2b96841c060eb2de547802",
      "blockNumber": "0x15",
      "gasUsed": "0x8ac0",
      "effectiveGasPrice": "0x4604033",
      "blobGasPrice": "0x1",
      "from": "0xf39fd6e51aad88f6f4ce6ab8827279cfffb92266",
      "to": "0xcf7ed3acca5a467e9e704c703e8d87f634fb0fc9",
      "contractAddress": null
    },
    {
      "status": "0x1",
      "cumulativeGasUsed": "0x8ac0",
      "logs": [
        {
          "address": "0xcf7ed3acca5a467e9e704c703e8d87f634fb0fc9",
          "topics": [
            "0xb61cc7383c4aeab2faaae0ac5c8c79434fe547fcd8ab0496f2381970de190a7e",
            "0x0000000000000000000000000000000000000000000000000000000000000001",
            "0x000000000000000000000000f39fd6e51aad88f6f4ce6ab8827279cfffb92266"
          ],
          "data": "0x0000000000000000000000000000000000000000000000000000000000000001000000000000000000000000000000000000000000000000000000000000003e",
          "blockHash": "0xb93d82872d38ba924d28a2bc076d1184f5639c7b8f014e58c363d75d1244359f",
          "blockNumber": "0x16",
          "blockTimestamp": "0x69b13bb8",
          "transactionHash": "0x30f6cef34710a2cfdeeb3265377d2ae9c16fe3450911d64b478d44811faad85f",
          "transactionIndex": "0x0",
          "logIndex": "0x0",
          "removed": false
        }
      ],
      "logsBloom": "0x00000000000000000000000000000000000000000000000000000000000000000000000000000000000000000000080000000000000000000000000000040001000000010000000000000000000000000000000000040000000000040000000000000000000000000000000100000000000000000000000000000000000000000000000008000000000000000000000000000000000000000000000000000000000000000000000000000000000000000000000000000000002000000000000000000000000000200000000000000000000000002000000000000000000040000000000000000000000000000000000000000000000000000000000000000000",
      "type": "0x2",
      "transactionHash": "0x30f6cef34710a2cfdeeb3265377d2ae9c16fe3450911d64b478d44811faad85f",
      "transactionIndex": "0x0",
      "blockHash": "0xb93d82872d38ba924d28a2bc076d1184f5639c7b8f014e58c363d75d1244359f",
      "blockNumber": "0x16",
      "gasUsed": "0x8ac0",
      "effectiveGasPrice": "0x3d48d11",
      "blobGasPrice": "0x1",
      "from": "0xf39fd6e51aad88f6f4ce6ab8827279cfffb92266",
      "to": "0xcf7ed3acca5a467e9e704c703e8d87f634fb0fc9",
      "contractAddress": null
    },
    {
      "status": "0x1",
      "cumulativeGasUsed": "0x8ac0",
      "logs": [
        {
          "address": "0xcf7ed3acca5a467e9e704c703e8d87f634fb0fc9",
          "topics": [
            "0xb61cc7383c4aeab2faaae0ac5c8c79434fe547fcd8ab0496f2381970de190a7e",
            "0x0000000000000000000000000000000000000000000000000000000000000001",
            "0x000000000000000000000000f39fd6e51aad88f6f4ce6ab8827279cfffb92266"
          ],
          "data": "0x00000000000000000000000000000000000000000000000000000000000000010000000000000000000000000000000000000000000000000000000000000040",
          "blockHash": "0x61cfd009ebb684fdd864733b2b153ad4129f760fa24f5769c45772897d650e58",
          "blockNumber": "0x17",
          "blockTimestamp": "0x69b13bb8",
          "transactionHash": "0x9c2cc2058b367c8a30998263ecbba4fdf16eeb3fd4c78ba732a03125f9d0c38c",
          "transactionIndex": "0x0",
          "logIndex": "0x0",
          "removed": false
        }
      ],
      "logsBloom": "0x00000000000000000000000000000000000000000000000000000000000000000000000000000000000000000000080000000000000000000000000000040001000000010000000000000000000000000000000000040000000000040000000000000000000000000000000100000000000000000000000000000000000000000000000008000000000000000000000000000000000000000000000000000000000000000000000000000000000000000000000000000000002000000000000000000000000000200000000000000000000000002000000000000000000040000000000000000000000000000000000000000000000000000000000000000000",
      "type": "0x2",
      "transactionHash": "0x9c2cc2058b367c8a30998263ecbba4fdf16eeb3fd4c78ba732a03125f9d0c38c",
      "transactionIndex": "0x0",
      "blockHash": "0x61cfd009ebb684fdd864733b2b153ad4129f760fa24f5769c45772897d650e58",
      "blockNumber": "0x17",
      "gasUsed": "0x8ac0",
      "effectiveGasPrice": "0x35a45bd",
      "blobGasPrice": "0x1",
      "from": "0xf39fd6e51aad88f6f4ce6ab8827279cfffb92266",
      "to": "0xcf7ed3acca5a467e9e704c703e8d87f634fb0fc9",
      "contractAddress": null
    },
    {
      "status": "0x1",
      "cumulativeGasUsed": "0x8ac0",
      "logs": [
        {
          "address": "0xcf7ed3acca5a467e9e704c703e8d87f634fb0fc9",
          "topics": [
            "0xb61cc7383c4aeab2faaae0ac5c8c79434fe547fcd8ab0496f2381970de190a7e",
            "0x0000000000000000000000000000000000000000000000000000000000000001",
            "0x000000000000000000000000f39fd6e51aad88f6f4ce6ab8827279cfffb92266"
          ],
          "data": "0x00000000000000000000000000000000000000000000000000000000000000010000000000000000000000000000000000000000000000000000000000000042",
          "blockHash": "0xbe691fc619c82e2effe60cc9e06a9717c1328143911c234bc80ffbda0df86b95",
          "blockNumber": "0x18",
          "blockTimestamp": "0x69b13bb8",
          "transactionHash": "0xec8b310d441b6f87bde04d19881fe253895211b1dbb0c384e991b7f32780a0f4",
          "transactionIndex": "0x0",
          "logIndex": "0x0",
          "removed": false
        }
      ],
      "logsBloom": "0x00000000000000000000000000000000000000000000000000000000000000000000000000000000000000000000080000000000000000000000000000040001000000010000000000000000000000000000000000040000000000040000000000000000000000000000000100000000000000000000000000000000000000000000000008000000000000000000000000000000000000000000000000000000000000000000000000000000000000000000000000000000002000000000000000000000000000200000000000000000000000002000000000000000000040000000000000000000000000000000000000000000000000000000000000000000",
      "type": "0x2",
      "transactionHash": "0xec8b310d441b6f87bde04d19881fe253895211b1dbb0c384e991b7f32780a0f4",
      "transactionIndex": "0x0",
      "blockHash": "0xbe691fc619c82e2effe60cc9e06a9717c1328143911c234bc80ffbda0df86b95",
      "blockNumber": "0x18",
      "gasUsed": "0x8ac0",
      "effectiveGasPrice": "0x2ef3e0f",
      "blobGasPrice": "0x1",
      "from": "0xf39fd6e51aad88f6f4ce6ab8827279cfffb92266",
      "to": "0xcf7ed3acca5a467e9e704c703e8d87f634fb0fc9",
      "contractAddress": null
    },
    {
      "status": "0x1",
      "cumulativeGasUsed": "0x8ac0",
      "logs": [
        {
          "address": "0xcf7ed3acca5a467e9e704c703e8d87f634fb0fc9",
          "topics": [
            "0xb61cc7383c4aeab2faaae0ac5c8c79434fe547fcd8ab0496f2381970de190a7e",
            "0x0000000000000000000000000000000000000000000000000000000000000001",
            "0x000000000000000000000000f39fd6e51aad88f6f4ce6ab8827279cfffb92266"
          ],
          "data": "0x00000000000000000000000000000000000000000000000000000000000000010000000000000000000000000000000000000000000000000000000000000044",
          "blockHash": "0x55a0e83dde8f4beeac18b6e274a4d901b8c414bdd35179af786d8a1d1d1854f7",
          "blockNumber": "0x19",
          "blockTimestamp": "0x69b13bb8",
          "transactionHash": "0xc9c64b1cb2e871bae54d7dffaf06637e32f65eeb666b0364cf1be63c3cc1b802",
          "transactionIndex": "0x0",
          "logIndex": "0x0",
          "removed": false
        }
      ],
      "logsBloom": "0x00000000000000000000000000000000000000000000000000000000000000000000000000000000000000000000080000000000000000000000000000040001000000010000000000000000000000000000000000040000000000040000000000000000000000000000000100000000000000000000000000000000000000000000000008000000000000000000000000000000000000000000000000000000000000000000000000000000000000000000000000000000002000000000000000000000000000200000000000000000000000002000000000000000000040000000000000000000000000000000000000000000000000000000000000000000",
      "type": "0x2",
      "transactionHash": "0xc9c64b1cb2e871bae54d7dffaf06637e32f65eeb666b0364cf1be63c3cc1b802",
      "transactionIndex": "0x0",
      "blockHash": "0x55a0e83dde8f4beeac18b6e274a4d901b8c414bdd35179af786d8a1d1d1854f7",
      "blockNumber": "0x19",
      "gasUsed": "0x8ac0",
      "effectiveGasPrice": "0x2918f3b",
      "blobGasPrice": "0x1",
      "from": "0xf39fd6e51aad88f6f4ce6ab8827279cfffb92266",
      "to": "0xcf7ed3acca5a467e9e704c703e8d87f634fb0fc9",
      "contractAddress": null
    },
    {
      "status": "0x1",
      "cumulativeGasUsed": "0x8ac0",
      "logs": [
        {
          "address": "0xcf7ed3acca5a467e9e704c703e8d87f634fb0fc9",
          "topics": [
            "0xb61cc7383c4aeab2faaae0ac5c8c79434fe547fcd8ab0496f2381970de190a7e",
            "0x0000000000000000000000000000000000000000000000000000000000000001",
            "0x000000000000000000000000f39fd6e51aad88f6f4ce6ab8827279cfffb92266"
          ],
          "data": "0x00000000000000000000000000000000000000000000000000000000000000010000000000000000000000000000000000000000000000000000000000000046",
          "blockHash": "0x133ad6e3371e40e2d68b5c7fabde434965849d3b71eeca4e8b3026c5d0da7497",
          "blockNumber": "0x1a",
          "blockTimestamp": "0x69b13bb8",
          "transactionHash": "0x6a46db2e9680cfbb17508aa0534cd6529960a51b0bd2495c91f8c4b60d307aa7",
          "transactionIndex": "0x0",
          "logIndex": "0x0",
          "removed": false
        }
      ],
      "logsBloom": "0x00000000000000000000000000000000000000000000000000000000000000000000000000000000000000000000080000000000000000000000000000040001000000010000000000000000000000000000000000040000000000040000000000000000000000000000000100000000000000000000000000000000000000000000000008000000000000000000000000000000000000000000000000000000000000000000000000000000000000000000000000000000002000000000000000000000000000200000000000000000000000002000000000000000000040000000000000000000000000000000000000000000000000000000000000000000",
      "type": "0x2",
      "transactionHash": "0x6a46db2e9680cfbb17508aa0534cd6529960a51b0bd2495c91f8c4b60d307aa7",
      "transactionIndex": "0x0",
      "blockHash": "0x133ad6e3371e40e2d68b5c7fabde434965849d3b71eeca4e8b3026c5d0da7497",
      "blockNumber": "0x1a",
      "gasUsed": "0x8ac0",
      "effectiveGasPrice": "0x23f8f28",
      "blobGasPrice": "0x1",
      "from": "0xf39fd6e51aad88f6f4ce6ab8827279cfffb92266",
      "to": "0xcf7ed3acca5a467e9e704c703e8d87f634fb0fc9",
      "contractAddress": null
    },
    {
      "status": "0x1",
      "cumulativeGasUsed": "0x8ac0",
      "logs": [
        {
          "address": "0xcf7ed3acca5a467e9e704c703e8d87f634fb0fc9",
          "topics": [
            "0xb61cc7383c4aeab2faaae0ac5c8c79434fe547fcd8ab0496f2381970de190a7e",
            "0x0000000000000000000000000000000000000000000000000000000000000001",
            "0x000000000000000000000000f39fd6e51aad88f6f4ce6ab8827279cfffb92266"
          ],
          "data": "0x00000000000000000000000000000000000000000000000000000000000000010000000000000000000000000000000000000000000000000000000000000048",
          "blockHash": "0x81bda295b0925fd4fc951a183d5bb4d7a0080fb5f181c65a6edf3b644f45da41",
          "blockNumber": "0x1b",
          "blockTimestamp": "0x69b13bb8",
          "transactionHash": "0x7a839fa8edc69dc8fe5bb940adb736a61dfed854e72ee788790dd33cf31ad50d",
          "transactionIndex": "0x0",
          "logIndex": "0x0",
          "removed": false
        }
      ],
      "logsBloom": "0x00000000000000000000000000000000000000000000000000000000000000000000000000000000000000000000080000000000000000000000000000040001000000010000000000000000000000000000000000040000000000040000000000000000000000000000000100000000000000000000000000000000000000000000000008000000000000000000000000000000000000000000000000000000000000000000000000000000000000000000000000000000002000000000000000000000000000200000000000000000000000002000000000000000000040000000000000000000000000000000000000000000000000000000000000000000",
      "type": "0x2",
      "transactionHash": "0x7a839fa8edc69dc8fe5bb940adb736a61dfed854e72ee788790dd33cf31ad50d",
      "transactionIndex": "0x0",
      "blockHash": "0x81bda295b0925fd4fc951a183d5bb4d7a0080fb5f181c65a6edf3b644f45da41",
      "blockNumber": "0x1b",
      "gasUsed": "0x8ac0",
      "effectiveGasPrice": "0x1f7c8e1",
      "blobGasPrice": "0x1",
      "from": "0xf39fd6e51aad88f6f4ce6ab8827279cfffb92266",
      "to": "0xcf7ed3acca5a467e9e704c703e8d87f634fb0fc9",
      "contractAddress": null
    },
    {
      "status": "0x1",
      "cumulativeGasUsed": "0x8ac0",
      "logs": [
        {
          "address": "0xcf7ed3acca5a467e9e704c703e8d87f634fb0fc9",
          "topics": [
            "0xb61cc7383c4aeab2faaae0ac5c8c79434fe547fcd8ab0496f2381970de190a7e",
            "0x0000000000000000000000000000000000000000000000000000000000000001",
            "0x000000000000000000000000f39fd6e51aad88f6f4ce6ab8827279cfffb92266"
          ],
          "data": "0x0000000000000000000000000000000000000000000000000000000000000001000000000000000000000000000000000000000000000000000000000000004a",
          "blockHash": "0xd2c481caa1bc7972fa35c2ef2520284f7dd8df1b923c76d98b297092ceae846e",
          "blockNumber": "0x1c",
          "blockTimestamp": "0x69b13bb8",
          "transactionHash": "0x81906c91822bca758326d8ebafcda09542f9703dd6b731d05e0b511984c2bd66",
          "transactionIndex": "0x0",
          "logIndex": "0x0",
          "removed": false
        }
      ],
      "logsBloom": "0x00000000000000000000000000000000000000000000000000000000000000000000000000000000000000000000080000000000000000000000000000040001000000010000000000000000000000000000000000040000000000040000000000000000000000000000000100000000000000000000000000000000000000000000000008000000000000000000000000000000000000000000000000000000000000000000000000000000000000000000000000000000002000000000000000000000000000200000000000000000000000002000000000000000000040000000000000000000000000000000000000000000000000000000000000000000",
      "type": "0x2",
      "transactionHash": "0x81906c91822bca758326d8ebafcda09542f9703dd6b731d05e0b511984c2bd66",
      "transactionIndex": "0x0",
      "blockHash": "0xd2c481caa1bc7972fa35c2ef2520284f7dd8df1b923c76d98b297092ceae846e",
      "blockNumber": "0x1c",
      "gasUsed": "0x8ac0",
      "effectiveGasPrice": "0x1b8f5f2",
      "blobGasPrice": "0x1",
      "from": "0xf39fd6e51aad88f6f4ce6ab8827279cfffb92266",
      "to": "0xcf7ed3acca5a467e9e704c703e8d87f634fb0fc9",
      "contractAddress": null
    },
    {
      "status": "0x1",
      "cumulativeGasUsed": "0x8ac0",
      "logs": [
        {
          "address": "0xcf7ed3acca5a467e9e704c703e8d87f634fb0fc9",
          "topics": [
            "0xb61cc7383c4aeab2faaae0ac5c8c79434fe547fcd8ab0496f2381970de190a7e",
            "0x0000000000000000000000000000000000000000000000000000000000000001",
            "0x000000000000000000000000f39fd6e51aad88f6f4ce6ab8827279cfffb92266"
          ],
          "data": "0x0000000000000000000000000000000000000000000000000000000000000001000000000000000000000000000000000000000000000000000000000000004c",
          "blockHash": "0x069e9a3a0735a8b93ee537a65526e820ecd820fe7a2ce7ab95ca25eca9092d93",
          "blockNumber": "0x1d",
          "blockTimestamp": "0x69b13bb8",
          "transactionHash": "0x996a5768131af8fa72be1c49dad03dfa7b943a10483427c8f1794bda0e8db402",
          "transactionIndex": "0x0",
          "logIndex": "0x0",
          "removed": false
        }
      ],
      "logsBloom": "0x00000000000000000000000000000000000000000000000000000000000000000000000000000000000000000000080000000000000000000000000000040001000000010000000000000000000000000000000000040000000000040000000000000000000000000000000100000000000000000000000000000000000000000000000008000000000000000000000000000000000000000000000000000000000000000000000000000000000000000000000000000000002000000000000000000000000000200000000000000000000000002000000000000000000040000000000000000000000000000000000000000000000000000000000000000000",
      "type": "0x2",
      "transactionHash": "0x996a5768131af8fa72be1c49dad03dfa7b943a10483427c8f1794bda0e8db402",
      "transactionIndex": "0x0",
      "blockHash": "0x069e9a3a0735a8b93ee537a65526e820ecd820fe7a2ce7ab95ca25eca9092d93",
      "blockNumber": "0x1d",
      "gasUsed": "0x8ac0",
      "effectiveGasPrice": "0x181f89e",
      "blobGasPrice": "0x1",
      "from": "0xf39fd6e51aad88f6f4ce6ab8827279cfffb92266",
      "to": "0xcf7ed3acca5a467e9e704c703e8d87f634fb0fc9",
      "contractAddress": null
    },
    {
      "status": "0x1",
      "cumulativeGasUsed": "0x10a50",
      "logs": [
        {
          "address": "0xa51c1fc2f0d1a1b8494ed1fe312d7c3a78ed91c0",
          "topics": [
            "0xddf252ad1be2c89b69c2b068fc378daa952ba7f163c4a11628f55a4df523b3ef",
            "0x0000000000000000000000000000000000000000000000000000000000000000",
            "0x000000000000000000000000d003e751c3711e7d308a91784502b0f2c7f31feb"
          ],
          "data": "0x00000000000000000000000000000000000000000000021e19e0c9bab2400000",
          "blockHash": "0x4362d2512b278cdae07175d14b26d426a082a8eb5bb50f28bb5d31d8c8edd79d",
          "blockNumber": "0x1e",
          "blockTimestamp": "0x69b13bb8",
          "transactionHash": "0x608faf26bb21111418715b74ab4395e0916f517200fa3968db6e92c325deda3b",
          "transactionIndex": "0x0",
          "logIndex": "0x0",
          "removed": false
        }
      ],
      "logsBloom": "0x00000000000000000000000000000000000000000000000000000000000000000000000000000000000000000000000000000000000000000000000000000000000000000000000000000008000000000000000000100000000000000000000000000000020000000000000000000800000000000000000000000010000000000000000000000000000000000000000000000000000400000000000000000000000000000000000000000800000000000000000000000000000000000000000000000002000000000000000000000100000000000000000000000000000020000000000000000000000000000002000000000000000000000000400000000000",
      "type": "0x2",
      "transactionHash": "0x608faf26bb21111418715b74ab4395e0916f517200fa3968db6e92c325deda3b",
      "transactionIndex": "0x0",
      "blockHash": "0x4362d2512b278cdae07175d14b26d426a082a8eb5bb50f28bb5d31d8c8edd79d",
      "blockNumber": "0x1e",
      "gasUsed": "0x10a50",
      "effectiveGasPrice": "0x151d6ca",
      "blobGasPrice": "0x1",
      "from": "0xf39fd6e51aad88f6f4ce6ab8827279cfffb92266",
      "to": "0xa51c1fc2f0d1a1b8494ed1fe312d7c3a78ed91c0",
      "contractAddress": null
    }
  ],
  "libraries": [],
  "pending": [],
  "returns": {},
  "timestamp": 1773222840377,
  "chain": 31337,
  "commit": "3b120a8"
}