{
  "transactions": [
    {
      "hash": "0xc239faeaf273e62f167610740ca2b19b9394861b137e53d0a225524d0196b993",
      "transactionType": "CREATE",
      "contractName": "IrisDelegationManager",
      "contractAddress": "0x5fbdb2315678afecb367f032d93f642f64180aa3",
      "function": null,
      "arguments": null,
      "transaction": {
        "from": "0xf39fd6e51aad88f6f4ce6ab8827279cfffb92266",
        "gas": "0x1849e9",
        "value": "0x0",
        "input": "0x6101606040523461016157604051610018604082610165565b6015815260208101907f4972697344656c65676174696f6e4d616e616765720000000000000000000000825260405191610053604084610165565b600183526020830191603160f81b835261006c8161019c565b6101205261007984610332565b61014052519020918260e05251902080610100524660a0526040519060208201927f8b73c3c69bb8fe3d512ecc4cf759cc79239f7b179b0ffacaa9a75d522b39400f8452604083015260608201524660808201523060a082015260a081526100e260c082610165565b5190206080523060c05260017f9b779b17422d0df92223018b32b4d1fa46e071723d6817e2486d003becc55f0055604051611478908161046b823960805181610f55015260a05181611012015260c05181610f1f015260e05181610fa401526101005181610fca015261012051816107d7015261014051816108000152f35b5f80fd5b601f909101601f19168101906001600160401b0382119082101761018857604052565b634e487b7160e01b5f52604160045260245ffd5b908151602081105f14610216575090601f8151116101d65760208151910151602082106101c7571790565b5f198260200360031b1b161790565b604460209160405192839163305a27a960e01b83528160048401528051918291826024860152018484015e5f828201840152601f01601f19168101030190fd5b6001600160401b038111610188575f54600181811c91168015610328575b602082101461031457601f81116102e2575b50602092601f821160011461028357928192935f92610278575b50508160011b915f199060031b1c1916175f5560ff90565b015190505f80610260565b601f198216935f8052805f20915f5b8681106102ca57508360019596106102b2575b505050811b015f5560ff90565b01515f1960f88460031b161c191690555f80806102a5565b91926020600181928685015181550194019201610292565b5f8052601f60205f20910160051c810190601f830160051c015b8181106103095750610246565b5f81556001016102fc565b634e487b7160e01b5f52602260045260245ffd5b90607f1690610234565b908151602081105f1461035d575090601f8151116101d65760208151910151602082106101c7571790565b6001600160401b03811161018857600154600181811c91168015610460575b602082101461031457601f811161042d575b50602092601f82116001146103cc57928192935f926103c1575b50508160011b915f199060031b1c19161760015560ff90565b015190505f806103a8565b601f1982169360015f52805f20915f5b86811061041557508360019596106103fd575b505050811b0160015560ff90565b01515f1960f88460031b161c191690555f80806103ef565b919260206001819286850151815501940192016103dc565b60015f52601f60205f20910160051c810190601f830160051c015b818110610455575061038e565b5f8155600101610448565b90607f169061037c56fe60806040526004361015610011575f80fd5b5f5f3560e01c8063105af01214610990578063232acf5e14610961578063236cdc91146108e65780634bdf9344146108b757806384b0196e146107bf578063c66f577514610785578063c791184b146100dd578063e7a324dc146100a25763f698da251461007d575f80fd5b3461009f578060031936011261009f576020610097610f1c565b604051908152f35b80fd5b503461009f578060031936011261009f5760206040517f0d2de0a6d267694955ea1dcb240511c0c2bfd2a830b209bd10c8b0c8ae37cee98152f35b50346105805760403660031901126105805760043567ffffffffffffffff811161058057366023820112156105805767ffffffffffffffff81600401351161058057366024826004013560051b830101116105805760243567ffffffffffffffff81116105805780600401606060031983360301126105805760027f9b779b17422d0df92223018b32b4d1fa46e071723d6817e2486d003becc55f0054146107765760027f9b779b17422d0df92223018b32b4d1fa46e071723d6817e2486d003becc55f00558260040135156107675760048301355f1981019081119290919083610739576101dc6101d784876004013560248901610d7a565b610aec565b935f80604051602081019063ea4d3c9b60e01b825260048152610200602482610a36565b5190885afa61020d610dbc565b9015801561075c575b61074d5780516001600160a01b039161023791810160209081019101610deb565b16300361074d5761024b8660040135610a84565b935f908760040135805b61067e5750505050602485013560e21936879003018112156105805761027f908601604401610aec565b336001600160a01b039091160361066f575f5b8560040135811061059357505f806102a984610aec565b61030f6102b96044860187610b00565b604051635b0e93fb60e11b602082019081526001600160a01b039095166024808301919091528801356044820152606060648201529291839161030191608484019190610d9c565b03601f198101835282610a36565b519082885af161031d610dbc565b5015610584578460040135805b6103b15786856103598661033d81610b85565b518452600360205260408420805460ff19166001179055610b85565b5133916001600160a01b0316907f021c7c160a94ec8a04c191a1ccaa4ff1fb3c5b6ca6f712cfe724d496cc0b1e3a8480a460017f9b779b17422d0df92223018b32b4d1fa46e071723d6817e2486d003becc55f005580f35b5f1901806103d46103ca8260048a013560248b01610d7a565b6060810190610a00565b906103df8388610b92565b51908a5b8381106103f3575050505061032a565b92935090918a156104cd578a6001600160a01b036104156101d7848887610ab6565b1661042e610424848887610ab6565b6020810190610b00565b90916104398b610aec565b9061044760448c018d610b00565b92823b156104c9578f956104858b958f92946024958b99958a966040519c8d9b8c9a8b99631c66287b60e11b8b520135943393309160048c01610ea7565b03925af180156104be576104a5575b50506001905b0190849392916103e3565b816104af91610a36565b6104ba578a5f610494565b8a80fd5b6040513d84823e3d90fd5b8680fd5b6001600160a01b036104e36101d7838786610ab6565b166104f2610424838786610ab6565b906104fc8a610aec565b9261050a60448b018c610b00565b92823b15610580578b8f968a956024945f9894610547938a966040519c8d9b8c9a8b996316e2144760e31b8b520135943393309160048c01610ea7565b03925af180156105755761055f575b5060019061049a565b61056c919b505f90610a36565b5f996001610556565b6040513d5f823e3d90fd5b5f80fd5b632b3f6d1160e21b5f5260045ffd5b6105a86103ca82886004013560248a01610d7a565b906105b38387610b92565b51905f5b8381106105ca5750505050600101610292565b6001600160a01b036105e06101d7838786610ab6565b16906105f0610424828786610ab6565b906105fa8a610aec565b9361060860448b018c610b00565b92823b15610580578b8f978a956024945f9894610645938a966040519d8e9b8c9a8b99631c66287b60e11b8b520135943393309160048c01610ea7565b03925af19182156105755760019261065f575b50016105b7565b5f61066991610a36565b5f610658565b630cbecb4d60e21b5f5260045ffd5b5f19019183906106968460048c013560248d01610d7a565b916107395783830361070c57506001600160a01b036106b760408301610aec565b1661066f575b6106c681610ba6565b90815f52600260205260ff60405f2054166106f957906106e781859361122b565b806106f2838a610b92565b5292610255565b50630eb361a760e11b5f5260045260245ffd5b61071860408301610aec565b6001600160a01b039081169116146106bd57630cbecb4d60e21b5f5260045ffd5b634e487b7160e01b5f52601160045260245ffd5b63bd6d5f5760e01b5f5260045ffd5b506020815110610216565b63081d4e5160e11b5f5260045ffd5b633ee5aeb560e01b5f5260045ffd5b34610580575f3660031901126105805760206040517f80ad7e1b04ee6d994a125f4714ca0720908bd80ed16063ec8aee4b88e9253e2d8152f35b34610580575f3660031901126105805761085b6107fb7f0000000000000000000000000000000000000000000000000000000000000000611038565b6108247f000000000000000000000000000000000000000000000000000000000000000061115b565b6020610869604051926108378385610a36565b5f84525f368137604051958695600f60f81b875260e08588015260e08701906109dc565b9085820360408701526109dc565b4660608501523060808501525f60a085015283810360c08501528180845192838152019301915f5b8281106108a057505050500390f35b835185528695509381019392810192600101610891565b34610580576020366003190112610580576004355f526003602052602060ff60405f2054166040519015158152f35b34610580576108f4366109a8565b6108fd81610ba6565b9061090f61090a82610aec565b610e0a565b5f828152600260205260409020805460ff191660011790556001600160a01b039061093990610aec565b16907f85447bad2d347065c177bd751ff821e559edced77491fe96ca82c6e3de7caedc5f80a3005b34610580576020366003190112610580576004355f526002602052602060ff60405f2054166040519015158152f35b346105805760206100976109a3366109a8565b610ba6565b6020600319820112610580576004359067ffffffffffffffff82116105805760c09082900360031901126105805760040190565b805180835260209291819084018484015e5f828201840152601f01601f1916010190565b903590601e1981360301821215610580570180359067ffffffffffffffff821161058057602001918160051b3603831361058057565b90601f8019910116810190811067ffffffffffffffff821117610a5857604052565b634e487b7160e01b5f52604160045260245ffd5b67ffffffffffffffff8111610a585760051b60200190565b90610a8e82610a6c565b610a9b6040519182610a36565b8281528092610aac601f1991610a6c565b0190602036910137565b9190811015610ad85760051b81013590603e1981360301821215610580570190565b634e487b7160e01b5f52603260045260245ffd5b356001600160a01b03811681036105805790565b903590601e1981360301821215610580570180359067ffffffffffffffff82116105805760200191813603831361058057565b67ffffffffffffffff8111610a5857601f01601f191660200190565b929192610b5b82610b33565b91610b696040519384610a36565b829481845281830111610580578281602093845f960137010152565b805115610ad85760200190565b8051821015610ad85760209160051b010190565b906060820191610bc0610bb98483610a00565b9050610a84565b925f5b610bcd8284610a00565b9050811015610c725780610bf06101d7600193610bea8688610a00565b90610ab6565b610c0b610c0461042484610bea888a610a00565b3691610b4f565b602081519101206040519060208201927f80ad7e1b04ee6d994a125f4714ca0720908bd80ed16063ec8aee4b88e9253e2d8452858060a01b03166040830152606082015260608152610c5e608082610a36565b519020610c6b8288610b92565b5201610bc3565b5050610c7d81610aec565b90610c8a60208201610aec565b90610c9760408201610aec565b60405160208101908160208951919901905f5b818110610d64575050509081610cd060809594936042999a03601f198101835282610a36565b519020604080517f0d2de0a6d267694955ea1dcb240511c0c2bfd2a830b209bd10c8b0c8ae37cee9602082019081526001600160a01b03988916928201929092529587166060870152959091168385015260a0840152013560c0808301919091528152610d3e60e082610a36565b519020610d49610f1c565b906040519161190160f01b8352600283015260228201522090565b82518b5260209a8b019a90920191600101610caa565b9190811015610ad85760051b8101359060be1981360301821215610580570190565b908060209392818452848401375f828201840152601f01601f1916010190565b3d15610de6573d90610dcd82610b33565b91610ddb6040519384610a36565b82523d5f602084013e565b606090565b9081602091031261058057516001600160a01b03811681036105805790565b336001600160a01b03821614610ea457803b610e30575b6356a3265160e11b5f5260045ffd5b5f80916040516020810190638da5cb5b60e01b825260048152610e54602482610a36565b51915afa610e60610dbc565b9080610e98575b15610e215780516001600160a01b0391610e8991810160209081019101610deb565b163314610e965780610e21565b565b50602081511015610e67565b50565b94966101009496602098610ecd610f199d9b948b97966101208b526101208b0191610d9c565b888103878a018190525f82526001600160a01b0396871660408b015260608a019a909a52908516608089015290841660a0880152921660c086015260e085015293019101520191610d9c565b90565b307f00000000000000000000000000000000000000000000000000000000000000006001600160a01b0316148061100f575b15610f77577f000000000000000000000000000000000000000000000000000000000000000090565b60405160208101907f8b73c3c69bb8fe3d512ecc4cf759cc79239f7b179b0ffacaa9a75d522b39400f82527f000000000000000000000000000000000000000000000000000000000000000060408201527f000000000000000000000000000000000000000000000000000000000000000060608201524660808201523060a082015260a0815261100960c082610a36565b51902090565b507f00000000000000000000000000000000000000000000000000000000000000004614610f4e565b60ff811461107e5760ff811690601f821161106f576040519161105c604084610a36565b6020808452838101919036833783525290565b632cd44ac360e21b5f5260045ffd5b506040515f5f548060011c9160018216918215611151575b60208410831461113d57838552849290811561111e57506001146110c1575b610f1992500382610a36565b505f80805290917f290decd9548b62a8d60345a988386fc84ba6bc95484008f6362f93160ef3e5635b818310611102575050906020610f19928201016110b5565b60209193508060019154838588010152019101909183926110ea565b60209250610f1994915060ff191682840152151560051b8201016110b5565b634e487b7160e01b5f52602260045260245ffd5b92607f1692611096565b60ff811461117f5760ff811690601f821161106f576040519161105c604084610a36565b506040515f6001548060011c9160018216918215611221575b60208410831461113d57838552849290811561111e57506001146111c257610f1992500382610a36565b5060015f90815290917fb10e2d527612073b26eecdfd717e6a320cf44b4afac2b0732d9fcbe2b7fa0cf65b818310611205575050906020610f19928201016110b5565b60209193508060019154838588010152019101909183926111ed565b92607f1692611198565b61124861125192611242610c0460a0850185610b00565b90611312565b9093919361134c565b6001600160a01b0361126282610aec565b6001600160a01b039093169216821461130e5761127e81610aec565b3b611293575b638baa579f60e01b5f5260045ffd5b5f61129e8192610aec565b604051638da5cb5b60e01b6020820190815260048252906112c0602482610a36565b51915afa6112cc610dbc565b9080611302575b156112845780516001600160a01b03916112f591810160209081019101610deb565b1614610e96578080611284565b506020815110156112d3565b5050565b81519190604183036113425761133b9250602082015190606060408401519301515f1a906113c0565b9192909190565b50505f9160029190565b60048110156113ac578061135e575050565b600181036113755763f645eedf60e01b5f5260045ffd5b60028103611390575063fce698f760e01b5f5260045260245ffd5b60031461139a5750565b6335e2f38360e21b5f5260045260245ffd5b634e487b7160e01b5f52602160045260245ffd5b91907f7fffffffffffffffffffffffffffffff5d576e7357a4501ddfe92f46681b20a08411611437579160209360809260ff5f9560405194855216868401526040830152606082015282805260015afa15610575575f516001600160a01b0381161561142d57905f905f90565b505f906001905f90565b5050505f916003919056fea2646970667358221220b21ff0f9110c749d0ea1f820fafbc5a2f4412cfe337baa2bdc411646cdf0ea5864736f6c634300081c0033",
        "nonce": "0x0",
        "chainId": "0x7a69"
      },
      "additionalContracts": [],
      "isFixedGasLimit": false
    },
    {
      "hash": "0x444cc6c6fe29561c7e9bddcbf1508f96701e677f63c793bc210c0574e26db7e2",
      "transactionType": "CREATE",
      "contractName": "IrisAccountFactory",
      "contractAddress": "0xe7f1725e7734ce288f8367e1bb143e90bb3f0512",
      "function": null,
      "arguments": null,
      "transaction": {
        "from": "0xf39fd6e51aad88f6f4ce6ab8827279cfffb92266",
        "gas": "0xf514a",
        "value": "0x0",
        "input": "0x60808060405234601557610d00908161001a8239f35b5f80fdfe60806040526004361015610011575f80fd5b5f3560e01c806308a6354e1461005e57631230aea21461002f575f80fd5b3461005a57602061004861004236610077565b91610145565b6040516001600160a01b039091168152f35b5f80fd5b3461005a57602061004861007136610077565b916100e7565b606090600319011261005a576004356001600160a01b038116810361005a57906024356001600160a01b038116810361005a579060443590565b90601f8019910116810190811067ffffffffffffffff8211176100d357604052565b634e487b7160e01b5f52604160045260245ffd5b91906100f76100fd9282856101f5565b92610258565b6020815191012060405190602082019260ff60f81b84523060601b602184015260358301526055820152605581526101366075826100b1565b5190206001600160a01b031690565b9291906101686101568383876101f5565b926101618387610258565b92866100e7565b803b6101ef57506020815191015ff5916001600160a01b0383169081156101b9576001600160a01b0316907fac631f3001b55ea1509cf3d7e74898f85392a61a76e8149181ae1259622dabc85f80a3565b60405162461bcd60e51b815260206004820152600e60248201526d10d4915055114c8819985a5b195960921b6044820152606490fd5b93505050565b916040519160208301936bffffffffffffffffffffffff199060601b1684526bffffffffffffffffffffffff199060601b1660348301526048820152604881526102406068826100b1565b51902090565b805191908290602001825e015f815290565b6040516102bc926102d0926102c2916109f761027760208201866100b1565b8085526102d46020860139604080516001600160a01b03938416602082015291909216818301529081526102ac6060826100b1565b6040519485936020850190610246565b90610246565b03601f1981018352826100b1565b9056fe608034608557601f6109f738819003918201601f19168301916001600160401b038311848410176089578084926040948552833981010312608557604b6020604583609d565b9201609d565b5f80546001600160a01b039384166001600160a01b0319918216179091556001805492909316911617905560405161094690816100b18239f35b5f80fd5b634e487b7160e01b5f52604160045260245ffd5b51906001600160a01b038216820360855756fe608080604052600436101561001c575b50361561001a575f80fd5b005b5f3560e01c90816303c46f56146105945750806319822f7c146105445780631a8d0de2146104d2578063232acf5e146104a357806347e1da2a1461026f5780638da5cb5b1461024857806394430fa51461021e578063b61d27f614610134578063b96f2b07146100c25763ea4d3c9b14610096575f61000f565b346100be575f3660031901126100be576001546040516001600160a01b039091168152602090f35b5f80fd5b346100be5760203660031901126100be575f54600435906001600160a01b0316330361012557805f52600260205260405f20600160ff198254161790557f6eb24ce38eb0f7d1e3b4291d5543c7286f02be3daed061b0f7eb6491213deb215f80a2005b635fc483c560e01b5f5260045ffd5b346100be5760603660031901126100be5761014d6105be565b60443567ffffffffffffffff81116100be57366023820112156100be5780600401359167ffffffffffffffff83116100be5736602484840101116100be575f546001600160a01b031633141580610209575b6101fa5760245f939283859460405193849301833781018481520391602435905af16101c96106b2565b90156101eb576101e790604051918291602083526020830190610605565b0390f35b632b3f6d1160e21b5f5260045ffd5b630d4a63a160e41b5f5260045ffd5b506001546001600160a01b031633141561019f565b346100be575f3660031901126100be5760206040516f71727de22e5e9d8baf0edac6f37da0328152f35b346100be575f3660031901126100be575f546040516001600160a01b039091168152602090f35b346100be5760603660031901126100be5760043567ffffffffffffffff81116100be576102a09036906004016105d4565b9060243567ffffffffffffffff81116100be576102c19036906004016105d4565b9060443567ffffffffffffffff81116100be576102e29036906004016105d4565b909260018060a01b035f54163314158061048e575b6101fa5780861480610485575b1561044e5761031c6103178796976107ad565b61065c565b85815294601f1961032c826107ad565b015f5b81811061043b5750505f5b8181106103a857866040518091602082016020835281518091526040830190602060408260051b8601019301915f905b82821061037957505050500390f35b919360019193955060206103988192603f198a82030186528851610605565b960192019201859493919261036a565b6103b381838a6107c5565b356001600160a01b03811681036100be576103cf8285886107c5565b359085831015610427575f80918460051b936103ed858c018c610629565b9190826040519384928337810185815203925af19061040a6106b2565b90895184101561042757890160200152156101eb5760010161033a565b634e487b7160e01b5f52603260045260245ffd5b60606020828a018101919091520161032f565b60405162461bcd60e51b815260206004820152600f60248201526e098cadccee8d040dad2e6dac2e8c6d608b1b6044820152606490fd5b50818114610304565b506001546001600160a01b03163314156102f7565b346100be5760203660031901126100be576004355f526002602052602060ff60405f2054166040519015158152f35b346100be5760203660031901126100be576104eb6105be565b5f546001600160a01b0316330361012557600180546001600160a01b039283166001600160a01b0319821681179092559091167f4b0f7a6a0118692cc6700b7182c62e33c0aef7d314470553683f6f1d61b9e0de5f80a3005b346100be5760603660031901126100be5760043567ffffffffffffffff81116100be5761012060031982360301126100be5761058c60209160443590602435906004016106d7565b604051908152f35b346100be5760203660031901126100be576020906004355f526002825260ff60405f205416158152f35b600435906001600160a01b03821682036100be57565b9181601f840112156100be5782359167ffffffffffffffff83116100be576020808501948460051b0101116100be57565b805180835260209291819084018484015e5f828201840152601f01601f1916010190565b903590601e19813603018212156100be570180359067ffffffffffffffff82116100be576020019181360383136100be57565b6040519190601f01601f1916820167ffffffffffffffff81118382101761068257604052565b634e487b7160e01b5f52604160045260245ffd5b67ffffffffffffffff811161068257601f01601f191660200190565b3d156106d2573d906106c661031783610696565b9182523d5f602084013e565b606090565b906f71727de22e5e9d8baf0edac6f37da032330361079e577f19457468657265756d205369676e6564204d6573736167653a0a3332000000005f52601c52610728603c5f2091610100810190610629565b9161073561031784610696565b9083825236848401116100be575f6020856107649661075b9683870137840101526107d5565b9092919261080f565b5f546001600160a01b03908116911603610798578061078257505f90565b5f80808093335af1506107936106b2565b505f90565b50600190565b63bd07c55160e01b5f5260045ffd5b67ffffffffffffffff81116106825760051b60200190565b91908110156104275760051b0190565b8151919060418303610805576107fe9250602082015190606060408401519301515f1a90610883565b9192909190565b50505f9160029190565b600481101561086f5780610821575050565b600181036108385763f645eedf60e01b5f5260045ffd5b60028103610853575063fce698f760e01b5f5260045260245ffd5b60031461085d5750565b6335e2f38360e21b5f5260045260245ffd5b634e487b7160e01b5f52602160045260245ffd5b91907f7fffffffffffffffffffffffffffffff5d576e7357a4501ddfe92f46681b20a08411610905579160209360809260ff5f9560405194855216868401526040830152606082015282805260015afa156108fa575f516001600160a01b038116156108f057905f905f90565b505f906001905f90565b6040513d5f823e3d90fd5b5050505f916003919056fea26469706673582212207b766db1621a40041f3d69d653a05dc5778cba3455464d795bad5cb3ae5661c864736f6c634300081c0033a264697066735822122015813190d2b3a6427e9495bf2e1388365f16f0a25b59f9df89c6cf58fc6ed56164736f6c634300081c0033",
        "nonce": "0x1",
        "chainId": "0x7a69"
      },
      "additionalContracts": [],
      "isFixedGasLimit": false
    },
    {
      "hash": "0x12a9314f88c5295913c48cde68ba4ff209fc9c861650a3a5e733a36b5ec14f7a",
      "transactionType": "CREATE",
      "contractName": "IrisAgentRegistry",
      "contractAddress": "0x9fe46736679d2d9a65f0992f2272de9f3c7fa6e0",
      "function": null,
      "arguments": null,
      "transaction": {
        "from": "0xf39fd6e51aad88f6f4ce6ab8827279cfffb92266",
        "gas": "0x90170",
        "value": "0x0",
        "input": "0x6080806040523460195760015f556106d7908161001e8239f35b5f80fdfe60806040526004361015610011575f80fd5b5f3560e01c806311ba6b4a1461057a5780632d2a9585146102915780632de5aaf7146100f1578063579a6988146100a357636352211e14610050575f80fd5b3461009f57602036600319011261009f576004355f818152600260205260409020546001600160a01b0316801561008c57602090604051908152f35b50630ede975960e01b5f5260045260245ffd5b5f80fd5b3461009f57602036600319011261009f576004355f526001602052602060405f2060018060a01b03815416151590816100e2575b506040519015158152f35b60ff91506002015416826100d7565b3461009f57602036600319011261009f576004355f60606040516101148161062b565b8281528160208201528260408201520152805f52600160205260405f20906040519061013f8261062b565b82546001600160a01b031682526040516001840180549194919085905f9061016684610669565b808452936001811690811561026f575060011461022b575b5061018b92500385610647565b60208301938452600360ff600283015416916040850192151583520154916060840192835260018060a01b0384511615610219575060c0929160209160405195869484865260018060a01b0390511684860152516080604086015280519384918260a0880152018686015e5f8484018601525115156060840152516080830152601f01601f19168101030190f35b630ede975960e01b5f5260045260245ffd5b90505f9291925260205f20905f915b81831061025357505090602061018b928201018761017e565b6020919350806001915483858b0101520191019091869261023a565b90506020925061018b94915060ff191682840152151560051b8201018761017e565b3461009f57602036600319011261009f5760043567ffffffffffffffff811161009f573660238201121561009f57806004013567ffffffffffffffff811161009f576024820191602482369201011161009f575f54905f19821461056657600182015f55604051906103028261062b565b338252601f19601f8201169160405161031e6020850182610647565b828152828660208301375f81840160209081018290528381019283526001604080860182815242606088019081528a8652938390529320945185546001600160a01b0319166001600160a01b03919091161785559251805191938501919067ffffffffffffffff8211610552576103958354610669565b601f811161050d575b5091602099959391899795938b90601f831160011461047457935f969383600394604098947f0d063c6022bff16d09991a9f91882ffa112f5fb2529136f65eb4c77bbd047e439c9b988b92610469575b50508160011b918a1990871b1c19161790555b600284019051151560ff80198354169116179055519101558583526002895281832060018060a01b0333166bffffffffffffffffffffffff60a01b825416179055808251948a8652818b870152838601378301015260408133958101030190a3604051908152f35b015190505f806103ee565b601f9998979695949392919919821690835f528a5f20915f5b8181106104f357508360409896937f0d063c6022bff16d09991a9f91882ffa112f5fb2529136f65eb4c77bbd047e439c9d600397945f9c9a97600195106104dc575b505050811b019055610401565b01518b1960f8848a1b161c191690555f80806104cf565b828d015184559b8f019b8e9b506001909301928f0161048d565b835f5260205f20601f840160051c81019160208510610548575b601f0160051c01905b81811061053d575061039e565b5f8155600101610530565b9091508190610527565b634e487b7160e01b5f52604160045260245ffd5b634e487b7160e01b5f52601160045260245ffd5b3461009f57602036600319011261009f576004355f81815260016020526040902080546001600160a01b0316801561061857330361060157600201805460ff8116156105ee5760ff1916905533907f8648ea00a281362b7d17874fe879e4cf49d332d95bd73b71a649f9da06db1d4c5f80a3005b8263f539a74360e01b5f5260045260245ffd5b5063335b726f60e21b5f526004523360245260445ffd5b82630ede975960e01b5f5260045260245ffd5b6080810190811067ffffffffffffffff82111761055257604052565b90601f8019910116810190811067ffffffffffffffff82111761055257604052565b90600182811c92168015610697575b602083101461068357565b634e487b7160e01b5f52602260045260245ffd5b91607f169161067856fea2646970667358221220b6327160f7943f17ae586e34d518d97f1e46bdabd865a22a5b425de0d77656a864736f6c634300081c0033",
        "nonce": "0x2",
        "chainId": "0x7a69"
      },
      "additionalContracts": [],
      "isFixedGasLimit": false
    },
    {
      "hash": "0xb2255c1b6999d10b74b800d5162b29971d2d455df6d2608c76f0d157eff58ea1",
      "transactionType": "CREATE",
      "contractName": "IrisReputationOracle",
      "contractAddress": "0xcf7ed3acca5a467e9e704c703e8d87f634fb0fc9",
      "function": null,
      "arguments": [
        "0x9fE46736679d2D9a65F0992F2272dE9f3c7fa6e0",
        "0xf39Fd6e51aad88F6F4ce6aB8827279cffFb92266"
      ],
      "transaction": {
        "from": "0xf39fd6e51aad88f6f4ce6ab8827279cfffb92266",
        "gas": "0x8c1da",
        "value": "0x0",
        "input": "0x60a0346100e657601f61079638819003918201601f19168301916001600160401b038311848410176100ea5780849260409485528339810103126100e657610046816100fe565b906001600160a01b039061005c906020016100fe565b169081156100d3575f80546001600160a01b031981168417825560405193916001600160a01b03909116907f8be0079c531659141344cd1fd0a4f28419497f9722a3daafe3b4186f6b6457e09080a36001600160a01b03166080526106839081610113823960805181818161034901526105960152f35b631e4fbdf760e01b5f525f60045260245ffd5b5f80fd5b634e487b7160e01b5f52604160045260245ffd5b51906001600160a01b03821682036100e65756fe6080806040526004361015610012575f80fd5b5f3560e01c9081630d1cfcae146105845750806314baeb181461053b5780636d1b1de014610312578063715018a6146102bb5780638da5cb5b146102945780639163d10814610127578063bd5bcb0a146101015763f2fde38b14610074575f80fd5b346100fd5760203660031901126100fd576004356001600160a01b038116908190036100fd576100a2610627565b80156100ea575f80546001600160a01b03198116831782556001600160a01b0316907f8be0079c531659141344cd1fd0a4f28419497f9722a3daafe3b4186f6b6457e09080a3005b631e4fbdf760e01b5f525f60045260245ffd5b5f80fd5b346100fd5760203660031901126100fd57602061011f6004356105fd565b604051908152f35b346100fd5760403660031901126100fd5760043560243590811515918281036100fd575f82815260036020908152604080832033845290915290205460ff161580610280575b61026957815f52600260205260ff60405f2054161561023e575b815f52600160205260405f2054905f1461020d57600281018091116101f95760648111156101f4575060645b815f5260016020528060405f205560405192835260208301527fb61cc7383c4aeab2faaae0ac5c8c79434fe547fcd8ab0496f2381970de190a7e60403393a3005b6101b3565b634e487b7160e01b5f52601160045260245ffd5b600581101561021d57505f6101b3565b6004198101908111156101b357634e487b7160e01b5f52601160045260245ffd5b815f526001602052603260405f2055815f52600260205260405f20600160ff19825416179055610187565b5063e7b2092960e01b5f526004523360245260445ffd5b505f546001600160a01b031633141561016d565b346100fd575f3660031901126100fd575f546040516001600160a01b039091168152602090f35b346100fd575f3660031901126100fd576102d3610627565b5f80546001600160a01b0319811682556001600160a01b03167f8be0079c531659141344cd1fd0a4f28419497f9722a3daafe3b4186f6b6457e08280a3005b346100fd5760403660031901126100fd5760043561032e6105c5565b604051632de5aaf760e01b8152600481018390525f816024817f00000000000000000000000000000000000000000000000000000000000000006001600160a01b03165afa908115610530575f9161041d575b50516001600160a01b031633141580610409575b6103f2575f8281526003602090815260408083206001600160a01b0394909416808452939091528120805460ff191660011790559091907f8fcd9f5c27415bf85b1f568fbe33a98aaebd94a2f721378109a4a48142f1e3fb9080a3005b506308c10d0360e01b5f526004523360245260445ffd5b505f546001600160a01b0316331415610395565b90503d805f833e61042e81836105db565b8101906020818303126100fd5780519067ffffffffffffffff82116100fd57016080818303126100fd57604051916080830183811067ffffffffffffffff82111761051c5760405281516001600160a01b03811681036100fd578352602082015167ffffffffffffffff81116100fd57820181601f820112156100fd5780519067ffffffffffffffff821161051c57604051926104d5601f8401601f1916602001856105db565b828452602083830101116100fd57815f9260208093018386015e83010152602083015260408101519081151582036100fd5760609160408401520151606082015283610381565b634e487b7160e01b5f52604160045260245ffd5b6040513d5f823e3d90fd5b346100fd5760403660031901126100fd576105546105c5565b6004355f52600360205260405f209060018060a01b03165f52602052602060ff60405f2054166040519015158152f35b346100fd575f3660031901126100fd577f00000000000000000000000000000000000000000000000000000000000000006001600160a01b03168152602090f35b602435906001600160a01b03821682036100fd57565b90601f8019910116810190811067ffffffffffffffff82111761051c57604052565b805f52600260205260ff60405f20541615610621575f52600160205260405f205490565b50603290565b5f546001600160a01b0316330361063a57565b63118cdaa760e01b5f523360045260245ffdfea2646970667358221220c8dbf70a602f331ebff2c860a679990e6d6572c60253f798f499ac2efc069a0064736f6c634300081c00330000000000000000000000009fe46736679d2d9a65f0992f2272de9f3c7fa6e0000000000000000000000000f39fd6e51aad88f6f4ce6ab8827279cfffb92266",
        "nonce": "0x3",
        "chainId": "0x7a69"
      },
      "additionalContracts": [],
      "isFixedGasLimit": false
    },
    {
      "hash": "0x471c80414bef22dc0f89db9dbc8219acd8ee31f427782b58becf5d9ffde82a77",
      "transactionType": "CREATE",
      "contractName": "SpendingCapEnforcer",
      "contractAddress": "0xdc64a140aa3e981100a9beca4e685f962f0cf6c9",
      "function": null,
      "arguments": [
        "0x5FbDB2315678afecb367f032d93F642f64180aa3"
      ],
      "transaction": {
        "from": "0xf39fd6e51aad88f6f4ce6ab8827279cfffb92266",
        "gas": "0x4ca64",
        "value": "0x0",
        "input": "0x60a034606b57601f6103e438819003918201601f19168301916001600160401b03831184841017606f57808492602094604052833981010312606b57516001600160a01b0381168103606b5760805260405161036090816100848239608051818181605d015260b30152f35b5f80fd5b634e487b7160e01b5f52604160045260245ffdfe6080806040526004361015610012575f80fd5b5f3560e01c90816309308deb146101bc5750806338cc50f614610124578063b710a238146100905763ea4d3c9b14610048575f80fd5b3461008c575f36600319011261008c576040517f00000000000000000000000000000000000000000000000000000000000000006001600160a01b03168152602090f35b5f80fd5b3461008c5761009e3661021a565b50509896505050509391505060018060a01b037f000000000000000000000000000000000000000000000000000000000000000016330361011557816100e9916100f19301906102e9565b9050426102ff565b905f525f60205260405f20905f5260205261011160405f2091825461031d565b9055005b635c427cd960e01b5f5260045ffd5b3461008c5761015661014d6101383661021a565b505099979550505050949250508101906102e9565b939093426102ff565b905f525f60205260405f20905f5260205260405f20549082610178828461031d565b1161017f57005b610189908261031d565b9082039182116101a85763232b791b60e01b5f5260045260245260445ffd5b634e487b7160e01b5f52601160045260245ffd5b3461008c57604036600319011261008c576020906004355f525f825260405f206024355f52825260405f20548152f35b9181601f8401121561008c5782359167ffffffffffffffff831161008c576020838186019501011161008c57565b61012060031982011261008c5760043567ffffffffffffffff811161008c5781610246916004016101ec565b9290929160243567ffffffffffffffff811161008c5781610269916004016101ec565b909290916044356001600160a01b038116810361008c5791606435916084356001600160a01b038116810361008c579160a4356001600160a01b038116810361008c579160c4356001600160a01b038116810361008c579160e43591610104359067ffffffffffffffff821161008c576102e5916004016101ec565b9091565b919082604091031261008c576020823592013590565b8115610309570490565b634e487b7160e01b5f52601260045260245ffd5b919082018092116101a85756fea264697066735822122009d25f0ddb79dd6322f7297cf56f5dc9a74364fbb0f286a45816319351e5f60964736f6c634300081c00330000000000000000000000005fbdb2315678afecb367f032d93f642f64180aa3",
        "nonce": "0x4",
        "chainId": "0x7a69"
      },
      "additionalContracts": [],
      "isFixedGasLimit": false
    },
    {
      "hash": "0xa73e0eddf22552e0d233b1423698ce40725700d91f91daa95a8ea4a1eb5c8017",
      "transactionType": "CREATE",
      "contractName": "ContractWhitelistEnforcer",
      "contractAddress": "0x5fc8d32690cc91d4c39d9d3abcbd16989f875707",
      "function": null,
      "arguments": null,
      "transaction": {
        "from": "0xf39fd6e51aad88f6f4ce6ab8827279cfffb92266",
        "gas": "0x41c5e",
        "value": "0x0",
        "input": "0x608080604052346015576102c9908161001a8239f35b5f80fdfe60806040526004361015610011575f80fd5b5f3560e01c806338cc50f6146100435763b710a2381461002f575f80fd5b3461003f5761003d36610092565b005b5f80fd5b3461003f5761003d61005436610092565b5050509795505050505050610161565b9181601f8401121561003f5782359167ffffffffffffffff831161003f576020838186019501011161003f57565b61012060031982011261003f5760043567ffffffffffffffff811161003f57816100be91600401610064565b9290929160243567ffffffffffffffff811161003f57816100e191600401610064565b909290916044356001600160a01b038116810361003f5791606435916084356001600160a01b038116810361003f579160a4356001600160a01b038116810361003f579160c4356001600160a01b038116810361003f579160e43591610104359067ffffffffffffffff821161003f5761015d91600401610064565b9091565b9092919281019060208183031261003f5780359067ffffffffffffffff821161003f570181601f8201121561003f5780359167ffffffffffffffff831161027f578260051b9160405193601f19603f850116850185811067ffffffffffffffff82111761027f57604052845260208085019382010191821161003f57602001915b81831061025f575050508051905f5b828110610216576340d53e3360e11b5f9081526001600160a01b038616600452602490fd5b815181101561024b57600581901b8201602001516001600160a01b03868116911614610244576001016101f1565b5050509050565b634e487b7160e01b5f52603260045260245ffd5b82356001600160a01b038116810361003f578152602092830192016101e2565b634e487b7160e01b5f52604160045260245ffdfea264697066735822122076246097fef1db1520d007a8f0799bb7c44e47d8bbf7d93d1018fb00fc8b883264736f6c634300081c0033",
        "nonce": "0x5",
        "chainId": "0x7a69"
      },
      "additionalContracts": [],
      "isFixedGasLimit": false
    },
    {
      "hash": "0xb1b7afd0a400efa4913be9df03784cfb5dcf92e666754e694ab6e83fa578ee06",
      "transactionType": "CREATE",
      "contractName": "FunctionSelectorEnforcer",
      "contractAddress": "0x0165878a594ca255338adfa4d48449f69242eb8f",
      "function": null,
      "arguments": null,
      "transaction": {
        "from": "0xf39fd6e51aad88f6f4ce6ab8827279cfffb92266",
        "gas": "0x43e5a",
        "value": "0x0",
        "input": "0x608080604052346015576102e8908161001a8239f35b5f80fdfe60806040526004361015610011575f80fd5b5f3560e01c806338cc50f6146100435763b710a2381461002f575f80fd5b3461003f5761003d36610093565b005b5f80fd5b3461003f5761003d61005436610093565b9a9750989750505050505050610162565b9181601f8401121561003f5782359167ffffffffffffffff831161003f576020838186019501011161003f57565b61012060031982011261003f5760043567ffffffffffffffff811161003f57816100bf91600401610065565b9290929160243567ffffffffffffffff811161003f57816100e291600401610065565b909290916044356001600160a01b038116810361003f5791606435916084356001600160a01b038116810361003f579160a4356001600160a01b038116810361003f579160c4356001600160a01b038116810361003f579160e43591610104359067ffffffffffffffff821161003f5761015e91600401610065565b9091565b91909392600481106102a35760041161003f57356001600160e01b0319169281019060208183031261003f5780359067ffffffffffffffff821161003f570181601f8201121561003f5780359167ffffffffffffffff831161028f578260051b9160405193601f19603f850116850185811067ffffffffffffffff82111761028f57604052845260208085019382010191821161003f57602001915b81831061026e575050508051905f5b8281106102275784631d8370a360e11b5f5260045260245ffd5b815181101561025a57600581901b8201602001516001600160e01b03191685146102535760010161020d565b5050509050565b634e487b7160e01b5f52603260045260245ffd5b82356001600160e01b03198116810361003f578152602092830192016101fe565b634e487b7160e01b5f52604160045260245ffd5b6321bbd70f60e01b5f5260045ffdfea2646970667358221220039464d1682d4f0db3aea5eb3a0eaf78193ab700e55037e7fe50b4133776c24164736f6c634300081c0033",
        "nonce": "0x6",
        "chainId": "0x7a69"
      },
      "additionalContracts": [],
      "isFixedGasLimit": false
    },
    {
      "hash": "0x2cc3e1081fe871a631b94b181eadac5ef39af6b42badcc662ec724e439724314",
      "transactionType": "CREATE",
      "contractName": "TimeWindowEnforcer",
      "contractAddress": "0xa513e6e4b8f2a923d98304ec87f64353c4d5c853",
      "function": null,
      "arguments": null,
      "transaction": {
        "from": "0xf39fd6e51aad88f6f4ce6ab8827279cfffb92266",
        "gas": "0x311ae",
        "value": "0x0",
        "input": "0x608080604052346015576101d6908161001a8239f35b5f80fdfe60806040526004361015610011575f80fd5b5f3560e01c806338cc50f6146100435763b710a2381461002f575f80fd5b3461003f5761003d366100d1565b005b5f80fd5b3461003f576040610053366100d1565b50505050505050505050908092918101031261003f576020813591013590804210801561009a575b61008157005b63d4314d0560e01b5f524260045260245260445260645ffd5b5081421161007b565b9181601f8401121561003f5782359167ffffffffffffffff831161003f576020838186019501011161003f57565b61012060031982011261003f5760043567ffffffffffffffff811161003f57816100fd916004016100a3565b9290929160243567ffffffffffffffff811161003f5781610120916004016100a3565b909290916044356001600160a01b038116810361003f5791606435916084356001600160a01b038116810361003f579160a4356001600160a01b038116810361003f579160c4356001600160a01b038116810361003f579160e43591610104359067ffffffffffffffff821161003f5761019c916004016100a3565b909156fea26469706673582212200fa6c275bbd06c3dd6df390396ea60c9f284b4e36b18a9cc8836c01d9818fcd664736f6c634300081c0033",
        "nonce": "0x7",
        "chainId": "0x7a69"
      },
      "additionalContracts": [],
      "isFixedGasLimit": false
    },
    {
      "hash": "0x77b4a23e3bb76ebc040008daed0bd5bad3988db880c60fea4c1c9a5b3b779d75",
      "transactionType": "CREATE",
      "contractName": "SingleTxCapEnforcer",
      "contractAddress": "0x2279b7a0a67db372996a5fab50d91eaa73d2ebe6",
      "function": null,
      "arguments": null,
      "transaction": {
        "from": "0xf39fd6e51aad88f6f4ce6ab8827279cfffb92266",
        "gas": "0x2f53e",
        "value": "0x0",
        "input": "0x608080604052346015576101bc908161001a8239f35b5f80fdfe60806040526004361015610011575f80fd5b5f3560e01c806338cc50f6146100435763b710a2381461002f575f80fd5b3461003f5761003d366100b7565b005b5f80fd5b3461003f576020610053366100b7565b50509997955050505050508380925001031261003f57359081811161007457005b639af48cf560e01b5f5260045260245260445ffd5b9181601f8401121561003f5782359167ffffffffffffffff831161003f576020838186019501011161003f57565b61012060031982011261003f5760043567ffffffffffffffff811161003f57816100e391600401610089565b9290929160243567ffffffffffffffff811161003f578161010691600401610089565b909290916044356001600160a01b038116810361003f5791606435916084356001600160a01b038116810361003f579160a4356001600160a01b038116810361003f579160c4356001600160a01b038116810361003f579160e43591610104359067ffffffffffffffff821161003f5761018291600401610089565b909156fea264697066735822122061c2076ab0826ea87ac9022b01300518ebfb2f6ad97d5b6a7fbf38ab34bd016964736f6c634300081c0033",
        "nonce": "0x8",
        "chainId": "0x7a69"
      },
      "additionalContracts": [],
      "isFixedGasLimit": false
    },
    {
      "hash": "0x1b3a4aa476b9a57e6a15a2d92a7d80221c945dc488da4e6a9f31f638d7e619c4",
      "transactionType": "CREATE",
      "contractName": "CooldownEnforcer",
      "contractAddress": "0x8a791620dd6260079bf849dc5567adc3f2fdc318",
      "function": null,
      "arguments": [
        "0x5FbDB2315678afecb367f032d93F642f64180aa3"
      ],
      "transaction": {
        "from": "0xf39fd6e51aad88f6f4ce6ab8827279cfffb92266",
        "gas": "0x455dd",
        "value": "0x0",
        "input": "0x60a034606b57601f61037a38819003918201601f19168301916001600160401b03831184841017606f57808492602094604052833981010312606b57516001600160a01b0381168103606b576080526040516102f690816100848239608051818181605a015260b00152f35b5f80fd5b634e487b7160e01b5f52604160045260245ffdfe60806040526004361015610011575f80fd5b5f3560e01c806338cc50f614610135578063535841941461010c578063b710a2381461008d5763ea4d3c9b14610045575f80fd5b34610089575f366003190112610089576040517f00000000000000000000000000000000000000000000000000000000000000006001600160a01b03168152602090f35b5f80fd5b346100895761009b366101db565b50509796505050509491505060018060a01b037f00000000000000000000000000000000000000000000000000000000000000001633036100fd576100e2918101906102aa565b91905010156100ed57005b5f525f6020524260405f20555f80f35b635c427cd960e01b5f5260045ffd5b34610089576020366003190112610089576004355f525f602052602060405f2054604051908152f35b346100895761015b610146366101db565b505099979550505050949250508101906102aa565b9092101561016557005b5f525f60205260405f20549081018091116101995780421061018357005b636cde584b60e11b5f526004524260245260445ffd5b634e487b7160e01b5f52601160045260245ffd5b9181601f840112156100895782359167ffffffffffffffff8311610089576020838186019501011161008957565b6101206003198201126100895760043567ffffffffffffffff81116100895781610207916004016101ad565b9290929160243567ffffffffffffffff8111610089578161022a916004016101ad565b909290916044356001600160a01b03811681036100895791606435916084356001600160a01b0381168103610089579160a4356001600160a01b0381168103610089579160c4356001600160a01b0381168103610089579160e43591610104359067ffffffffffffffff8211610089576102a6916004016101ad565b9091565b919082604091031261008957602082359201359056fea264697066735822122021604cd89713100a20c654cb2465090b91d760ec7aa23465f1dbabe9da45957764736f6c634300081c00330000000000000000000000005fbdb2315678afecb367f032d93f642f64180aa3",
        "nonce": "0x9",
        "chainId": "0x7a69"
      },
      "additionalContracts": [],
      "isFixedGasLimit": false
    },
    {
      "hash": "0xb16ccc8fe34da7472072b386a66117dd1f86ee8785fc068bca38d13126fd94b6",
      "transactionType": "CREATE",
      "contractName": "ReputationGateEnforcer",
      "contractAddress": "0x610178da211fef7d417bc0e6fed39f05609ad788",
      "function": null,
      "arguments": null,
      "transaction": {
        "from": "0xf39fd6e51aad88f6f4ce6ab8827279cfffb92266",
        "gas": "0x449a0",
        "value": "0x0",
        "input": "0x608080604052346015576102f2908161001a8239f35b5f80fdfe6080806040526004361015610012575f80fd5b5f3560e01c90816338cc50f614610046575063b710a23814610032575f80fd5b3461004257610040366101cb565b005b5f80fd5b3461004257606090610057366101cb565b5050505050505050505090809391810103126100425781356001600160a01b038116908190036100425760406020840135930135918115610167575f9181602084930190635eade58560e11b8252866024820152602481526100ba60448261029a565b51915afa3d15610195573d9067ffffffffffffffff821161018157604051916100ed601f8201601f19166020018461029a565b82523d5f602084013e5b158015610176575b6101675760208180518101031261004257602001519080821061014e577f7e21353ef32ade191f90904df09e23355321630d713018a81a8631bb14d14db79160409182519182526020820152a2005b91634eb2fb8360e01b5f5260045260245260445260645ffd5b630256965f60e01b5f5260045ffd5b5060208151106100ff565b634e487b7160e01b5f52604160045260245ffd5b6060906100f7565b9181601f840112156100425782359167ffffffffffffffff8311610042576020838186019501011161004257565b6101206003198201126100425760043567ffffffffffffffff811161004257816101f79160040161019d565b9290929160243567ffffffffffffffff8111610042578161021a9160040161019d565b909290916044356001600160a01b03811681036100425791606435916084356001600160a01b0381168103610042579160a4356001600160a01b0381168103610042579160c4356001600160a01b0381168103610042579160e43591610104359067ffffffffffffffff8211610042576102969160040161019d565b9091565b90601f8019910116810190811067ffffffffffffffff8211176101815760405256fea2646970667358221220983ee90075f0427e2539a6c600f01964f05e95080d1e2b258afb6d1d42437b1264736f6c634300081c0033",
        "nonce": "0xa",
        "chainId": "0x7a69"
      },
      "additionalContracts": [],
      "isFixedGasLimit": false
    },
    {
      "hash": "0x40b129067f1ceb449995c22ea9b20768cd5c1c9b68c333da6b279670d1ac004d",
      "transactionType": "CREATE",
      "contractName": "IrisApprovalQueue",
      "contractAddress": "0xb7f8bc63bbcad18155201308c8f3540b07f84f5e",
      "function": null,
      "arguments": [
        "86400"
      ],
      "transaction": {
        "from": "0xf39fd6e51aad88f6f4ce6ab8827279cfffb92266",
        "gas": "0xc5f21",
        "value": "0x0",
        "input": "0x608034604d57601f610a4738819003918201601f19168301916001600160401b03831184841017605157808492602094604052833981010312604d57515f556040516109e190816100668239f35b5f80fd5b634e487b7160e01b5f52604160045260245ffdfe60806040526004361015610011575f80fd5b5f3560e01c80636db2feb21461080f57806376ba6009146107b057806395587d031461074f578063b3ee142414610733578063f05bfa7b1461067f578063f465c6d5146102a35763fb1e61ca14610066575f80fd5b3461029f57602036600319011261029f576004355f61010060405161008a81610881565b828152826020820152606060408201528260608201528260808201528260a08201528260c08201528260e08201520152805f52600460205260ff60405f2054161561028d575f52600160205260405f206040516100e681610881565b81546001600160a01b039081168252600183015416602082019081526040516002840180549194929392915f9161011c826108c0565b80885291600181169081156102665750600114610229575b85610160866020878b610149818a038261089e565b6040840190815260038201546060850190815260048301549260808601938452600660058201549160a0880192835201549360c087019260ff86161515845260e088019460ff8760081c161515865260ff6101008a019760101c16151587526040519a8b99898b5260018060a01b03905116898b015260018060a01b0390511660408a01525161012060608a01528051978891826101408c0152018a8a015e5f8888018a01525160808801525160a08701525160c086015251151560e0850152511515610100840152511515610120830152601f01601f19168101030190f35b5f908152602081209092505b81831061024c575050840160200184610149610134565b6001816020929493945483858b0101520191019190610235565b60ff191660208981019190915292151560051b880190920192508691506101499050610134565b630d1c383160e11b5f5260045260245ffd5b5f80fd5b3461029f5760a036600319011261029f576102bc61085e565b60243567ffffffffffffffff811161029f573660238201121561029f57806004013567ffffffffffffffff811161029f57366024828401011161029f57604435926084356001600160a01b038116926064359184900361029f57600554925f19841461066b5760018401600555604051602081019133835260018060a01b0316948560408301528860608301528460808301524260a083015260c082015260c0815261036960e08261089e565b5190209460405161037981610881565b3381525f602080830194878652806024604051966103a085601f19601f860116018961089e565b828852018387013784010152604081810192835260608201898152608083019586524260a084019081525f60c0850181815260e0860182815261010087018381528d84526001602081905296909320965187546001600160a01b03199081166001600160a01b0392831617895599519688018054909a16961695909517909755945180519697959693959193919291600286019167ffffffffffffffff821161059d5761044d83546108c0565b601f8111610626575b50602090601f83116001146105bc576006979695949392915f91836105b1575b50508160011b915f199060031b1c19161790555b516003840155516004830155516005820155019251151560ff8019855416911617835551151561ff0083549160081b169061ff00191617825551151562ff000082549160101b169062ff00001916179055825f52600260205260405f20826bffffffffffffffffffffffff60a01b825416179055825f52600460205260405f20600160ff19825416179055815f52600360205260405f20938454946801000000000000000086101561059d57600186018082558610156105895760209585915f52865f20015560405191825284820152827fdef1bb43847f22cfafa04f7c8c1929d0ece6915cfe25e8225afc855b5de78f0e60403393a4604051908152f35b634e487b7160e01b5f52603260045260245ffd5b634e487b7160e01b5f52604160045260245ffd5b015190508f80610476565b90601f19831691845f52815f20925f5b81811061060e575091600193918560069b9a9998979694106105f6575b505050811b01905561048a565b01515f1960f88460031b161c191690558f80806105e9565b929360206001819287860151815501950193016105cc565b835f5260205f20601f840160051c81019160208510610661575b601f0160051c01905b8181106106565750610456565b5f8155600101610649565b9091508190610640565b634e487b7160e01b5f52601160045260245ffd5b3461029f57602036600319011261029f576001600160a01b036106a061085e565b165f52600360205260405f20604051806020835491828152019081935f5260205f20905f5b81811061071d57505050816106db91038261089e565b604051918291602083019060208452518091526040830191905f5b818110610704575050500390f35b82518452859450602093840193909201916001016106f6565b82548452602090930192600192830192016106c5565b3461029f575f36600319011261029f5760205f54604051908152f35b3461029f57602036600319011261029f5760043561076c816108f8565b805f526001602052600660405f200161010061ff001982541617905533907fb4981a1d9e7246350ef6907f32ce343c27f44897c7d87410d3158417a8028cfe5f80a3005b3461029f57602036600319011261029f576004356107cd816108f8565b805f526001602052600660405f2001600160ff1982541617905533907fd87aad67fff1ec7e6176fbb242858c5c4b0763b19f37c7c75f52194f70fb47a55f80a3005b3461029f57602036600319011261029f57600435805f52600460205260ff60405f2054161561028d575f5260016020526020610854600560405f2001545f5490610874565b4211604051908152f35b600435906001600160a01b038216820361029f57565b9190820180921161066b57565b610120810190811067ffffffffffffffff82111761059d57604052565b90601f8019910116810190811067ffffffffffffffff82111761059d57604052565b90600182811c921680156108ee575b60208310146108da57565b634e487b7160e01b5f52602260045260245ffd5b91607f16916108cf565b805f52600460205260ff60405f2054161561028d575f818152600260205260409020546001600160a01b0316330361099657805f52600160205260405f20600681015460ff8116908115610988575b5061097557600501545f5461095b91610874565b42116109645750565b6263c7a560e01b5f5260045260245ffd5b5063b03f853760e01b5f5260045260245ffd5b60ff915060081c165f610947565b622389db60e81b5f526004523360245260445ffdfea26469706673582212200c3aa218a52c41973712648802cdbac7eb47ae8277f222381bf3c7e84015772664736f6c634300081c00330000000000000000000000000000000000000000000000000000000000015180",
        "nonce": "0xb",
        "chainId": "0x7a69"
      },
      "additionalContracts": [],
      "isFixedGasLimit": false
    },
    {
      "hash": "0x165c4189dcd6c002f2b93f5995310da2766424abf6b83e8babd99862ce3026bb",
      "transactionType": "CREATE",
      "contractName": "MockERC20",
      "contractAddress": "0xa51c1fc2f0d1a1b8494ed1fe312d7c3a78ed91c0",
      "function": null,
      "arguments": [
        "Mock USDC",
        "USDC"
      ],
      "transaction": {
        "from": "0xf39fd6e51aad88f6f4ce6ab8827279cfffb92266",
        "gas": "0x9b1be",
        "value": "0x0",
        "input": "0x60806040523461030b57610a4c803803806100198161030f565b92833981019060408183031261030b5780516001600160401b03811161030b5782610045918301610334565b60208201519092906001600160401b03811161030b576100659201610334565b81516001600160401b038111610221575f54600181811c91168015610301575b602082101461020357601f811161029f575b50602092601f821160011461024057928192935f92610235575b50508160011b915f199060031b1c1916175f555b80516001600160401b03811161022157600154600181811c91168015610217575b602082101461020357601f81116101a0575b50602091601f8211600114610140579181925f92610135575b50508160011b915f199060031b1c1916176001555b6040516106c690816103868239f35b015190505f80610111565b601f1982169260015f52805f20915f5b85811061018857508360019510610170575b505050811b01600155610126565b01515f1960f88460031b161c191690555f8080610162565b91926020600181928685015181550194019201610150565b60015f527fb10e2d527612073b26eecdfd717e6a320cf44b4afac2b0732d9fcbe2b7fa0cf6601f830160051c810191602084106101f9575b601f0160051c01905b8181106101ee57506100f8565b5f81556001016101e1565b90915081906101d8565b634e487b7160e01b5f52602260045260245ffd5b90607f16906100e6565b634e487b7160e01b5f52604160045260245ffd5b015190505f806100b1565b601f198216935f8052805f20915f5b868110610287575083600195961061026f575b505050811b015f556100c5565b01515f1960f88460031b161c191690555f8080610262565b9192602060018192868501518155019401920161024f565b5f80527f290decd9548b62a8d60345a988386fc84ba6bc95484008f6362f93160ef3e563601f830160051c810191602084106102f7575b601f0160051c01905b8181106102ec5750610097565b5f81556001016102df565b90915081906102d6565b90607f1690610085565b5f80fd5b6040519190601f01601f191682016001600160401b0381118382101761022157604052565b81601f8201121561030b578051906001600160401b03821161022157610363601f8301601f191660200161030f565b928284526020838301011161030b57815f9260208093018386015e830101529056fe60806040526004361015610011575f80fd5b5f3560e01c806306fdde0314610470578063095ea7b3146103f757806318160ddd146103da57806323b872dd146102f8578063313ce567146102dd57806340c10f191461026357806370a082311461022b57806395d89b411461010d578063a9059cbb146100db5763dd62ed3e14610087575f80fd5b346100d75760403660031901126100d7576100a061056c565b6100a8610582565b6001600160a01b039182165f908152600460209081526040808320949093168252928352819020549051908152f35b5f80fd5b346100d75760403660031901126100d75760206101036100f961056c565b60243590336105c6565b6040519015158152f35b346100d7575f3660031901126100d7576040515f6001548060011c90600181168015610221575b60208310811461020d578285529081156101f1575060011461019b575b50819003601f01601f191681019067ffffffffffffffff82118183101761018757604082905281906101839082610542565b0390f35b634e487b7160e01b5f52604160045260245ffd5b60015f9081529091507fb10e2d527612073b26eecdfd717e6a320cf44b4afac2b0732d9fcbe2b7fa0cf65b8282106101db57506020915082010182610151565b60018160209254838588010152019101906101c6565b90506020925060ff191682840152151560051b82010182610151565b634e487b7160e01b5f52602260045260245ffd5b91607f1691610134565b346100d75760203660031901126100d7576001600160a01b0361024c61056c565b165f526003602052602060405f2054604051908152f35b346100d75760403660031901126100d75761027c61056c565b5f7fddf252ad1be2c89b69c2b068fc378daa952ba7f163c4a11628f55a4df523b3ef6020602435936102b0856002546105b9565b60025560018060a01b03169384845260038252604084206102d28282546105b9565b9055604051908152a3005b346100d7575f3660031901126100d757602060405160128152f35b346100d75760603660031901126100d75761031161056c565b610319610582565b6001600160a01b0382165f81815260046020908152604080832033845290915290205460443593919060018101610358575b60206101038686866105c6565b92909391828410610395576020946103738461010396610598565b5f9182526004875260408083203384528852909120559193909250829061034b565b60405162461bcd60e51b815260206004820152601d60248201527f45524332303a20696e73756666696369656e7420616c6c6f77616e63650000006044820152606490fd5b346100d7575f3660031901126100d7576020600254604051908152f35b346100d75760403660031901126100d75761041061056c565b335f8181526004602090815260408083206001600160a01b03909516808452948252918290206024359081905591519182527f8c5be1e5ebec7d5bd14f71427d1e84f3dd0314c0f7b2291e5b200ac8c7c3b92591a3602060405160018152f35b346100d7575f3660031901126100d7576040515f5f548060011c90600181168015610538575b60208310811461020d578285529081156101f157506001146104e45750819003601f01601f191681019067ffffffffffffffff82118183101761018757604082905281906101839082610542565b5f8080529091507f290decd9548b62a8d60345a988386fc84ba6bc95484008f6362f93160ef3e5635b82821061052257506020915082010182610151565b600181602092548385880101520191019061050d565b91607f1691610496565b602060409281835280519182918282860152018484015e5f828201840152601f01601f1916010190565b600435906001600160a01b03821682036100d757565b602435906001600160a01b03821682036100d757565b919082039182116105a557565b634e487b7160e01b5f52601160045260245ffd5b919082018092116105a557565b60018060a01b031690815f5260036020528260405f20541061064b5760207fddf252ad1be2c89b69c2b068fc378daa952ba7f163c4a11628f55a4df523b3ef91835f526003825260405f2061061c868254610598565b905560018060a01b031693845f526003825260405f2061063d8282546105b9565b9055604051908152a3600190565b60405162461bcd60e51b815260206004820152601b60248201527f45524332303a20696e73756666696369656e742062616c616e636500000000006044820152606490fdfea2646970667358221220427ce253fef2c2228591fe750db1f3bef70d2b221980c19e518ca18c0421c70c64736f6c634300081c00330000000000000000000000000000000000000000000000000000000000000040000000000000000000000000000000000000000000000000000000000000008000000000000000000000000000000000000000000000000000000000000000094d6f636b2055534443000000000000000000000000000000000000000000000000000000000000000000000000000000000000000000000000000000000000045553444300000000000000000000000000000000000000000000000000000000",
        "nonce": "0xc",
        "chainId": "0x7a69"
      },
      "additionalContracts": [],
      "isFixedGasLimit": false
    },
    {
      "hash": "0xb505c76d348ff0240aa1f719b0839c6b65bfbf74c6f9a459c56087e1d96b5ed8",
      "transactionType": "CREATE",
      "contractName": "MockUniswapRouter",
      "contractAddress": "0x0dcd1bf9a1b36ce34237eeafef220932846bcd82",
      "function": null,
      "arguments": null,
      "transaction": {
        "from": "0xf39fd6e51aad88f6f4ce6ab8827279cfffb92266",
        "gas": "0x303e9",
        "value": "0x0",
        "input": "0x608080604052346015576101c8908161001a8239f35b5f80fdfe6080806040526004361015610012575f80fd5b5f3560e01c63df791e5014610025575f80fd5b6060366003190112610121576004356001600160a01b0381169190829003610121576024356001600160a01b0381169081900361012157604435916323b872dd60e01b81523360048201523060248201528260448201526020816064815f885af1801561011657610125575b50803b15610121576040516340c10f1960e01b815233600482015260248101839052925f8460448183865af193841561011657602094610106575b5060405183815283858201527f6782190c91d4a7e8ad2a867deed6ec0a970cab8ff137ae2bd4abd92b3810f4d360403392a4604051908152f35b5f6101109161015c565b5f6100cc565b6040513d5f823e3d90fd5b5f80fd5b6020813d602011610154575b8161013e6020938361015c565b8101031261012157518015158114610091575f80fd5b3d9150610131565b90601f8019910116810190811067ffffffffffffffff82111761017e57604052565b634e487b7160e01b5f52604160045260245ffdfea2646970667358221220e0511e23ae5497568d299f9dda7071f5186147a54eb4ca99c89eebcc7a1d0ec764736f6c634300081c0033",
        "nonce": "0xd",
        "chainId": "0x7a69"
      },
      "additionalContracts": [],
      "isFixedGasLimit": false
    },
    {
      "hash": "0x968fb5185a802d9e1ea0effff8b61d394efd7a07ae1da3b566725f2fb6ce66ab",
      "transactionType": "CALL",
      "contractName": "IrisAccountFactory",
      "contractAddress": "0xe7f1725e7734ce288f8367e1bb143e90bb3f0512",
      "function": "createAccount(address,address,uint256)",
      "arguments": [
        "0x70997970C51812dc3A010C7d01b50e0d17dc79C8",
        "0x5FbDB2315678afecb367f032d93F642f64180aa3",
        "0"
      ],
      "transaction": {
        "from": "0xf39fd6e51aad88f6f4ce6ab8827279cfffb92266",
        "to": "0xe7f1725e7734ce288f8367e1bb143e90bb3f0512",
        "gas": "0xc4eed",
        "value": "0x0",
        "input": "0x1230aea200000000000000000000000070997970c51812dc3a010c7d01b50e0d17dc79c80000000000000000000000005fbdb2315678afecb367f032d93f642f64180aa30000000000000000000000000000000000000000000000000000000000000000",
        "nonce": "0xe",
        "chainId": "0x7a69"
      },
      "additionalContracts": [
        {
          "transactionType": "CREATE2",
          "contractName": "IrisAccount",
          "address": "0xfa02dff43fad54ed35ea6d2676b4d0a4f5526965",
          "initCode": "0x608034608557601f6109f738819003918201601f19168301916001600160401b038311848410176089578084926040948552833981010312608557604b6020604583609d565b9201609d565b5f80546001600160a01b039384166001600160a01b0319918216179091556001805492909316911617905560405161094690816100b18239f35b5f80fd5b634e487b7160e01b5f52604160045260245ffd5b51906001600160a01b038216820360855756fe608080604052600436101561001c575b50361561001a575f80fd5b005b5f3560e01c90816303c46f56146105945750806319822f7c146105445780631a8d0de2146104d2578063232acf5e146104a357806347e1da2a1461026f5780638da5cb5b1461024857806394430fa51461021e578063b61d27f614610134578063b96f2b07146100c25763ea4d3c9b14610096575f61000f565b346100be575f3660031901126100be576001546040516001600160a01b039091168152602090f35b5f80fd5b346100be5760203660031901126100be575f54600435906001600160a01b0316330361012557805f52600260205260405f20600160ff198254161790557f6eb24ce38eb0f7d1e3b4291d5543c7286f02be3daed061b0f7eb6491213deb215f80a2005b635fc483c560e01b5f5260045ffd5b346100be5760603660031901126100be5761014d6105be565b60443567ffffffffffffffff81116100be57366023820112156100be5780600401359167ffffffffffffffff83116100be5736602484840101116100be575f546001600160a01b031633141580610209575b6101fa5760245f939283859460405193849301833781018481520391602435905af16101c96106b2565b90156101eb576101e790604051918291602083526020830190610605565b0390f35b632b3f6d1160e21b5f5260045ffd5b630d4a63a160e41b5f5260045ffd5b506001546001600160a01b031633141561019f565b346100be575f3660031901126100be5760206040516f71727de22e5e9d8baf0edac6f37da0328152f35b346100be575f3660031901126100be575f546040516001600160a01b039091168152602090f35b346100be5760603660031901126100be5760043567ffffffffffffffff81116100be576102a09036906004016105d4565b9060243567ffffffffffffffff81116100be576102c19036906004016105d4565b9060443567ffffffffffffffff81116100be576102e29036906004016105d4565b909260018060a01b035f54163314158061048e575b6101fa5780861480610485575b1561044e5761031c6103178796976107ad565b61065c565b85815294601f1961032c826107ad565b015f5b81811061043b5750505f5b8181106103a857866040518091602082016020835281518091526040830190602060408260051b8601019301915f905b82821061037957505050500390f35b919360019193955060206103988192603f198a82030186528851610605565b960192019201859493919261036a565b6103b381838a6107c5565b356001600160a01b03811681036100be576103cf8285886107c5565b359085831015610427575f80918460051b936103ed858c018c610629565b9190826040519384928337810185815203925af19061040a6106b2565b90895184101561042757890160200152156101eb5760010161033a565b634e487b7160e01b5f52603260045260245ffd5b60606020828a018101919091520161032f565b60405162461bcd60e51b815260206004820152600f60248201526e098cadccee8d040dad2e6dac2e8c6d608b1b6044820152606490fd5b50818114610304565b506001546001600160a01b03163314156102f7565b346100be5760203660031901126100be576004355f526002602052602060ff60405f2054166040519015158152f35b346100be5760203660031901126100be576104eb6105be565b5f546001600160a01b0316330361012557600180546001600160a01b039283166001600160a01b0319821681179092559091167f4b0f7a6a0118692cc6700b7182c62e33c0aef7d314470553683f6f1d61b9e0de5f80a3005b346100be5760603660031901126100be5760043567ffffffffffffffff81116100be5761012060031982360301126100be5761058c60209160443590602435906004016106d7565b604051908152f35b346100be5760203660031901126100be576020906004355f526002825260ff60405f205416158152f35b600435906001600160a01b03821682036100be57565b9181601f840112156100be5782359167ffffffffffffffff83116100be576020808501948460051b0101116100be57565b805180835260209291819084018484015e5f828201840152601f01601f1916010190565b903590601e19813603018212156100be570180359067ffffffffffffffff82116100be576020019181360383136100be57565b6040519190601f01601f1916820167ffffffffffffffff81118382101761068257604052565b634e487b7160e01b5f52604160045260245ffd5b67ffffffffffffffff811161068257601f01601f191660200190565b3d156106d2573d906106c661031783610696565b9182523d5f602084013e565b606090565b906f71727de22e5e9d8baf0edac6f37da032330361079e577f19457468657265756d205369676e6564204d6573736167653a0a3332000000005f52601c52610728603c5f2091610100810190610629565b9161073561031784610696565b9083825236848401116100be575f6020856107649661075b9683870137840101526107d5565b9092919261080f565b5f546001600160a01b03908116911603610798578061078257505f90565b5f80808093335af1506107936106b2565b505f90565b50600190565b63bd07c55160e01b5f5260045ffd5b67ffffffffffffffff81116106825760051b60200190565b91908110156104275760051b0190565b8151919060418303610805576107fe9250602082015190606060408401519301515f1a90610883565b9192909190565b50505f9160029190565b600481101561086f5780610821575050565b600181036108385763f645eedf60e01b5f5260045ffd5b60028103610853575063fce698f760e01b5f5260045260245ffd5b60031461085d5750565b6335e2f38360e21b5f5260045260245ffd5b634e487b7160e01b5f52602160045260245ffd5b91907f7fffffffffffffffffffffffffffffff5d576e7357a4501ddfe92f46681b20a08411610905579160209360809260ff5f9560405194855216868401526040830152606082015282805260015afa156108fa575f516001600160a01b038116156108f057905f905f90565b505f906001905f90565b6040513d5f823e3d90fd5b5050505f916003919056fea26469706673582212207b766db1621a40041f3d69d653a05dc5778cba3455464d795bad5cb3ae5661c864736f6c634300081c003300000000000000000000000070997970c51812dc3a010c7d01b50e0d17dc79c80000000000000000000000005fbdb2315678afecb367f032d93f642f64180aa3"
        }
      ],
      "isFixedGasLimit": false
    },
    {
      "hash": "0x7a84cf70bd791d7abaf0c9aa2e32dc3629e6590a405772927dc23a8db58cf43d",
      "transactionType": "CALL",
      "contractName": "IrisAgentRegistry",
      "contractAddress": "0x9fe46736679d2d9a65f0992f2272de9f3c7fa6e0",
      "function": "registerAgent(string)",
      "arguments": [
        "ipfs://agent-metadata.json"
      ],
      "transaction": {
        "from": "0x3c44cdddb6a900fa2b585dd299e03d12fa4293bc",
        "to": "0x9fe46736679d2d9a65f0992f2272de9f3c7fa6e0",
        "gas": "0x2f900",
        "value": "0x0",
        "input": "0x2d2a95850000000000000000000000000000000000000000000000000000000000000020000000000000000000000000000000000000000000000000000000000000001a697066733a2f2f6167656e742d6d657461646174612e6a736f6e000000000000",
        "nonce": "0x0",
        "chainId": "0x7a69"
      },
      "additionalContracts": [],
      "isFixedGasLimit": false
    },
    {
      "hash": "0x8073e5147d9b9d437e3b786209d0741fcb65bdcb0333a5207736a4ac11dc1b04",
      "transactionType": "CALL",
      "contractName": "IrisReputationOracle",
      "contractAddress": "0xcf7ed3acca5a467e9e704c703e8d87f634fb0fc9",
      "function": "submitFeedback(uint256,bool)",
      "arguments": [
        "1",
        "true"
      ],
      "transaction": {
        "from": "0xf39fd6e51aad88f6f4ce6ab8827279cfffb92266",
        "to": "0xcf7ed3acca5a467e9e704c703e8d87f634fb0fc9",
        "gas": "0x18a52",
        "value": "0x0",
        "input": "0x9163d10800000000000000000000000000000000000000000000000000000000000000010000000000000000000000000000000000000000000000000000000000000001",
        "nonce": "0xf",
        "chainId": "0x7a69"
      },
      "additionalContracts": [],
      "isFixedGasLimit": false
    },
    {
      "hash": "0x4eba9e32ecd9e4b0d2d9d47b1b90fdce1e7f7b64446e58ab8d59af2239367ce1",
      "transactionType": "CALL",
      "contractName": "IrisReputationOracle",
      "contractAddress": "0xcf7ed3acca5a467e9e704c703e8d87f634fb0fc9",
      "function": "submitFeedback(uint256,bool)",
      "arguments": [
        "1",
        "true"
      ],
      "transaction": {
        "from": "0xf39fd6e51aad88f6f4ce6ab8827279cfffb92266",
        "to": "0xcf7ed3acca5a467e9e704c703e8d87f634fb0fc9",
        "gas": "0xbfa6",
        "value": "0x0",
        "input": "0x9163d10800000000000000000000000000000000000000000000000000000000000000010000000000000000000000000000000000000000000000000000000000000001",
        "nonce": "0x10",
        "chainId": "0x7a69"
      },
      "additionalContracts": [],
      "isFixedGasLimit": false
    },
    {
      "hash": "0x7b20cea2c9d50c291202c4092519f7144879a8b8ae6afe6c8402ca120d8f1b14",
      "transactionType": "CALL",
      "contractName": "IrisReputationOracle",
      "contractAddress": "0xcf7ed3acca5a467e9e704c703e8d87f634fb0fc9",
      "function": "submitFeedback(uint256,bool)",
      "arguments": [
        "1",
        "true"
      ],
      "transaction": {
        "from": "0xf39fd6e51aad88f6f4ce6ab8827279cfffb92266",
        "to": "0xcf7ed3acca5a467e9e704c703e8d87f634fb0fc9",
        "gas": "0xbfa6",
        "value": "0x0",
        "input": "0x9163d10800000000000000000000000000000000000000000000000000000000000000010000000000000000000000000000000000000000000000000000000000000001",
        "nonce": "0x11",
        "chainId": "0x7a69"
      },
      "additionalContracts": [],
      "isFixedGasLimit": false
    },
    {
      "hash": "0x74738d7546c4ceb45ceb52f471627a10b55a2a109cfb9389f530f78f0da7a14c",
      "transactionType": "CALL",
      "contractName": "IrisReputationOracle",
      "contractAddress": "0xcf7ed3acca5a467e9e704c703e8d87f634fb0fc9",
      "function": "submitFeedback(uint256,bool)",
      "arguments": [
        "1",
        "true"
      ],
      "transaction": {
        "from": "0xf39fd6e51aad88f6f4ce6ab8827279cfffb92266",
        "to": "0xcf7ed3acca5a467e9e704c703e8d87f634fb0fc9",
        "gas": "0xbfa6",
        "value": "0x0",
        "input": "0x9163d10800000000000000000000000000000000000000000000000000000000000000010000000000000000000000000000000000000000000000000000000000000001",
        "nonce": "0x12",
        "chainId": "0x7a69"
      },
      "additionalContracts": [],
      "isFixedGasLimit": false
    },
    {
      "hash": "0xbbdd030ca48c4405c7fda1319568c94475e812d9338d0440035952d60194a57e",
      "transactionType": "CALL",
      "contractName": "IrisReputationOracle",
      "contractAddress": "0xcf7ed3acca5a467e9e704c703e8d87f634fb0fc9",
      "function": "submitFeedback(uint256,bool)",
      "arguments": [
        "1",
        "true"
      ],
      "transaction": {
        "from": "0xf39fd6e51aad88f6f4ce6ab8827279cfffb92266",
        "to": "0xcf7ed3acca5a467e9e704c703e8d87f634fb0fc9",
        "gas": "0xbfa6",
        "value": "0x0",
        "input": "0x9163d10800000000000000000000000000000000000000000000000000000000000000010000000000000000000000000000000000000000000000000000000000000001",
        "nonce": "0x13",
        "chainId": "0x7a69"
      },
      "additionalContracts": [],
      "isFixedGasLimit": false
    },
    {
      "hash": "0x30f6cef34710a2cfdeeb3265377d2ae9c16fe3450911d64b478d44811faad85f",
      "transactionType": "CALL",
      "contractName": "IrisReputationOracle",
      "contractAddress": "0xcf7ed3acca5a467e9e704c703e8d87f634fb0fc9",
      "function": "submitFeedback(uint256,bool)",
      "arguments": [
        "1",
        "true"
      ],
      "transaction": {
        "from": "0xf39fd6e51aad88f6f4ce6ab8827279cfffb92266",
        "to": "0xcf7ed3acca5a467e9e704c703e8d87f634fb0fc9",
        "gas": "0xbfa6",
        "value": "0x0",
        "input": "0x9163d10800000000000000000000000000000000000000000000000000000000000000010000000000000000000000000000000000000000000000000000000000000001",
        "nonce": "0x14",
        "chainId": "0x7a69"
      },
      "additionalContracts": [],
      "isFixedGasLimit": false
    },
    {
      "hash": "0x9c2cc2058b367c8a30998263ecbba4fdf16eeb3fd4c78ba732a03125f9d0c38c",
      "transactionType": "CALL",
      "contractName": "IrisReputationOracle",
      "contractAddress": "0xcf7ed3acca5a467e9e704c703e8d87f634fb0fc9",
      "function": "submitFeedback(uint256,bool)",
      "arguments": [
        "1",
        "true"
      ],
      "transaction": {
        "from": "0xf39fd6e51aad88f6f4ce6ab8827279cfffb92266",
        "to": "0xcf7ed3acca5a467e9e704c703e8d87f634fb0fc9",
        "gas": "0xbfa6",
        "value": "0x0",
        "input": "0x9163d10800000000000000000000000000000000000000000000000000000000000000010000000000000000000000000000000000000000000000000000000000000001",
        "nonce": "0x15",
        "chainId": "0x7a69"
      },
      "additionalContracts": [],
      "isFixedGasLimit": false
    },
    {
      "hash": "0xec8b310d441b6f87bde04d19881fe253895211b1dbb0c384e991b7f32780a0f4",
      "transactionType": "CALL",
      "contractName": "IrisReputationOracle",
      "contractAddress": "0xcf7ed3acca5a467e9e704c703e8d87f634fb0fc9",
      "function": "submitFeedback(uint256,bool)",
      "arguments": [
        "1",
        "true"
      ],
      "transaction": {
        "from": "0xf39fd6e51aad88f6f4ce6ab8827279cfffb92266",
        "to": "0xcf7ed3acca5a467e9e704c703e8d87f634fb0fc9",
        "gas": "0xbfa6",
        "value": "0x0",
        "input": "0x9163d10800000000000000000000000000000000000000000000000000000000000000010000000000000000000000000000000000000000000000000000000000000001",
        "nonce": "0x16",
        "chainId": "0x7a69"
      },
      "additionalContracts": [],
      "isFixedGasLimit": false
    },
    {
      "hash": "0xc9c64b1cb2e871bae54d7dffaf06637e32f65eeb666b0364cf1be63c3cc1b802",
      "transactionType": "CALL",
      "contractName": "IrisReputationOracle",
      "contractAddress": "0xcf7ed3acca5a467e9e704c703e8d87f634fb0fc9",
      "function": "submitFeedback(uint256,bool)",
      "arguments": [
        "1",
        "true"
      ],
      "transaction": {
        "from": "0xf39fd6e51aad88f6f4ce6ab8827279cfffb92266",
        "to": "0xcf7ed3acca5a467e9e704c703e8d87f634fb0fc9",
        "gas": "0xbfa6",
        "value": "0x0",
        "input": "0x9163d10800000000000000000000000000000000000000000000000000000000000000010000000000000000000000000000000000000000000000000000000000000001",
        "nonce": "0x17",
        "chainId": "0x7a69"
      },
      "additionalContracts": [],
      "isFixedGasLimit": false
    },
    {
      "hash": "0x6a46db2e9680cfbb17508aa0534cd6529960a51b0bd2495c91f8c4b60d307aa7",
      "transactionType": "CALL",
      "contractName": "IrisReputationOracle",
      "contractAddress": "0xcf7ed3acca5a467e9e704c703e8d87f634fb0fc9",
      "function": "submitFeedback(uint256,bool)",
      "arguments": [
        "1",
        "true"
      ],
      "transaction": {
        "from": "0xf39fd6e51aad88f6f4ce6ab8827279cfffb92266",
        "to": "0xcf7ed3acca5a467e9e704c703e8d87f634fb0fc9",
        "gas": "0xbfa6",
        "value": "0x0",
        "input": "0x9163d10800000000000000000000000000000000000000000000000000000000000000010000000000000000000000000000000000000000000000000000000000000001",
        "nonce": "0x18",
        "chainId": "0x7a69"
      },
      "additionalContracts": [],
      "isFixedGasLimit": false
    },
    {
      "hash": "0x7a839fa8edc69dc8fe5bb940adb736a61dfed854e72ee788790dd33cf31ad50d",
      "transactionType": "CALL",
      "contractName": "IrisReputationOracle",
      "contractAddress": "0xcf7ed3acca5a467e9e704c703e8d87f634fb0fc9",
      "function": "submitFeedback(uint256,bool)",
      "arguments": [
        "1",
        "true"
      ],
      "transaction": {
        "from": "0xf39fd6e51aad88f6f4ce6ab8827279cfffb92266",
        "to": "0xcf7ed3acca5a467e9e704c703e8d87f634fb0fc9",
        "gas": "0xbfa6",
        "value": "0x0",
        "input": "0x9163d10800000000000000000000000000000000000000000000000000000000000000010000000000000000000000000000000000000000000000000000000000000001",
        "nonce": "0x19",
        "chainId": "0x7a69"
      },
      "additionalContracts": [],
      "isFixedGasLimit": false
    },
    {
      "hash": "0x81906c91822bca758326d8ebafcda09542f9703dd6b731d05e0b511984c2bd66",
      "transactionType": "CALL",
      "contractName": "IrisReputationOracle",
      "contractAddress": "0xcf7ed3acca5a467e9e704c703e8d87f634fb0fc9",
      "function": "submitFeedback(uint256,bool)",
      "arguments": [
        "1",
        "true"
      ],
      "transaction": {
        "from": "0xf39fd6e51aad88f6f4ce6ab8827279cfffb92266",
        "to": "0xcf7ed3acca5a467e9e704c703e8d87f634fb0fc9",
        "gas": "0xbfa6",
        "value": "0x0",
        "input": "0x9163d10800000000000000000000000000000000000000000000000000000000000000010000000000000000000000000000000000000000000000000000000000000001",
        "nonce": "0x1a",
        "chainId": "0x7a69"
      },
      "additionalContracts": [],
      "isFixedGasLimit": false
    },
    {
      "hash": "0x996a5768131af8fa72be1c49dad03dfa7b943a10483427c8f1794bda0e8db402",
      "transactionType": "CALL",
      "contractName": "IrisReputationOracle",
      "contractAddress": "0xcf7ed3acca5a467e9e704c703e8d87f634fb0fc9",
      "function": "submitFeedback(uint256,bool)",
      "arguments": [
        "1",
        "true"
      ],
      "transaction": {
        "from": "0xf39fd6e51aad88f6f4ce6ab8827279cfffb92266",
        "to": "0xcf7ed3acca5a467e9e704c703e8d87f634fb0fc9",
        "gas": "0xbfa6",
        "value": "0x0",
        "input": "0x9163d10800000000000000000000000000000000000000000000000000000000000000010000000000000000000000000000000000000000000000000000000000000001",
        "nonce": "0x1b",
        "chainId": "0x7a69"
      },
      "additionalContracts": [],
      "isFixedGasLimit": false
    },
    {
      "hash": "0xbfc37972089183ffa6c54301378d5232d09cab133913dad79144785804fbed81",
      "transactionType": "CALL",
      "contractName": "MockERC20",
      "contractAddress": "0xa51c1fc2f0d1a1b8494ed1fe312d7c3a78ed91c0",
      "function": "mint(address,uint256)",
      "arguments": [
        "0xfA02DfF43FAd54ed35ea6D2676B4D0a4F5526965",
        "10000000000000000000000"
      ],
      "transaction": {
        "from": "0xf39fd6e51aad88f6f4ce6ab8827279cfffb92266",
        "to": "0xa51c1fc2f0d1a1b8494ed1fe312d7c3a78ed91c0",
        "gas": "0x16fd8",
        "value": "0x0",
        "input": "0x40c10f19000000000000000000000000fa02dff43fad54ed35ea6d2676b4d0a4f552696500000000000000000000000000000000000000000000021e19e0c9bab2400000",
        "nonce": "0x1c",
        "chainId": "0x7a69"
      },
      "additionalContracts": [],
      "isFixedGasLimit": false
    }
  ],
  "receipts": [
    {
      "status": "0x1",
      "cumulativeGasUsed": "0x12af02",
      "logs": [],
      "logsBloom": "0x00000000000000000000000000000000000000000000000000000000000000000000000000000000000000000000000000000000000000000000000000000000000000000000000000000000000000000000000000000000000000000000000000000000000000000000000000000000000000000000000000000000000000000000000000000000000000000000000000000000000000000000000000000000000000000000000000000000000000000000000000000000000000000000000000000000000000000000000000000000000000000000000000000000000000000000000000000000000000000000000000000000000000000000000000000000",
      "type": "0x2",
      "transactionHash": "0xc239faeaf273e62f167610740ca2b19b9394861b137e53d0a225524d0196b993",
      "transactionIndex": "0x0",
      "blockHash": "0xe63441c4191ebe794fcc99ca51fbd65cb910865a35140d33cd2b5d76b75c5003",
      "blockNumber": "0x1",
      "gasUsed": "0x12af02",
      "effectiveGasPrice": "0x3b9aca01",
      "blobGasPrice": "0x1",
      "from": "0xf39fd6e51aad88f6f4ce6ab8827279cfffb92266",
      "to": null,
      "contractAddress": "0x5fbdb2315678afecb367f032d93f642f64180aa3"
    },
    {
      "status": "0x1",
      "cumulativeGasUsed": "0xbc861",
      "logs": [],
      "logsBloom": "0x00000000000000000000000000000000000000000000000000000000000000000000000000000000000000000000000000000000000000000000000000000000000000000000000000000000000000000000000000000000000000000000000000000000000000000000000000000000000000000000000000000000000000000000000000000000000000000000000000000000000000000000000000000000000000000000000000000000000000000000000000000000000000000000000000000000000000000000000000000000000000000000000000000000000000000000000000000000000000000000000000000000000000000000000000000000",
      "type": "0x2",
      "transactionHash": "0x444cc6c6fe29561c7e9bddcbf1508f96701e677f63c793bc210c0574e26db7e2",
      "transactionIndex": "0x0",
      "blockHash": "0x56423c96bbd496e718a2652f587751c77bc894cbeee9fa0825de07444b4ffbda",
      "blockNumber": "0x2",
      "gasUsed": "0xbc861",
      "effectiveGasPrice": "0x34c32327",
      "blobGasPrice": "0x1",
      "from": "0xf39fd6e51aad88f6f4ce6ab8827279cfffb92266",
      "to": null,
      "contractAddress": "0xe7f1725e7734ce288f8367e1bb143e90bb3f0512"
    },
    {
      "status": "0x1",
      "cumulativeGasUsed": "0x6ed6a",
      "logs": [],
      "logsBloom": "0x00000000000000000000000000000000000000000000000000000000000000000000000000000000000000000000000000000000000000000000000000000000000000000000000000000000000000000000000000000000000000000000000000000000000000000000000000000000000000000000000000000000000000000000000000000000000000000000000000000000000000000000000000000000000000000000000000000000000000000000000000000000000000000000000000000000000000000000000000000000000000000000000000000000000000000000000000000000000000000000000000000000000000000000000000000000",
      "type": "0x2",
      "transactionHash": "0x12a9314f88c5295913c48cde68ba4ff209fc9c861650a3a5e733a36b5ec14f7a",
      "transactionIndex": "0x0",
      "blockHash": "0xc5a877ff22557f9c8be6eab7027b77bc4f9dfde129a13975ec1c6cbabda0debc",
      "blockNumber": "0x3",
      "gasUsed": "0x6ed6a",
      "effectiveGasPrice": "0x2e81a9ad",
      "blobGasPrice": "0x1",
      "from": "0xf39fd6e51aad88f6f4ce6ab8827279cfffb92266",
      "to": null,
      "contractAddress": "0x9fe46736679d2d9a65f0992f2272de9f3c7fa6e0"
    },
    {
      "status": "0x1",
      "cumulativeGasUsed": "0x6bc81",
      "logs": [
        {
          "address": "0xcf7ed3acca5a467e9e704c703e8d87f634fb0fc9",
          "topics": [
            "0x8be0079c531659141344cd1fd0a4f28419497f9722a3daafe3b4186f6b6457e0",
            "0x0000000000000000000000000000000000000000000000000000000000000000",
            "0x000000000000000000000000f39fd6e51aad88f6f4ce6ab8827279cfffb92266"
          ],
          "data": "0x",
          "blockHash": "0x78bc6e289e2ab6a6fbfeb00d946748d12ec43f6dad879cb3181e1dd311160684",
          "blockNumber": "0x4",
          "blockTimestamp": "0x69b145fd",
          "transactionHash": "0xb2255c1b6999d10b74b800d5162b29971d2d455df6d2608c76f0d157eff58ea1",
          "transactionIndex": "0x0",
          "logIndex": "0x0",
          "removed": false
        }
      ],
      "logsBloom": "0x00000000000000000000000000000000000000000000000000800000000000000000000000000000000000000000080000000000000000000000000000000001000000000000000000000000000000000001000000000000000000000000000000000000020000000000000100000800000000000000000000000000000000400000000008000000000000000000000000000000000000000000000000000000000000000000000000000000000000000000000000000000000000000000000000000000000000200000000000000000000000002000000000000000000020000000000000000000000000000000000000000000000000000000000000000000",
      "type": "0x2",
      "transactionHash": "0xb2255c1b6999d10b74b800d5162b29971d2d455df6d2608c76f0d157eff58ea1",
      "transactionIndex": "0x0",
      "blockHash": "0x78bc6e289e2ab6a6fbfeb00d946748d12ec43f6dad879cb3181e1dd311160684",
      "blockNumber": "0x4",
      "gasUsed": "0x6bc81",
      "effectiveGasPrice": "0x28de7f59",
      "blobGasPrice": "0x1",
      "from": "0xf39fd6e51aad88f6f4ce6ab8827279cfffb92266",
      "to": null,
      "contractAddress": "0xcf7ed3acca5a467e9e704c703e8d87f634fb0fc9"
    },
    {
      "status": "0x1",
      "cumulativeGasUsed": "0x3af61",
      "logs": [],
      "logsBloom": "0x00000000000000000000000000000000000000000000000000000000000000000000000000000000000000000000000000000000000000000000000000000000000000000000000000000000000000000000000000000000000000000000000000000000000000000000000000000000000000000000000000000000000000000000000000000000000000000000000000000000000000000000000000000000000000000000000000000000000000000000000000000000000000000000000000000000000000000000000000000000000000000000000000000000000000000000000000000000000000000000000000000000000000000000000000000000",
      "type": "0x2",
      "transactionHash": "0x471c80414bef22dc0f89db9dbc8219acd8ee31f427782b58becf5d9ffde82a77",
      "transactionIndex": "0x0",
      "blockHash": "0x4153167ce8c54ae325a62338d145e339db5d2f9b8aa8c684ecd54c513383e9e3",
      "blockNumber": "0x5",
      "gasUsed": "0x3af61",
      "effectiveGasPrice": "0x23e92d1b",
      "blobGasPrice": "0x1",
      "from": "0xf39fd6e51aad88f6f4ce6ab8827279cfffb92266",
      "to": null,
      "contractAddress": "0xdc64a140aa3e981100a9beca4e685f962f0cf6c9"
    },
    {
      "status": "0x1",
      "cumulativeGasUsed": "0x32984",
      "logs": [],
      "logsBloom": "0x00000000000000000000000000000000000000000000000000000000000000000000000000000000000000000000000000000000000000000000000000000000000000000000000000000000000000000000000000000000000000000000000000000000000000000000000000000000000000000000000000000000000000000000000000000000000000000000000000000000000000000000000000000000000000000000000000000000000000000000000000000000000000000000000000000000000000000000000000000000000000000000000000000000000000000000000000000000000000000000000000000000000000000000000000000000",
      "type": "0x2",
      "transactionHash": "0xa73e0eddf22552e0d233b1423698ce40725700d91f91daa95a8ea4a1eb5c8017",
      "transactionIndex": "0x0",
      "blockHash": "0x5b34948a91ffcfc212ae24f7969f794ef6a8c15626a21d2fdfda7c91ad8cddf1",
      "blockNumber": "0x6",
      "gasUsed": "0x32984",
      "effectiveGasPrice": "0x1f7e87e4",
      "blobGasPrice": "0x1",
      "from": "0xf39fd6e51aad88f6f4ce6ab8827279cfffb92266",
      "to": null,
      "contractAddress": "0x5fc8d32690cc91d4c39d9d3abcbd16989f875707"
    },
    {
      "status": "0x1",
      "cumulativeGasUsed": "0x343a8",
      "logs": [],
      "logsBloom": "0x00000000000000000000000000000000000000000000000000000000000000000000000000000000000000000000000000000000000000000000000000000000000000000000000000000000000000000000000000000000000000000000000000000000000000000000000000000000000000000000000000000000000000000000000000000000000000000000000000000000000000000000000000000000000000000000000000000000000000000000000000000000000000000000000000000000000000000000000000000000000000000000000000000000000000000000000000000000000000000000000000000000000000000000000000000000",
      "type": "0x2",
      "transactionHash": "0xb1b7afd0a400efa4913be9df03784cfb5dcf92e666754e694ab6e83fa578ee06",
      "transactionIndex": "0x0",
      "blockHash": "0x28b4c344f2fb0c68a8fd28802ebdab20cd36b945da174ca07f5fa896f929f905",
      "blockNumber": "0x7",
      "gasUsed": "0x343a8",
      "effectiveGasPrice": "0x1b9ca361",
      "blobGasPrice": "0x1",
      "from": "0xf39fd6e51aad88f6f4ce6ab8827279cfffb92266",
      "to": null,
      "contractAddress": "0x0165878a594ca255338adfa4d48449f69242eb8f"
    },
    {
      "status": "0x1",
      "cumulativeGasUsed": "0x25c5f",
      "logs": [],
      "logsBloom": "0x00000000000000000000000000000000000000000000000000000000000000000000000000000000000000000000000000000000000000000000000000000000000000000000000000000000000000000000000000000000000000000000000000000000000000000000000000000000000000000000000000000000000000000000000000000000000000000000000000000000000000000000000000000000000000000000000000000000000000000000000000000000000000000000000000000000000000000000000000000000000000000000000000000000000000000000000000000000000000000000000000000000000000000000000000000000",
      "type": "0x2",
      "transactionHash": "0x2cc3e1081fe871a631b94b181eadac5ef39af6b42badcc662ec724e439724314",
      "transactionIndex": "0x0",
      "blockHash": "0x3298a906fc6ffa2a4eccc96b67a46e75cdf08aec84d94cc8d511fba77a49d7d3",
      "blockNumber": "0x8",
      "gasUsed": "0x25c5f",
      "effectiveGasPrice": "0x1835a8f1",
      "blobGasPrice": "0x1",
      "from": "0xf39fd6e51aad88f6f4ce6ab8827279cfffb92266",
      "to": null,
      "contractAddress": "0xa513e6e4b8f2a923d98304ec87f64353c4d5c853"
    },
    {
      "status": "0x1",
      "cumulativeGasUsed": "0x2467f",
      "logs": [],
      "logsBloom": "0x00000000000000000000000000000000000000000000000000000000000000000000000000000000000000000000000000000000000000000000000000000000000000000000000000000000000000000000000000000000000000000000000000000000000000000000000000000000000000000000000000000000000000000000000000000000000000000000000000000000000000000000000000000000000000000000000000000000000000000000000000000000000000000000000000000000000000000000000000000000000000000000000000000000000000000000000000000000000000000000000000000000000000000000000000000000",
      "type": "0x2",
      "transactionHash": "0x77b4a23e3bb76ebc040008daed0bd5bad3988db880c60fea4c1c9a5b3b779d75",
      "transactionIndex": "0x0",
      "blockHash": "0x5d30e80730034c88f18a701bf84f959cd7f5d9a3612eb418c29ed709d2cdcfbe",
      "blockNumber": "0x9",
      "gasUsed": "0x2467f",
      "effectiveGasPrice": "0x1536f178",
      "blobGasPrice": "0x1",
      "from": "0xf39fd6e51aad88f6f4ce6ab8827279cfffb92266",
      "to": null,
      "contractAddress": "0x2279b7a0a67db372996a5fab50d91eaa73d2ebe6"
    },
    {
      "status": "0x1",
      "cumulativeGasUsed": "0x355be",
      "logs": [],
      "logsBloom": "0x00000000000000000000000000000000000000000000000000000000000000000000000000000000000000000000000000000000000000000000000000000000000000000000000000000000000000000000000000000000000000000000000000000000000000000000000000000000000000000000000000000000000000000000000000000000000000000000000000000000000000000000000000000000000000000000000000000000000000000000000000000000000000000000000000000000000000000000000000000000000000000000000000000000000000000000000000000000000000000000000000000000000000000000000000000000",
      "type": "0x2",
      "transactionHash": "0x1b3a4aa476b9a57e6a15a2d92a7d80221c945dc488da4e6a9f31f638d7e619c4",
      "transactionIndex": "0x0",
      "blockHash": "0xf8f093fd663fc5405dc3cdd85444057d3eec5bf9fb9dacc83f427d4d25a990c7",
      "blockNumber": "0xa",
      "gasUsed": "0x355be",
      "effectiveGasPrice": "0x1296d2fb",
      "blobGasPrice": "0x1",
      "from": "0xf39fd6e51aad88f6f4ce6ab8827279cfffb92266",
      "to": null,
      "contractAddress": "0x8a791620dd6260079bf849dc5567adc3f2fdc318"
    },
    {
      "status": "0x1",
      "cumulativeGasUsed": "0x34c54",
      "logs": [],
      "logsBloom": "0x00000000000000000000000000000000000000000000000000000000000000000000000000000000000000000000000000000000000000000000000000000000000000000000000000000000000000000000000000000000000000000000000000000000000000000000000000000000000000000000000000000000000000000000000000000000000000000000000000000000000000000000000000000000000000000000000000000000000000000000000000000000000000000000000000000000000000000000000000000000000000000000000000000000000000000000000000000000000000000000000000000000000000000000000000000000",
      "type": "0x2",
      "transactionHash": "0xb16ccc8fe34da7472072b386a66117dd1f86ee8785fc068bca38d13126fd94b6",
      "transactionIndex": "0x0",
      "blockHash": "0x82a1daccd255b6b1863534a85f82f11953477c46c652b45f3d16e1e0286ecc20",
      "blockNumber": "0xb",
      "gasUsed": "0x34c54",
      "effectiveGasPrice": "0x104ca372",
      "blobGasPrice": "0x1",
      "from": "0xf39fd6e51aad88f6f4ce6ab8827279cfffb92266",
      "to": null,
      "contractAddress": "0x610178da211fef7d417bc0e6fed39f05609ad788"
    },
    {
      "status": "0x1",
      "cumulativeGasUsed": "0x98441",
      "logs": [],
      "logsBloom": "0x00000000000000000000000000000000000000000000000000000000000000000000000000000000000000000000000000000000000000000000000000000000000000000000000000000000000000000000000000000000000000000000000000000000000000000000000000000000000000000000000000000000000000000000000000000000000000000000000000000000000000000000000000000000000000000000000000000000000000000000000000000000000000000000000000000000000000000000000000000000000000000000000000000000000000000000000000000000000000000000000000000000000000000000000000000000",
      "type": "0x2",
      "transactionHash": "0x40b129067f1ceb449995c22ea9b20768cd5c1c9b68c333da6b279670d1ac004d",
      "transactionIndex": "0x0",
      "blockHash": "0x9a3160932974b666606635a2f3473fad4066d729f3f65a0602e5e924f086f74a",
      "blockNumber": "0xc",
      "gasUsed": "0x98441",
      "effectiveGasPrice": "0xe4a9316",
      "blobGasPrice": "0x1",
      "from": "0xf39fd6e51aad88f6f4ce6ab8827279cfffb92266",
      "to": null,
      "contractAddress": "0xb7f8bc63bbcad18155201308c8f3540b07f84f5e"
    },
    {
      "status": "0x1",
      "cumulativeGasUsed": "0x77509",
      "logs": [],
      "logsBloom": "0x00000000000000000000000000000000000000000000000000000000000000000000000000000000000000000000000000000000000000000000000000000000000000000000000000000000000000000000000000000000000000000000000000000000000000000000000000000000000000000000000000000000000000000000000000000000000000000000000000000000000000000000000000000000000000000000000000000000000000000000000000000000000000000000000000000000000000000000000000000000000000000000000000000000000000000000000000000000000000000000000000000000000000000000000000000000",
      "type": "0x2",
      "transactionHash": "0x165c4189dcd6c002f2b93f5995310da2766424abf6b83e8babd99862ce3026bb",
      "transactionIndex": "0x0",
      "blockHash": "0xe825362d74839208dc42ddedd13ab07efe1584940be1644413c2718faf9c899c",
      "blockNumber": "0xd",
      "gasUsed": "0x77509",
      "effectiveGasPrice": "0xc944482",
      "blobGasPrice": "0x1",
      "from": "0xf39fd6e51aad88f6f4ce6ab8827279cfffb92266",
      "to": null,
      "contractAddress": "0xa51c1fc2f0d1a1b8494ed1fe312d7c3a78ed91c0"
    },
    {
      "status": "0x1",
      "cumulativeGasUsed": "0x251c7",
      "logs": [],
      "logsBloom": "0x00000000000000000000000000000000000000000000000000000000000000000000000000000000000000000000000000000000000000000000000000000000000000000000000000000000000000000000000000000000000000000000000000000000000000000000000000000000000000000000000000000000000000000000000000000000000000000000000000000000000000000000000000000000000000000000000000000000000000000000000000000000000000000000000000000000000000000000000000000000000000000000000000000000000000000000000000000000000000000000000000000000000000000000000000000000",
      "type": "0x2",
      "transactionHash": "0xb505c76d348ff0240aa1f719b0839c6b65bfbf74c6f9a459c56087e1d96b5ed8",
      "transactionIndex": "0x0",
      "blockHash": "0x1ec68eb912c0367a4d83bdb56d53b81bf8b4826209297013daff507c2dc7a405",
      "blockNumber": "0xe",
      "gasUsed": "0x251c7",
      "effectiveGasPrice": "0xb0ed95c",
      "blobGasPrice": "0x1",
      "from": "0xf39fd6e51aad88f6f4ce6ab8827279cfffb92266",
      "to": null,
      "contractAddress": "0x0dcd1bf9a1b36ce34237eeafef220932846bcd82"
    },
    {
      "status": "0x1",
      "cumulativeGasUsed": "0x8e937",
      "logs": [
        {
          "address": "0xe7f1725e7734ce288f8367e1bb143e90bb3f0512",
          "topics": [
            "0xac631f3001b55ea1509cf3d7e74898f85392a61a76e8149181ae1259622dabc8",
            "0x000000000000000000000000fa02dff43fad54ed35ea6d2676b4d0a4f5526965",
            "0x00000000000000000000000070997970c51812dc3a010c7d01b50e0d17dc79c8"
          ],
          "data": "0x",
          "blockHash": "0xe5db2ed9713ef2603d66bc5a9be0e2fc43c4c822110bab2734ea2952ca6fa8d4",
          "blockNumber": "0xf",
          "blockTimestamp": "0x69b145fd",
          "transactionHash": "0x968fb5185a802d9e1ea0effff8b61d394efd7a07ae1da3b566725f2fb6ce66ab",
          "transactionIndex": "0x0",
          "logIndex": "0x0",
          "removed": false
        }
      ],
      "logsBloom": "0x00000000000000000002000000000000000000000000000000200000000000000000000000000000000000000000000010000000000000000000000000000000000000000000080000000000000000000000000000000000000000000000000000000800000000000000000000000000000000000000000000000000000000000000000000000000000000000000004001000000000000000000000000000000000000000000000000000000000000000000000000000000000000000000000000000000000000000000000000001000000000000000000000000000000000000000000000000000000000040000001001000000000000800000000000000000",
      "type": "0x2",
      "transactionHash": "0x968fb5185a802d9e1ea0effff8b61d394efd7a07ae1da3b566725f2fb6ce66ab",
      "transactionIndex": "0x0",
      "blockHash": "0xe5db2ed9713ef2603d66bc5a9be0e2fc43c4c822110bab2734ea2952ca6fa8d4",
      "blockNumber": "0xf",
      "gasUsed": "0x8e937",
      "effectiveGasPrice": "0x9b0942f",
      "blobGasPrice": "0x1",
      "from": "0xf39fd6e51aad88f6f4ce6ab8827279cfffb92266",
      "to": "0xe7f1725e7734ce288f8367e1bb143e90bb3f0512",
      "contractAddress": null
    },
    {
      "status": "0x1",
      "cumulativeGasUsed": "0x226f4",
      "logs": [
        {
          "address": "0x9fe46736679d2d9a65f0992f2272de9f3c7fa6e0",
          "topics": [
            "0x0d063c6022bff16d09991a9f91882ffa112f5fb2529136f65eb4c77bbd047e43",
            "0x0000000000000000000000000000000000000000000000000000000000000001",
            "0x0000000000000000000000003c44cdddb6a900fa2b585dd299e03d12fa4293bc"
          ],
          "data": "0x0000000000000000000000000000000000000000000000000000000000000020000000000000000000000000000000000000000000000000000000000000001a697066733a2f2f6167656e742d6d657461646174612e6a736f6e000000000000",
          "blockHash": "0xb51b6d9396aaa199b9e8aec70c5776da94afa76857115d42ddfe827ff4853610",
          "blockNumber": "0x10",
          "blockTimestamp": "0x69b145fd",
          "transactionHash": "0x7a84cf70bd791d7abaf0c9aa2e32dc3629e6590a405772927dc23a8db58cf43d",
          "transactionIndex": "0x0",
          "logIndex": "0x0",
          "removed": false
        }
      ],
      "logsBloom": "0x000000000000000000000000000000000000000000000000000000000000000000000000000000000000000000000000000000000000402000000000001400000000000000000000000000000000000000000000000400000000000000000000000000000000000000000000000000000008000000000000000000000000000000000000000000000000000000000000000000000000000000000000000000000000000000002000000000000000000000000000000000000000000000000000000000000000004000000000000100000000000000000000000000000000c0000000000000000000000000000000000000000000000000400000000000000000",
      "type": "0x2",
      "transactionHash": "0x7a84cf70bd791d7abaf0c9aa2e32dc3629e6590a405772927dc23a8db58cf43d",
      "transactionIndex": "0x0",
      "blockHash": "0xb51b6d9396aaa199b9e8aec70c5776da94afa76857115d42ddfe827ff4853610",
      "blockNumber": "0x10",
      "gasUsed": "0x226f4",
      "effectiveGasPrice": "0x8869416",
      "blobGasPrice": "0x1",
      "from": "0x3c44cdddb6a900fa2b585dd299e03d12fa4293bc",
      "to": "0x9fe46736679d2d9a65f0992f2272de9f3c7fa6e0",
      "contractAddress": null
    },
    {
      "status": "0x1",
      "cumulativeGasUsed": "0x11d7c",
      "logs": [
        {
          "address": "0xcf7ed3acca5a467e9e704c703e8d87f634fb0fc9",
          "topics": [
            "0xb61cc7383c4aeab2faaae0ac5c8c79434fe547fcd8ab0496f2381970de190a7e",
            "0x0000000000000000000000000000000000000000000000000000000000000001",
            "0x000000000000000000000000f39fd6e51aad88f6f4ce6ab8827279cfffb92266"
          ],
          "data": "0x00000000000000000000000000000000000000000000000000000000000000010000000000000000000000000000000000000000000000000000000000000034",
          "blockHash": "0x7b980ec6a555f6b54f2b157401adb4e9dc0f1f33ee80d96d1ab33b65e5759f44",
          "blockNumber": "0x11",
          "blockTimestamp": "0x69b145fd",
          "transactionHash": "0x8073e5147d9b9d437e3b786209d0741fcb65bdcb0333a5207736a4ac11dc1b04",
          "transactionIndex": "0x0",
          "logIndex": "0x0",
          "removed": false
        }
      ],
      "logsBloom": "0x00000000000000000000000000000000000000000000000000000000000000000000000000000000000000000000080000000000000000000000000000040001000000010000000000000000000000000000000000040000000000040000000000000000000000000000000100000000000000000000000000000000000000000000000008000000000000000000000000000000000000000000000000000000000000000000000000000000000000000000000000000000002000000000000000000000000000200000000000000000000000002000000000000000000040000000000000000000000000000000000000000000000000000000000000000000",
      "type": "0x2",
      "transactionHash": "0x8073e5147d9b9d437e3b786209d0741fcb65bdcb0333a5207736a4ac11dc1b04",
      "transactionIndex": "0x0",
      "blockHash": "0x7b980ec6a555f6b54f2b157401adb4e9dc0f1f33ee80d96d1ab33b65e5759f44",
      "blockNumber": "0x11",
      "gasUsed": "0x11d7c",
      "effectiveGasPrice": "0x778524d",
      "blobGasPrice": "0x1",
      "from": "0xf39fd6e51aad88f6f4ce6ab8827279cfffb92266",
      "to": "0xcf7ed3acca5a467e9e704c703e8d87f634fb0fc9",
      "contractAddress": null
    },
    {
      "status": "0x1",
      "cumulativeGasUsed": "0x8ac0",
      "logs": [
        {
          "address": "0xcf7ed3acca5a467e9e704c703e8d87f634fb0fc9",
          "topics": [
            "0xb61cc7383c4aeab2faaae0ac5c8c79434fe547fcd8ab0496f2381970de190a7e",
            "0x0000000000000000000000000000000000000000000000000000000000000001",
            "0x000000000000000000000000f39fd6e51aad88f6f4ce6ab8827279cfffb92266"
          ],
          "data": "0x00000000000000000000000000000000000000000000000000000000000000010000000000000000000000000000000000000000000000000000000000000036",
          "blockHash": "0x5eff7d9c484468a9d306e9feefb96d283a337a639a300b314832e37dbcbeea76",
          "blockNumber": "0x12",
          "blockTimestamp": "0x69b145fd",
          "transactionHash": "0x4eba9e32ecd9e4b0d2d9d47b1b90fdce1e7f7b64446e58ab8d59af2239367ce1",
          "transactionIndex": "0x0",
          "logIndex": "0x0",
          "removed": false
        }
      ],
      "logsBloom": "0x00000000000000000000000000000000000000000000000000000000000000000000000000000000000000000000080000000000000000000000000000040001000000010000000000000000000000000000000000040000000000040000000000000000000000000000000100000000000000000000000000000000000000000000000008000000000000000000000000000000000000000000000000000000000000000000000000000000000000000000000000000000002000000000000000000000000000200000000000000000000000002000000000000000000040000000000000000000000000000000000000000000000000000000000000000000",
      "type": "0x2",
      "transactionHash": "0x4eba9e32ecd9e4b0d2d9d47b1b90fdce1e7f7b64446e58ab8d59af2239367ce1",
      "transactionIndex": "0x0",
      "blockHash": "0x5eff7d9c484468a9d306e9feefb96d283a337a639a300b314832e37dbcbeea76",
      "blockNumber": "0x12",
      "gasUsed": "0x8ac0",
      "effectiveGasPrice": "0x68a722c",
      "blobGasPrice": "0x1",
      "from": "0xf39fd6e51aad88f6f4ce6ab8827279cfffb92266",
      "to": "0xcf7ed3acca5a467e9e704c703e8d87f634fb0fc9",
      "contractAddress": null
    },
    {
      "status": "0x1",
      "cumulativeGasUsed": "0x8ac0",
      "logs": [
        {
          "address": "0xcf7ed3acca5a467e9e704c703e8d87f634fb0fc9",
          "topics": [
            "0xb61cc7383c4aeab2faaae0ac5c8c79434fe547fcd8ab0496f2381970de190a7e",
            "0x0000000000000000000000000000000000000000000000000000000000000001",
            "0x000000000000000000000000f39fd6e51aad88f6f4ce6ab8827279cfffb92266"
          ],
          "data": "0x00000000000000000000000000000000000000000000000000000000000000010000000000000000000000000000000000000000000000000000000000000038",
          "blockHash": "0x29eea360bbb5d7552a5c62fcfd2e30454cbb67f4fd4bab7ef2ee9ea55824cc96",
          "blockNumber": "0x13",
          "blockTimestamp": "0x69b145fd",
          "transactionHash": "0x7b20cea2c9d50c291202c4092519f7144879a8b8ae6afe6c8402ca120d8f1b14",
          "transactionIndex": "0x0",
          "logIndex": "0x0",
          "removed": false
        }
      ],
      "logsBloom": "0x00000000000000000000000000000000000000000000000000000000000000000000000000000000000000000000080000000000000000000000000000040001000000010000000000000000000000000000000000040000000000040000000000000000000000000000000100000000000000000000000000000000000000000000000008000000000000000000000000000000000000000000000000000000000000000000000000000000000000000000000000000000002000000000000000000000000000200000000000000000000000002000000000000000000040000000000000000000000000000000000000000000000000000000000000000000",
      "type": "0x2",
      "transactionHash": "0x7b20cea2c9d50c291202c4092519f7144879a8b8ae6afe6c8402ca120d8f1b14",
      "transactionIndex": "0x0",
      "blockHash": "0x29eea360bbb5d7552a5c62fcfd2e30454cbb67f4fd4bab7ef2ee9ea55824cc96",
      "blockNumber": "0x13",
      "gasUsed": "0x8ac0",
      "effectiveGasPrice": "0x5b9a2c9",
      "blobGasPrice": "0x1",
      "from": "0xf39fd6e51aad88f6f4ce6ab8827279cfffb92266",
      "to": "0xcf7ed3acca5a467e9e704c703e8d87f634fb0fc9",
      "contractAddress": null
    },
    {
      "status": "0x1",
      "cumulativeGasUsed": "0x8ac0",
      "logs": [
        {
          "address": "0xcf7ed3acca5a467e9e704c703e8d87f634fb0fc9",
          "topics": [
            "0xb61cc7383c4aeab2faaae0ac5c8c79434fe547fcd8ab0496f2381970de190a7e",
            "0x0000000000000000000000000000000000000000000000000000000000000001",
            "0x000000000000000000000000f39fd6e51aad88f6f4ce6ab8827279cfffb92266"
          ],
          "data": "0x0000000000000000000000000000000000000000000000000000000000000001000000000000000000000000000000000000000000000000000000000000003a",
          "blockHash": "0xf808272c6c5ad96529c75f802f871aa22266bf1d983a4645fc376efa8ff17dd3",
          "blockNumber": "0x14",
          "blockTimestamp": "0x69b145fd",
          "transactionHash": "0x74738d7546c4ceb45ceb52f471627a10b55a2a109cfb9389f530f78f0da7a14c",
          "transactionIndex": "0x0",
          "logIndex": "0x0",
          "removed": false
        }
      ],
      "logsBloom": "0x00000000000000000000000000000000000000000000000000000000000000000000000000000000000000000000080000000000000000000000000000040001000000010000000000000000000000000000000000040000000000040000000000000000000000000000000100000000000000000000000000000000000000000000000008000000000000000000000000000000000000000000000000000000000000000000000000000000000000000000000000000000002000000000000000000000000000200000000000000000000000002000000000000000000040000000000000000000000000000000000000000000000000000000000000000000",
      "type": "0x2",
      "transactionHash": "0x74738d7546c4ceb45ceb52f471627a10b55a2a109cfb9389f530f78f0da7a14c",
      "transactionIndex": "0x0",
      "blockHash": "0xf808272c6c5ad96529c75f802f871aa22266bf1d983a4645fc376efa8ff17dd3",
      "blockNumber": "0x14",
      "gasUsed": "0x8ac0",
      "effectiveGasPrice": "0x502dd80",
      "blobGasPrice": "0x1",
      "from": "0xf39fd6e51aad88f6f4ce6ab8827279cfffb92266",
      "to": "0xcf7ed3acca5a467e9e704c703e8d87f634fb0fc9",
      "contractAddress": null
    },
    {
      "status": "0x1",
      "cumulativeGasUsed": "0x8ac0",
      "logs": [
        {
          "address": "0xcf7ed3acca5a467e9e704c703e8d87f634fb0fc9",
          "topics": [
            "0xb61cc7383c4aeab2faaae0ac5c8c79434fe547fcd8ab0496f2381970de190a7e",
            "0x0000000000000000000000000000000000000000000000000000000000000001",
            "0x000000000000000000000000f39fd6e51aad88f6f4ce6ab8827279cfffb92266"
          ],
          "data": "0x0000000000000000000000000000000000000000000000000000000000000001000000000000000000000000000000000000000000000000000000000000003c",
          "blockHash": "0xabc7ad0d9af388b9fbaf6c3e52ee539f32c06a836e9c1dde589ee00649f4c5af",
          "blockNumber": "0x15",
          "blockTimestamp": "0x69b145fd",
          "transactionHash": "0xbbdd030ca48c4405c7fda1319568c94475e812d9338d0440035952d60194a57e",
          "transactionIndex": "0x0",
          "logIndex": "0x0",
          "removed": false
        }
      ],
      "logsBloom": "0x00000000000000000000000000000000000000000000000000000000000000000000000000000000000000000000080000000000000000000000000000040001000000010000000000000000000000000000000000040000000000040000000000000000000000000000000100000000000000000000000000000000000000000000000008000000000000000000000000000000000000000000000000000000000000000000000000000000000000000000000000000000002000000000000000000000000000200000000000000000000000002000000000000000000040000000000000000000000000000000000000000000000000000000000000000000",
      "type": "0x2",
      "transactionHash": "0xbbdd030ca48c4405c7fda1319568c94475e812d9338d0440035952d60194a57e",
      "transactionIndex": "0x0",
      "blockHash": "0xabc7ad0d9af388b9fbaf6c3e52ee539f32c06a836e9c1dde589ee00649f4c5af",
      "blockNumber": "0x15",
      "gasUsed": "0x8ac0",
      "effectiveGasPrice": "0x462e306",
      "blobGasPrice": "0x1",
      "from": "0xf39fd6e51aad88f6f4ce6ab8827279cfffb92266",
      "to": "0xcf7ed3acca5a467e9e704c703e8d87f634fb0fc9",
      "contractAddress": null
    },
    {
      "status": "0x1",
      "cumulativeGasUsed": "0x8ac0",
      "logs": [
        {
          "address": "0xcf7ed3acca5a467e9e704c703e8d87f634fb0fc9",
          "topics": [
            "0xb61cc7383c4aeab2faaae0ac5c8c79434fe547fcd8ab0496f2381970de190a7e",
            "0x0000000000000000000000000000000000000000000000000000000000000001",
            "0x000000000000000000000000f39fd6e51aad88f6f4ce6ab8827279cfffb92266"
          ],
          "data": "0x0000000000000000000000000000000000000000000000000000000000000001000000000000000000000000000000000000000000000000000000000000003e",
          "blockHash": "0x1335e9b57e6331e6161c763158fa89a731dfc52d417ea91e6e122b99c5f51b17",
          "blockNumber": "0x16",
          "blockTimestamp": "0x69b145fd",
          "transactionHash": "0x30f6cef34710a2cfdeeb3265377d2ae9c16fe3450911d64b478d44811faad85f",
          "transactionIndex": "0x0",
          "logIndex": "0x0",
          "removed": false
        }
      ],
      "logsBloom": "0x00000000000000000000000000000000000000000000000000000000000000000000000000000000000000000000080000000000000000000000000000040001000000010000000000000000000000000000000000040000000000040000000000000000000000000000000100000000000000000000000000000000000000000000000008000000000000000000000000000000000000000000000000000000000000000000000000000000000000000000000000000000002000000000000000000000000000200000000000000000000000002000000000000000000040000000000000000000000000000000000000000000000000000000000000000000",
      "type": "0x2",
      "transactionHash": "0x30f6cef34710a2cfdeeb3265377d2ae9c16fe3450911d64b478d44811faad85f",
      "transactionIndex": "0x0",
      "blockHash": "0x1335e9b57e6331e6161c763158fa89a731dfc52d417ea91e6e122b99c5f51b17",
      "blockNumber": "0x16",
      "gasUsed": "0x8ac0",
      "effectiveGasPrice": "0x3d6dbbc",
      "blobGasPrice": "0x1",
      "from": "0xf39fd6e51aad88f6f4ce6ab8827279cfffb92266",
      "to": "0xcf7ed3acca5a467e9e704c703e8d87f634fb0fc9",
      "contractAddress": null
    },
    {
      "status": "0x1",
      "cumulativeGasUsed": "0x8ac0",
      "logs": [
        {
          "address": "0xcf7ed3acca5a467e9e704c703e8d87f634fb0fc9",
          "topics": [
            "0xb61cc7383c4aeab2faaae0ac5c8c79434fe547fcd8ab0496f2381970de190a7e",
            "0x0000000000000000000000000000000000000000000000000000000000000001",
            "0x000000000000000000000000f39fd6e51aad88f6f4ce6ab8827279cfffb92266"
          ],
          "data": "0x00000000000000000000000000000000000000000000000000000000000000010000000000000000000000000000000000000000000000000000000000000040",
          "blockHash": "0x04756a0cc6dad1c0d09ccb2c223bc63b27994192a7f83cff99b759c5a3e2545f",
          "blockNumber": "0x17",
          "blockTimestamp": "0x69b145fd",
          "transactionHash": "0x9c2cc2058b367c8a30998263ecbba4fdf16eeb3fd4c78ba732a03125f9d0c38c",
          "transactionIndex": "0x0",
          "logIndex": "0x0",
          "removed": false
        }
      ],
      "logsBloom": "0x00000000000000000000000000000000000000000000000000000000000000000000000000000000000000000000080000000000000000000000000000040001000000010000000000000000000000000000000000040000000000040000000000000000000000000000000100000000000000000000000000000000000000000000000008000000000000000000000000000000000000000000000000000000000000000000000000000000000000000000000000000000002000000000000000000000000000200000000000000000000000002000000000000000000040000000000000000000000000000000000000000000000000000000000000000000",
      "type": "0x2",
      "transactionHash": "0x9c2cc2058b367c8a30998263ecbba4fdf16eeb3fd4c78ba732a03125f9d0c38c",
      "transactionIndex": "0x0",
      "blockHash": "0x04756a0cc6dad1c0d09ccb2c223bc63b27994192a7f83cff99b759c5a3e2545f",
      "blockNumber": "0x17",
      "gasUsed": "0x8ac0",
      "effectiveGasPrice": "0x35c4abf",
      "blobGasPrice": "0x1",
      "from": "0xf39fd6e51aad88f6f4ce6ab8827279cfffb92266",
      "to": "0xcf7ed3acca5a467e9e704c703e8d87f634fb0fc9",
      "contractAddress": null
    },
    {
      "status": "0x1",
      "cumulativeGasUsed": "0x8ac0",
      "logs": [
        {
          "address": "0xcf7ed3acca5a467e9e704c703e8d87f634fb0fc9",
          "topics": [
            "0xb61cc7383c4aeab2faaae0ac5c8c79434fe547fcd8ab0496f2381970de190a7e",
            "0x0000000000000000000000000000000000000000000000000000000000000001",
            "0x000000000000000000000000f39fd6e51aad88f6f4ce6ab8827279cfffb92266"
          ],
          "data": "0x00000000000000000000000000000000000000000000000000000000000000010000000000000000000000000000000000000000000000000000000000000042",
          "blockHash": "0x7f5688ea2e904ac85791411053b757b3d9e8305efee89deacdf4ffd1f5b44053",
          "blockNumber": "0x18",
          "blockTimestamp": "0x69b145fd",
          "transactionHash": "0xec8b310d441b6f87bde04d19881fe253895211b1dbb0c384e991b7f32780a0f4",
          "transactionIndex": "0x0",
          "logIndex": "0x0",
          "removed": false
        }
      ],
      "logsBloom": "0x00000000000000000000000000000000000000000000000000000000000000000000000000000000000000000000080000000000000000000000000000040001000000010000000000000000000000000000000000040000000000040000000000000000000000000000000100000000000000000000000000000000000000000000000008000000000000000000000000000000000000000000000000000000000000000000000000000000000000000000000000000000002000000000000000000000000000200000000000000000000000002000000000000000000040000000000000000000000000000000000000000000000000000000000000000000",
      "type": "0x2",
      "transactionHash": "0xec8b310d441b6f87bde04d19881fe253895211b1dbb0c384e991b7f32780a0f4",
      "transactionIndex": "0x0",
      "blockHash": "0x7f5688ea2e904ac85791411053b757b3d9e8305efee89deacdf4ffd1f5b44053",
      "blockNumber": "0x18",
      "gasUsed": "0x8ac0",
      "effectiveGasPrice": "0x2f10298",
      "blobGasPrice": "0x1",
      "from": "0xf39fd6e51aad88f6f4ce6ab8827279cfffb92266",
      "to": "0xcf7ed3acca5a467e9e704c703e8d87f634fb0fc9",
      "contractAddress": null
    },
    {
      "status": "0x1",
      "cumulativeGasUsed": "0x8ac0",
      "logs": [
        {
          "address": "0xcf7ed3acca5a467e9e704c703e8d87f634fb0fc9",
          "topics": [
            "0xb61cc7383c4aeab2faaae0ac5c8c79434fe547fcd8ab0496f2381970de190a7e",
            "0x0000000000000000000000000000000000000000000000000000000000000001",
            "0x000000000000000000000000f39fd6e51aad88f6f4ce6ab8827279cfffb92266"
          ],
          "data": "0x00000000000000000000000000000000000000000000000000000000000000010000000000000000000000000000000000000000000000000000000000000044",
          "blockHash": "0xe4c251c6bb1771433ebc05613f364262eb0b8d56ffb9c8526456748c5f2b55f1",
          "blockNumber": "0x19",
          "blockTimestamp": "0x69b145fd",
          "transactionHash": "0xc9c64b1cb2e871bae54d7dffaf06637e32f65eeb666b0364cf1be63c3cc1b802",
          "transactionIndex": "0x0",
          "logIndex": "0x0",
          "removed": false
        }
      ],
      "logsBloom": "0x00000000000000000000000000000000000000000000000000000000000000000000000000000000000000000000080000000000000000000000000000040001000000010000000000000000000000000000000000040000000000040000000000000000000000000000000100000000000000000000000000000000000000000000000008000000000000000000000000000000000000000000000000000000000000000000000000000000000000000000000000000000002000000000000000000000000000200000000000000000000000002000000000000000000040000000000000000000000000000000000000000000000000000000000000000000",
      "type": "0x2",
      "transactionHash": "0xc9c64b1cb2e871bae54d7dffaf06637e32f65eeb666b0364cf1be63c3cc1b802",
      "transactionIndex": "0x0",
      "blockHash": "0xe4c251c6bb1771433ebc05613f364262eb0b8d56ffb9c8526456748c5f2b55f1",
      "blockNumber": "0x19",
      "gasUsed": "0x8ac0",
      "effectiveGasPrice": "0x2931b55",
      "blobGasPrice": "0x1",
      "from": "0xf39fd6e51aad88f6f4ce6ab8827279cfffb92266",
      "to": "0xcf7ed3acca5a467e9e704c703e8d87f634fb0fc9",
      "contractAddress": null
    },
    {
      "status": "0x1",
      "cumulativeGasUsed": "0x8ac0",
      "logs": [
        {
          "address": "0xcf7ed3acca5a467e9e704c703e8d87f634fb0fc9",
          "topics": [
            "0xb61cc7383c4aeab2faaae0ac5c8c79434fe547fcd8ab0496f2381970de190a7e",
            "0x0000000000000000000000000000000000000000000000000000000000000001",
            "0x000000000000000000000000f39fd6e51aad88f6f4ce6ab8827279cfffb92266"
          ],
          "data": "0x00000000000000000000000000000000000000000000000000000000000000010000000000000000000000000000000000000000000000000000000000000046",
          "blockHash": "0x3df8b2edea957e61744c98b1cbcd371615b3762f78dfd846aa379da495eee4c9",
          "blockNumber": "0x1a",
          "blockTimestamp": "0x69b145fd",
          "transactionHash": "0x6a46db2e9680cfbb17508aa0534cd6529960a51b0bd2495c91f8c4b60d307aa7",
          "transactionIndex": "0x0",
          "logIndex": "0x0",
          "removed": false
        }
      ],
      "logsBloom": "0x00000000000000000000000000000000000000000000000000000000000000000000000000000000000000000000080000000000000000000000000000040001000000010000000000000000000000000000000000040000000000040000000000000000000000000000000100000000000000000000000000000000000000000000000008000000000000000000000000000000000000000000000000000000000000000000000000000000000000000000000000000000002000000000000000000000000000200000000000000000000000002000000000000000000040000000000000000000000000000000000000000000000000000000000000000000",
      "type": "0x2",
      "transactionHash": "0x6a46db2e9680cfbb17508aa0534cd6529960a51b0bd2495c91f8c4b60d307aa7",
      "transactionIndex": "0x0",
      "blockHash": "0x3df8b2edea957e61744c98b1cbcd371615b3762f78dfd846aa379da495eee4c9",
      "blockNumber": "0x1a",
      "gasUsed": "0x8ac0",
      "effectiveGasPrice": "0x240e9dd",
      "blobGasPrice": "0x1",
      "from": "0xf39fd6e51aad88f6f4ce6ab8827279cfffb92266",
      "to": "0xcf7ed3acca5a467e9e704c703e8d87f634fb0fc9",
      "contractAddress": null
    },
    {
      "status": "0x1",
      "cumulativeGasUsed": "0x8ac0",
      "logs": [
        {
          "address": "0xcf7ed3acca5a467e9e704c703e8d87f634fb0fc9",
          "topics": [
            "0xb61cc7383c4aeab2faaae0ac5c8c79434fe547fcd8ab0496f2381970de190a7e",
            "0x0000000000000000000000000000000000000000000000000000000000000001",
            "0x000000000000000000000000f39fd6e51aad88f6f4ce6ab8827279cfffb92266"
          ],
          "data": "0x00000000000000000000000000000000000000000000000000000000000000010000000000000000000000000000000000000000000000000000000000000048",
          "blockHash": "0xa79cc4965bc8221fa37676c1faff33fcdb79bf35754faba1b556fbc465e62403",
          "blockNumber": "0x1b",
          "blockTimestamp": "0x69b145fd",
          "transactionHash": "0x7a839fa8edc69dc8fe5bb940adb736a61dfed854e72ee788790dd33cf31ad50d",
          "transactionIndex": "0x0",
          "logIndex": "0x0",
          "removed": false
        }
      ],
      "logsBloom": "0x00000000000000000000000000000000000000000000000000000000000000000000000000000000000000000000080000000000000000000000000000040001000000010000000000000000000000000000000000040000000000040000000000000000000000000000000100000000000000000000000000000000000000000000000008000000000000000000000000000000000000000000000000000000000000000000000000000000000000000000000000000000002000000000000000000000000000200000000000000000000000002000000000000000000040000000000000000000000000000000000000000000000000000000000000000000",
      "type": "0x2",
      "transactionHash": "0x7a839fa8edc69dc8fe5bb940adb736a61dfed854e72ee788790dd33cf31ad50d",
      "transactionIndex": "0x0",
      "blockHash": "0xa79cc4965bc8221fa37676c1faff33fcdb79bf35754faba1b556fbc465e62403",
      "blockNumber": "0x1b",
      "gasUsed": "0x8ac0",
      "effectiveGasPrice": "0x1f8f859",
      "blobGasPrice": "0x1",
      "from": "0xf39fd6e51aad88f6f4ce6ab8827279cfffb92266",
      "to": "0xcf7ed3acca5a467e9e704c703e8d87f634fb0fc9",
      "contractAddress": null
    },
    {
      "status": "0x1",
      "cumulativeGasUsed": "0x8ac0",
      "logs": [
        {
          "address": "0xcf7ed3acca5a467e9e704c703e8d87f634fb0fc9",
          "topics": [
            "0xb61cc7383c4aeab2faaae0ac5c8c79434fe547fcd8ab0496f2381970de190a7e",
            "0x0000000000000000000000000000000000000000000000000000000000000001",
            "0x000000000000000000000000f39fd6e51aad88f6f4ce6ab8827279cfffb92266"
          ],
          "data": "0x0000000000000000000000000000000000000000000000000000000000000001000000000000000000000000000000000000000000000000000000000000004a",
          "blockHash": "0x1d09328dccff2c8700a53978f9fd4c3c5c640ae1ce303cfe50b19f30f1111870",
          "blockNumber": "0x1c",
          "blockTimestamp": "0x69b145fd",
          "transactionHash": "0x81906c91822bca758326d8ebafcda09542f9703dd6b731d05e0b511984c2bd66",
          "transactionIndex": "0x0",
          "logIndex": "0x0",
          "removed": false
        }
      ],
      "logsBloom": "0x00000000000000000000000000000000000000000000000000000000000000000000000000000000000000000000080000000000000000000000000000040001000000010000000000000000000000000000000000040000000000040000000000000000000000000000000100000000000000000000000000000000000000000000000008000000000000000000000000000000000000000000000000000000000000000000000000000000000000000000000000000000002000000000000000000000000000200000000000000000000000002000000000000000000040000000000000000000000000000000000000000000000000000000000000000000",
      "type": "0x2",
      "transactionHash": "0x81906c91822bca758326d8ebafcda09542f9703dd6b731d05e0b511984c2bd66",
      "transactionIndex": "0x0",
      "blockHash": "0x1d09328dccff2c8700a53978f9fd4c3c5c640ae1ce303cfe50b19f30f1111870",
      "blockNumber": "0x1c",
      "gasUsed": "0x8ac0",
      "effectiveGasPrice": "0x1b9ff92",
      "blobGasPrice": "0x1",
      "from": "0xf39fd6e51aad88f6f4ce6ab8827279cfffb92266",
      "to": "0xcf7ed3acca5a467e9e704c703e8d87f634fb0fc9",
      "contractAddress": null
    },
    {
      "status": "0x1",
      "cumulativeGasUsed": "0x8ac0",
      "logs": [
        {
          "address": "0xcf7ed3acca5a467e9e704c703e8d87f634fb0fc9",
          "topics": [
            "0xb61cc7383c4aeab2faaae0ac5c8c79434fe547fcd8ab0496f2381970de190a7e",
            "0x0000000000000000000000000000000000000000000000000000000000000001",
            "0x000000000000000000000000f39fd6e51aad88f6f4ce6ab8827279cfffb92266"
          ],
          "data": "0x0000000000000000000000000000000000000000000000000000000000000001000000000000000000000000000000000000000000000000000000000000004c",
          "blockHash": "0x45ace839f689d1fb9210573f1fa3c9e244ace6c40e781bc1b2971bae267c24b7",
          "blockNumber": "0x1d",
          "blockTimestamp": "0x69b145fd",
          "transactionHash": "0x996a5768131af8fa72be1c49dad03dfa7b943a10483427c8f1794bda0e8db402",
          "transactionIndex": "0x0",
          "logIndex": "0x0",
          "removed": false
        }
      ],
      "logsBloom": "0x00000000000000000000000000000000000000000000000000000000000000000000000000000000000000000000080000000000000000000000000000040001000000010000000000000000000000000000000000040000000000040000000000000000000000000000000100000000000000000000000000000000000000000000000008000000000000000000000000000000000000000000000000000000000000000000000000000000000000000000000000000000002000000000000000000000000000200000000000000000000000002000000000000000000040000000000000000000000000000000000000000000000000000000000000000000",
      "type": "0x2",
      "transactionHash": "0x996a5768131af8fa72be1c49dad03dfa7b943a10483427c8f1794bda0e8db402",
      "transactionIndex": "0x0",
      "blockHash": "0x45ace839f689d1fb9210573f1fa3c9e244ace6c40e781bc1b2971bae267c24b7",
      "blockNumber": "0x1d",
      "gasUsed": "0x8ac0",
      "effectiveGasPrice": "0x182e11f",
      "blobGasPrice": "0x1",
      "from": "0xf39fd6e51aad88f6f4ce6ab8827279cfffb92266",
      "to": "0xcf7ed3acca5a467e9e704c703e8d87f634fb0fc9",
      "contractAddress": null
    },
    {
      "status": "0x1",
      "cumulativeGasUsed": "0x10a50",
      "logs": [
        {
          "address": "0xa51c1fc2f0d1a1b8494ed1fe312d7c3a78ed91c0",
          "topics": [
            "0xddf252ad1be2c89b69c2b068fc378daa952ba7f163c4a11628f55a4df523b3ef",
            "0x0000000000000000000000000000000000000000000000000000000000000000",
            "0x000000000000000000000000fa02dff43fad54ed35ea6d2676b4d0a4f5526965"
          ],
          "data": "0x00000000000000000000000000000000000000000000021e19e0c9bab2400000",
          "blockHash": "0x0c8d8f9073689aa0245507bf835d274327af2101fcf6099c98695b27cbf88389",
          "blockNumber": "0x1e",
          "blockTimestamp": "0x69b145fd",
          "transactionHash": "0xbfc37972089183ffa6c54301378d5232d09cab133913dad79144785804fbed81",
          "transactionIndex": "0x0",
          "logIndex": "0x0",
          "removed": false
        }
      ],
      "logsBloom": "0x00000000000000000000000000000000000000000000000000000000000000000000000000000000000000000000000000000000000000000000000000000000000000000000080000000008000000000000000000000000000000000000000000000000020000000000000000000800000000000000000000000010000000000000000000000000000000000000004000000000000400000000000000000000000000000000000000000000000000000000000000000000000000000000000000000002000000000000000000000000000000000000000000000000000020000000000000000000000000000002001000000000000000000000400000000000",
      "type": "0x2",
      "transactionHash": "0xbfc37972089183ffa6c54301378d5232d09cab133913dad79144785804fbed81",
      "transactionIndex": "0x0",
      "blockHash": "0x0c8d8f9073689aa0245507bf835d274327af2101fcf6099c98695b27cbf88389",
      "blockNumber": "0x1e",
      "gasUsed": "0x10a50",
      "effectiveGasPrice": "0x152a24d",
      "blobGasPrice": "0x1",
      "from": "0xf39fd6e51aad88f6f4ce6ab8827279cfffb92266",
      "to": "0xa51c1fc2f0d1a1b8494ed1fe312d7c3a78ed91c0",
      "contractAddress": null
    }
  ],
  "libraries": [],
  "pending": [],
  "returns": {},
  "timestamp": 1773225469915,
  "chain": 31337,
  "commit": "8d27e10"
}